{
	"contracts/crowdfunding.sol": {
		"Campaign": {
			"abi": [
				{
					"inputs": [
						{
							"internalType": "string",
							"name": "_title",
							"type": "string"
						},
						{
							"internalType": "uint256",
							"name": "_goal",
							"type": "uint256"
						},
						{
							"internalType": "uint256",
							"name": "_durationInDays",
							"type": "uint256"
						}
					],
					"stateMutability": "nonpayable",
					"type": "constructor"
				},
				{
					"anonymous": false,
					"inputs": [
						{
							"indexed": false,
							"internalType": "address",
							"name": "contributor",
							"type": "address"
						},
						{
							"indexed": false,
							"internalType": "uint256",
							"name": "amount",
							"type": "uint256"
						}
					],
					"name": "ContributionReceived",
					"type": "event"
				},
				{
					"inputs": [],
					"name": "claimFunds",
					"outputs": [],
					"stateMutability": "nonpayable",
					"type": "function"
				},
				{
					"inputs": [],
					"name": "contribute",
					"outputs": [],
					"stateMutability": "payable",
					"type": "function"
				},
				{
					"inputs": [
						{
							"internalType": "address",
							"name": "",
							"type": "address"
						}
					],
					"name": "contributions",
					"outputs": [
						{
							"internalType": "uint256",
							"name": "",
							"type": "uint256"
						}
					],
					"stateMutability": "view",
					"type": "function"
				},
				{
					"inputs": [],
					"name": "creator",
					"outputs": [
						{
							"internalType": "address payable",
							"name": "",
							"type": "address"
						}
					],
					"stateMutability": "view",
					"type": "function"
				},
				{
					"inputs": [],
					"name": "deadline",
					"outputs": [
						{
							"internalType": "uint256",
							"name": "",
							"type": "uint256"
						}
					],
					"stateMutability": "view",
					"type": "function"
				},
				{
					"inputs": [],
					"name": "getRefund",
					"outputs": [],
					"stateMutability": "nonpayable",
					"type": "function"
				},
				{
					"inputs": [],
					"name": "goal",
					"outputs": [
						{
							"internalType": "uint256",
							"name": "",
							"type": "uint256"
						}
					],
					"stateMutability": "view",
					"type": "function"
				},
				{
					"inputs": [],
					"name": "title",
					"outputs": [
						{
							"internalType": "string",
							"name": "",
							"type": "string"
						}
					],
					"stateMutability": "view",
					"type": "function"
				},
				{
					"inputs": [],
					"name": "totalRaised",
					"outputs": [
						{
							"internalType": "uint256",
							"name": "",
							"type": "uint256"
						}
					],
					"stateMutability": "view",
					"type": "function"
				}
			],
			"devdoc": {
				"kind": "dev",
				"methods": {},
				"version": 1
			},
			"evm": {
				"assembly": "    /* \"contracts/crowdfunding.sol\":59:2248  contract Campaign {... */\n  mstore(0x40, 0x80)\n    /* \"contracts/crowdfunding.sol\":450:1024  constructor(... */\n  callvalue\n  dup1\n  iszero\n  tag_1\n  jumpi\n  0x00\n  dup1\n  revert\ntag_1:\n  pop\n  mload(0x40)\n  sub(codesize, bytecodeSize)\n  dup1\n  bytecodeSize\n  dup4\n  codecopy\n  dup2\n  dup2\n  add\n  0x40\n  mstore\n  dup2\n  add\n  swap1\n  tag_2\n  swap2\n  swap1\n  tag_3\n  jump\t// in\ntag_2:\n    /* \"contracts/crowdfunding.sol\":640:641  0 */\n  0x00\n    /* \"contracts/crowdfunding.sol\":632:637  _goal */\n  dup3\n    /* \"contracts/crowdfunding.sol\":632:641  _goal > 0 */\n  gt\n    /* \"contracts/crowdfunding.sol\":624:676  require(_goal > 0, \"Goal must be greater than zero\") */\n  tag_6\n  jumpi\n  mload(0x40)\n  0x08c379a000000000000000000000000000000000000000000000000000000000\n  dup2\n  mstore\n  0x04\n  add\n  tag_7\n  swap1\n  tag_8\n  jump\t// in\ntag_7:\n  mload(0x40)\n  dup1\n  swap2\n  sub\n  swap1\n  revert\ntag_6:\n    /* \"contracts/crowdfunding.sol\":713:714  1 */\n  0x01\n    /* \"contracts/crowdfunding.sol\":694:709  _durationInDays */\n  dup2\n    /* \"contracts/crowdfunding.sol\":694:714  _durationInDays >= 1 */\n  lt\n  iszero\n    /* \"contracts/crowdfunding.sol\":686:755  require(_durationInDays >= 1, \"Campaign must run for at least 1 day\") */\n  tag_9\n  jumpi\n  mload(0x40)\n  0x08c379a000000000000000000000000000000000000000000000000000000000\n  dup2\n  mstore\n  0x04\n  add\n  tag_10\n  swap1\n  tag_11\n  jump\t// in\ntag_10:\n  mload(0x40)\n  dup1\n  swap2\n  sub\n  swap1\n  revert\ntag_9:\n    /* \"contracts/crowdfunding.sol\":785:795  msg.sender */\n  caller\n    /* \"contracts/crowdfunding.sol\":767:774  creator */\n  0x00\n  dup1\n    /* \"contracts/crowdfunding.sol\":767:796  creator = payable(msg.sender) */\n  0x0100\n  exp\n  dup2\n  sload\n  dup2\n  0xffffffffffffffffffffffffffffffffffffffff\n  mul\n  not\n  and\n  swap1\n  dup4\n  0xffffffffffffffffffffffffffffffffffffffff\n  and\n  mul\n  or\n  swap1\n  sstore\n  pop\n    /* \"contracts/crowdfunding.sol\":868:874  _title */\n  dup3\n    /* \"contracts/crowdfunding.sol\":860:865  title */\n  0x01\n    /* \"contracts/crowdfunding.sol\":860:874  title = _title */\n  swap1\n  dup2\n  tag_12\n  swap2\n  swap1\n  tag_13\n  jump\t// in\ntag_12:\n  pop\n    /* \"contracts/crowdfunding.sol\":891:896  _goal */\n  dup2\n    /* \"contracts/crowdfunding.sol\":884:888  goal */\n  0x02\n    /* \"contracts/crowdfunding.sol\":884:896  goal = _goal */\n  dup2\n  swap1\n  sstore\n  pop\n    /* \"contracts/crowdfunding.sol\":954:960  1 days */\n  0x015180\n    /* \"contracts/crowdfunding.sol\":936:951  _durationInDays */\n  dup2\n    /* \"contracts/crowdfunding.sol\":936:960  _durationInDays * 1 days */\n  tag_14\n  swap2\n  swap1\n  tag_15\n  jump\t// in\ntag_14:\n    /* \"contracts/crowdfunding.sol\":917:932  block.timestamp */\n  timestamp\n    /* \"contracts/crowdfunding.sol\":917:961  block.timestamp + (_durationInDays * 1 days) */\n  tag_16\n  swap2\n  swap1\n  tag_17\n  jump\t// in\ntag_16:\n    /* \"contracts/crowdfunding.sol\":906:914  deadline */\n  0x03\n    /* \"contracts/crowdfunding.sol\":906:961  deadline = block.timestamp + (_durationInDays * 1 days) */\n  dup2\n  swap1\n  sstore\n  pop\n    /* \"contracts/crowdfunding.sol\":1012:1013  0 */\n  0x00\n    /* \"contracts/crowdfunding.sol\":998:1009  totalRaised */\n  0x04\n    /* \"contracts/crowdfunding.sol\":998:1013  totalRaised = 0 */\n  dup2\n  swap1\n  sstore\n  pop\n    /* \"contracts/crowdfunding.sol\":450:1024  constructor(... */\n  pop\n  pop\n  pop\n    /* \"contracts/crowdfunding.sol\":59:2248  contract Campaign {... */\n  jump(tag_18)\n    /* \"#utility.yul\":7:82   */\ntag_19:\n    /* \"#utility.yul\":40:46   */\n  0x00\n    /* \"#utility.yul\":73:75   */\n  0x40\n    /* \"#utility.yul\":67:76   */\n  mload\n    /* \"#utility.yul\":57:76   */\n  swap1\n  pop\n    /* \"#utility.yul\":7:82   */\n  swap1\n  jump\t// out\n    /* \"#utility.yul\":88:205   */\ntag_20:\n    /* \"#utility.yul\":197:198   */\n  0x00\n    /* \"#utility.yul\":194:195   */\n  dup1\n    /* \"#utility.yul\":187:199   */\n  revert\n    /* \"#utility.yul\":211:328   */\ntag_21:\n    /* \"#utility.yul\":320:321   */\n  0x00\n    /* \"#utility.yul\":317:318   */\n  dup1\n    /* \"#utility.yul\":310:322   */\n  revert\n    /* \"#utility.yul\":334:451   */\ntag_22:\n    /* \"#utility.yul\":443:444   */\n  0x00\n    /* \"#utility.yul\":440:441   */\n  dup1\n    /* \"#utility.yul\":433:445   */\n  revert\n    /* \"#utility.yul\":457:574   */\ntag_23:\n    /* \"#utility.yul\":566:567   */\n  0x00\n    /* \"#utility.yul\":563:564   */\n  dup1\n    /* \"#utility.yul\":556:568   */\n  revert\n    /* \"#utility.yul\":580:682   */\ntag_24:\n    /* \"#utility.yul\":621:627   */\n  0x00\n    /* \"#utility.yul\":672:674   */\n  0x1f\n    /* \"#utility.yul\":668:675   */\n  not\n    /* \"#utility.yul\":663:665   */\n  0x1f\n    /* \"#utility.yul\":656:661   */\n  dup4\n    /* \"#utility.yul\":652:666   */\n  add\n    /* \"#utility.yul\":648:676   */\n  and\n    /* \"#utility.yul\":638:676   */\n  swap1\n  pop\n    /* \"#utility.yul\":580:682   */\n  swap2\n  swap1\n  pop\n  jump\t// out\n    /* \"#utility.yul\":688:868   */\ntag_25:\n    /* \"#utility.yul\":736:813   */\n  0x4e487b7100000000000000000000000000000000000000000000000000000000\n    /* \"#utility.yul\":733:734   */\n  0x00\n    /* \"#utility.yul\":726:814   */\n  mstore\n    /* \"#utility.yul\":833:837   */\n  0x41\n    /* \"#utility.yul\":830:831   */\n  0x04\n    /* \"#utility.yul\":823:838   */\n  mstore\n    /* \"#utility.yul\":857:861   */\n  0x24\n    /* \"#utility.yul\":854:855   */\n  0x00\n    /* \"#utility.yul\":847:862   */\n  revert\n    /* \"#utility.yul\":874:1155   */\ntag_26:\n    /* \"#utility.yul\":957:984   */\n  tag_68\n    /* \"#utility.yul\":979:983   */\n  dup3\n    /* \"#utility.yul\":957:984   */\n  tag_24\n  jump\t// in\ntag_68:\n    /* \"#utility.yul\":949:955   */\n  dup2\n    /* \"#utility.yul\":945:985   */\n  add\n    /* \"#utility.yul\":1087:1093   */\n  dup2\n    /* \"#utility.yul\":1075:1085   */\n  dup2\n    /* \"#utility.yul\":1072:1094   */\n  lt\n    /* \"#utility.yul\":1051:1069   */\n  0xffffffffffffffff\n    /* \"#utility.yul\":1039:1049   */\n  dup3\n    /* \"#utility.yul\":1036:1070   */\n  gt\n    /* \"#utility.yul\":1033:1095   */\n  or\n    /* \"#utility.yul\":1030:1118   */\n  iszero\n  tag_69\n  jumpi\n    /* \"#utility.yul\":1098:1116   */\n  tag_70\n  tag_25\n  jump\t// in\ntag_70:\n    /* \"#utility.yul\":1030:1118   */\ntag_69:\n    /* \"#utility.yul\":1138:1148   */\n  dup1\n    /* \"#utility.yul\":1134:1136   */\n  0x40\n    /* \"#utility.yul\":1127:1149   */\n  mstore\n    /* \"#utility.yul\":917:1155   */\n  pop\n    /* \"#utility.yul\":874:1155   */\n  pop\n  pop\n  jump\t// out\n    /* \"#utility.yul\":1161:1290   */\ntag_27:\n    /* \"#utility.yul\":1195:1201   */\n  0x00\n    /* \"#utility.yul\":1222:1242   */\n  tag_72\n  tag_19\n  jump\t// in\ntag_72:\n    /* \"#utility.yul\":1212:1242   */\n  swap1\n  pop\n    /* \"#utility.yul\":1251:1284   */\n  tag_73\n    /* \"#utility.yul\":1279:1283   */\n  dup3\n    /* \"#utility.yul\":1271:1277   */\n  dup3\n    /* \"#utility.yul\":1251:1284   */\n  tag_26\n  jump\t// in\ntag_73:\n    /* \"#utility.yul\":1161:1290   */\n  swap2\n  swap1\n  pop\n  jump\t// out\n    /* \"#utility.yul\":1296:1604   */\ntag_28:\n    /* \"#utility.yul\":1358:1362   */\n  0x00\n    /* \"#utility.yul\":1448:1466   */\n  0xffffffffffffffff\n    /* \"#utility.yul\":1440:1446   */\n  dup3\n    /* \"#utility.yul\":1437:1467   */\n  gt\n    /* \"#utility.yul\":1434:1490   */\n  iszero\n  tag_75\n  jumpi\n    /* \"#utility.yul\":1470:1488   */\n  tag_76\n  tag_25\n  jump\t// in\ntag_76:\n    /* \"#utility.yul\":1434:1490   */\ntag_75:\n    /* \"#utility.yul\":1508:1537   */\n  tag_77\n    /* \"#utility.yul\":1530:1536   */\n  dup3\n    /* \"#utility.yul\":1508:1537   */\n  tag_24\n  jump\t// in\ntag_77:\n    /* \"#utility.yul\":1500:1537   */\n  swap1\n  pop\n    /* \"#utility.yul\":1592:1596   */\n  0x20\n    /* \"#utility.yul\":1586:1590   */\n  dup2\n    /* \"#utility.yul\":1582:1597   */\n  add\n    /* \"#utility.yul\":1574:1597   */\n  swap1\n  pop\n    /* \"#utility.yul\":1296:1604   */\n  swap2\n  swap1\n  pop\n  jump\t// out\n    /* \"#utility.yul\":1610:1749   */\ntag_29:\n    /* \"#utility.yul\":1699:1705   */\n  dup3\n    /* \"#utility.yul\":1694:1697   */\n  dup2\n    /* \"#utility.yul\":1689:1692   */\n  dup4\n    /* \"#utility.yul\":1683:1706   */\n  mcopy\n    /* \"#utility.yul\":1740:1741   */\n  0x00\n    /* \"#utility.yul\":1731:1737   */\n  dup4\n    /* \"#utility.yul\":1726:1729   */\n  dup4\n    /* \"#utility.yul\":1722:1738   */\n  add\n    /* \"#utility.yul\":1715:1742   */\n  mstore\n    /* \"#utility.yul\":1610:1749   */\n  pop\n  pop\n  pop\n  jump\t// out\n    /* \"#utility.yul\":1755:2189   */\ntag_30:\n    /* \"#utility.yul\":1844:1849   */\n  0x00\n    /* \"#utility.yul\":1869:1935   */\n  tag_80\n    /* \"#utility.yul\":1885:1934   */\n  tag_81\n    /* \"#utility.yul\":1927:1933   */\n  dup5\n    /* \"#utility.yul\":1885:1934   */\n  tag_28\n  jump\t// in\ntag_81:\n    /* \"#utility.yul\":1869:1935   */\n  tag_27\n  jump\t// in\ntag_80:\n    /* \"#utility.yul\":1860:1935   */\n  swap1\n  pop\n    /* \"#utility.yul\":1958:1964   */\n  dup3\n    /* \"#utility.yul\":1951:1956   */\n  dup2\n    /* \"#utility.yul\":1944:1965   */\n  mstore\n    /* \"#utility.yul\":1996:2000   */\n  0x20\n    /* \"#utility.yul\":1989:1994   */\n  dup2\n    /* \"#utility.yul\":1985:2001   */\n  add\n    /* \"#utility.yul\":2034:2037   */\n  dup5\n    /* \"#utility.yul\":2025:2031   */\n  dup5\n    /* \"#utility.yul\":2020:2023   */\n  dup5\n    /* \"#utility.yul\":2016:2032   */\n  add\n    /* \"#utility.yul\":2013:2038   */\n  gt\n    /* \"#utility.yul\":2010:2122   */\n  iszero\n  tag_82\n  jumpi\n    /* \"#utility.yul\":2041:2120   */\n  tag_83\n  tag_23\n  jump\t// in\ntag_83:\n    /* \"#utility.yul\":2010:2122   */\ntag_82:\n    /* \"#utility.yul\":2131:2183   */\n  tag_84\n    /* \"#utility.yul\":2176:2182   */\n  dup5\n    /* \"#utility.yul\":2171:2174   */\n  dup3\n    /* \"#utility.yul\":2166:2169   */\n  dup6\n    /* \"#utility.yul\":2131:2183   */\n  tag_29\n  jump\t// in\ntag_84:\n    /* \"#utility.yul\":1850:2189   */\n  pop\n    /* \"#utility.yul\":1755:2189   */\n  swap4\n  swap3\n  pop\n  pop\n  pop\n  jump\t// out\n    /* \"#utility.yul\":2209:2564   */\ntag_31:\n    /* \"#utility.yul\":2276:2281   */\n  0x00\n    /* \"#utility.yul\":2325:2328   */\n  dup3\n    /* \"#utility.yul\":2318:2322   */\n  0x1f\n    /* \"#utility.yul\":2310:2316   */\n  dup4\n    /* \"#utility.yul\":2306:2323   */\n  add\n    /* \"#utility.yul\":2302:2329   */\n  slt\n    /* \"#utility.yul\":2292:2414   */\n  tag_86\n  jumpi\n    /* \"#utility.yul\":2333:2412   */\n  tag_87\n  tag_22\n  jump\t// in\ntag_87:\n    /* \"#utility.yul\":2292:2414   */\ntag_86:\n    /* \"#utility.yul\":2443:2449   */\n  dup2\n    /* \"#utility.yul\":2437:2450   */\n  mload\n    /* \"#utility.yul\":2468:2558   */\n  tag_88\n    /* \"#utility.yul\":2554:2557   */\n  dup5\n    /* \"#utility.yul\":2546:2552   */\n  dup3\n    /* \"#utility.yul\":2539:2543   */\n  0x20\n    /* \"#utility.yul\":2531:2537   */\n  dup7\n    /* \"#utility.yul\":2527:2544   */\n  add\n    /* \"#utility.yul\":2468:2558   */\n  tag_30\n  jump\t// in\ntag_88:\n    /* \"#utility.yul\":2459:2558   */\n  swap2\n  pop\n    /* \"#utility.yul\":2282:2564   */\n  pop\n    /* \"#utility.yul\":2209:2564   */\n  swap3\n  swap2\n  pop\n  pop\n  jump\t// out\n    /* \"#utility.yul\":2570:2647   */\ntag_32:\n    /* \"#utility.yul\":2607:2614   */\n  0x00\n    /* \"#utility.yul\":2636:2641   */\n  dup2\n    /* \"#utility.yul\":2625:2641   */\n  swap1\n  pop\n    /* \"#utility.yul\":2570:2647   */\n  swap2\n  swap1\n  pop\n  jump\t// out\n    /* \"#utility.yul\":2653:2775   */\ntag_33:\n    /* \"#utility.yul\":2726:2750   */\n  tag_91\n    /* \"#utility.yul\":2744:2749   */\n  dup2\n    /* \"#utility.yul\":2726:2750   */\n  tag_32\n  jump\t// in\ntag_91:\n    /* \"#utility.yul\":2719:2724   */\n  dup2\n    /* \"#utility.yul\":2716:2751   */\n  eq\n    /* \"#utility.yul\":2706:2769   */\n  tag_92\n  jumpi\n    /* \"#utility.yul\":2765:2766   */\n  0x00\n    /* \"#utility.yul\":2762:2763   */\n  dup1\n    /* \"#utility.yul\":2755:2767   */\n  revert\n    /* \"#utility.yul\":2706:2769   */\ntag_92:\n    /* \"#utility.yul\":2653:2775   */\n  pop\n  jump\t// out\n    /* \"#utility.yul\":2781:2924   */\ntag_34:\n    /* \"#utility.yul\":2838:2843   */\n  0x00\n    /* \"#utility.yul\":2869:2875   */\n  dup2\n    /* \"#utility.yul\":2863:2876   */\n  mload\n    /* \"#utility.yul\":2854:2876   */\n  swap1\n  pop\n    /* \"#utility.yul\":2885:2918   */\n  tag_94\n    /* \"#utility.yul\":2912:2917   */\n  dup2\n    /* \"#utility.yul\":2885:2918   */\n  tag_33\n  jump\t// in\ntag_94:\n    /* \"#utility.yul\":2781:2924   */\n  swap3\n  swap2\n  pop\n  pop\n  jump\t// out\n    /* \"#utility.yul\":2930:3766   */\ntag_3:\n    /* \"#utility.yul\":3028:3034   */\n  0x00\n    /* \"#utility.yul\":3036:3042   */\n  dup1\n    /* \"#utility.yul\":3044:3050   */\n  0x00\n    /* \"#utility.yul\":3093:3095   */\n  0x60\n    /* \"#utility.yul\":3081:3090   */\n  dup5\n    /* \"#utility.yul\":3072:3079   */\n  dup7\n    /* \"#utility.yul\":3068:3091   */\n  sub\n    /* \"#utility.yul\":3064:3096   */\n  slt\n    /* \"#utility.yul\":3061:3180   */\n  iszero\n  tag_96\n  jumpi\n    /* \"#utility.yul\":3099:3178   */\n  tag_97\n  tag_20\n  jump\t// in\ntag_97:\n    /* \"#utility.yul\":3061:3180   */\ntag_96:\n    /* \"#utility.yul\":3240:3241   */\n  0x00\n    /* \"#utility.yul\":3229:3238   */\n  dup5\n    /* \"#utility.yul\":3225:3242   */\n  add\n    /* \"#utility.yul\":3219:3243   */\n  mload\n    /* \"#utility.yul\":3270:3288   */\n  0xffffffffffffffff\n    /* \"#utility.yul\":3262:3268   */\n  dup2\n    /* \"#utility.yul\":3259:3289   */\n  gt\n    /* \"#utility.yul\":3256:3373   */\n  iszero\n  tag_98\n  jumpi\n    /* \"#utility.yul\":3292:3371   */\n  tag_99\n  tag_21\n  jump\t// in\ntag_99:\n    /* \"#utility.yul\":3256:3373   */\ntag_98:\n    /* \"#utility.yul\":3397:3471   */\n  tag_100\n    /* \"#utility.yul\":3463:3470   */\n  dup7\n    /* \"#utility.yul\":3454:3460   */\n  dup3\n    /* \"#utility.yul\":3443:3452   */\n  dup8\n    /* \"#utility.yul\":3439:3461   */\n  add\n    /* \"#utility.yul\":3397:3471   */\n  tag_31\n  jump\t// in\ntag_100:\n    /* \"#utility.yul\":3387:3471   */\n  swap4\n  pop\n    /* \"#utility.yul\":3190:3481   */\n  pop\n    /* \"#utility.yul\":3520:3522   */\n  0x20\n    /* \"#utility.yul\":3546:3610   */\n  tag_101\n    /* \"#utility.yul\":3602:3609   */\n  dup7\n    /* \"#utility.yul\":3593:3599   */\n  dup3\n    /* \"#utility.yul\":3582:3591   */\n  dup8\n    /* \"#utility.yul\":3578:3600   */\n  add\n    /* \"#utility.yul\":3546:3610   */\n  tag_34\n  jump\t// in\ntag_101:\n    /* \"#utility.yul\":3536:3610   */\n  swap3\n  pop\n    /* \"#utility.yul\":3491:3620   */\n  pop\n    /* \"#utility.yul\":3659:3661   */\n  0x40\n    /* \"#utility.yul\":3685:3749   */\n  tag_102\n    /* \"#utility.yul\":3741:3748   */\n  dup7\n    /* \"#utility.yul\":3732:3738   */\n  dup3\n    /* \"#utility.yul\":3721:3730   */\n  dup8\n    /* \"#utility.yul\":3717:3739   */\n  add\n    /* \"#utility.yul\":3685:3749   */\n  tag_34\n  jump\t// in\ntag_102:\n    /* \"#utility.yul\":3675:3749   */\n  swap2\n  pop\n    /* \"#utility.yul\":3630:3759   */\n  pop\n    /* \"#utility.yul\":2930:3766   */\n  swap3\n  pop\n  swap3\n  pop\n  swap3\n  jump\t// out\n    /* \"#utility.yul\":3772:3941   */\ntag_35:\n    /* \"#utility.yul\":3856:3867   */\n  0x00\n    /* \"#utility.yul\":3890:3896   */\n  dup3\n    /* \"#utility.yul\":3885:3888   */\n  dup3\n    /* \"#utility.yul\":3878:3897   */\n  mstore\n    /* \"#utility.yul\":3930:3934   */\n  0x20\n    /* \"#utility.yul\":3925:3928   */\n  dup3\n    /* \"#utility.yul\":3921:3935   */\n  add\n    /* \"#utility.yul\":3906:3935   */\n  swap1\n  pop\n    /* \"#utility.yul\":3772:3941   */\n  swap3\n  swap2\n  pop\n  pop\n  jump\t// out\n    /* \"#utility.yul\":3947:4127   */\ntag_36:\n    /* \"#utility.yul\":4087:4119   */\n  0x476f616c206d7573742062652067726561746572207468616e207a65726f0000\n    /* \"#utility.yul\":4083:4084   */\n  0x00\n    /* \"#utility.yul\":4075:4081   */\n  dup3\n    /* \"#utility.yul\":4071:4085   */\n  add\n    /* \"#utility.yul\":4064:4120   */\n  mstore\n    /* \"#utility.yul\":3947:4127   */\n  pop\n  jump\t// out\n    /* \"#utility.yul\":4133:4499   */\ntag_37:\n    /* \"#utility.yul\":4275:4278   */\n  0x00\n    /* \"#utility.yul\":4296:4363   */\n  tag_106\n    /* \"#utility.yul\":4360:4362   */\n  0x1e\n    /* \"#utility.yul\":4355:4358   */\n  dup4\n    /* \"#utility.yul\":4296:4363   */\n  tag_35\n  jump\t// in\ntag_106:\n    /* \"#utility.yul\":4289:4363   */\n  swap2\n  pop\n    /* \"#utility.yul\":4372:4465   */\n  tag_107\n    /* \"#utility.yul\":4461:4464   */\n  dup3\n    /* \"#utility.yul\":4372:4465   */\n  tag_36\n  jump\t// in\ntag_107:\n    /* \"#utility.yul\":4490:4492   */\n  0x20\n    /* \"#utility.yul\":4485:4488   */\n  dup3\n    /* \"#utility.yul\":4481:4493   */\n  add\n    /* \"#utility.yul\":4474:4493   */\n  swap1\n  pop\n    /* \"#utility.yul\":4133:4499   */\n  swap2\n  swap1\n  pop\n  jump\t// out\n    /* \"#utility.yul\":4505:4924   */\ntag_8:\n    /* \"#utility.yul\":4671:4675   */\n  0x00\n    /* \"#utility.yul\":4709:4711   */\n  0x20\n    /* \"#utility.yul\":4698:4707   */\n  dup3\n    /* \"#utility.yul\":4694:4712   */\n  add\n    /* \"#utility.yul\":4686:4712   */\n  swap1\n  pop\n    /* \"#utility.yul\":4758:4767   */\n  dup2\n    /* \"#utility.yul\":4752:4756   */\n  dup2\n    /* \"#utility.yul\":4748:4768   */\n  sub\n    /* \"#utility.yul\":4744:4745   */\n  0x00\n    /* \"#utility.yul\":4733:4742   */\n  dup4\n    /* \"#utility.yul\":4729:4746   */\n  add\n    /* \"#utility.yul\":4722:4769   */\n  mstore\n    /* \"#utility.yul\":4786:4917   */\n  tag_109\n    /* \"#utility.yul\":4912:4916   */\n  dup2\n    /* \"#utility.yul\":4786:4917   */\n  tag_37\n  jump\t// in\ntag_109:\n    /* \"#utility.yul\":4778:4917   */\n  swap1\n  pop\n    /* \"#utility.yul\":4505:4924   */\n  swap2\n  swap1\n  pop\n  jump\t// out\n    /* \"#utility.yul\":4930:5153   */\ntag_38:\n    /* \"#utility.yul\":5070:5104   */\n  0x43616d706169676e206d7573742072756e20666f72206174206c656173742031\n    /* \"#utility.yul\":5066:5067   */\n  0x00\n    /* \"#utility.yul\":5058:5064   */\n  dup3\n    /* \"#utility.yul\":5054:5068   */\n  add\n    /* \"#utility.yul\":5047:5105   */\n  mstore\n    /* \"#utility.yul\":5139:5145   */\n  0x2064617900000000000000000000000000000000000000000000000000000000\n    /* \"#utility.yul\":5134:5136   */\n  0x20\n    /* \"#utility.yul\":5126:5132   */\n  dup3\n    /* \"#utility.yul\":5122:5137   */\n  add\n    /* \"#utility.yul\":5115:5146   */\n  mstore\n    /* \"#utility.yul\":4930:5153   */\n  pop\n  jump\t// out\n    /* \"#utility.yul\":5159:5525   */\ntag_39:\n    /* \"#utility.yul\":5301:5304   */\n  0x00\n    /* \"#utility.yul\":5322:5389   */\n  tag_112\n    /* \"#utility.yul\":5386:5388   */\n  0x24\n    /* \"#utility.yul\":5381:5384   */\n  dup4\n    /* \"#utility.yul\":5322:5389   */\n  tag_35\n  jump\t// in\ntag_112:\n    /* \"#utility.yul\":5315:5389   */\n  swap2\n  pop\n    /* \"#utility.yul\":5398:5491   */\n  tag_113\n    /* \"#utility.yul\":5487:5490   */\n  dup3\n    /* \"#utility.yul\":5398:5491   */\n  tag_38\n  jump\t// in\ntag_113:\n    /* \"#utility.yul\":5516:5518   */\n  0x40\n    /* \"#utility.yul\":5511:5514   */\n  dup3\n    /* \"#utility.yul\":5507:5519   */\n  add\n    /* \"#utility.yul\":5500:5519   */\n  swap1\n  pop\n    /* \"#utility.yul\":5159:5525   */\n  swap2\n  swap1\n  pop\n  jump\t// out\n    /* \"#utility.yul\":5531:5950   */\ntag_11:\n    /* \"#utility.yul\":5697:5701   */\n  0x00\n    /* \"#utility.yul\":5735:5737   */\n  0x20\n    /* \"#utility.yul\":5724:5733   */\n  dup3\n    /* \"#utility.yul\":5720:5738   */\n  add\n    /* \"#utility.yul\":5712:5738   */\n  swap1\n  pop\n    /* \"#utility.yul\":5784:5793   */\n  dup2\n    /* \"#utility.yul\":5778:5782   */\n  dup2\n    /* \"#utility.yul\":5774:5794   */\n  sub\n    /* \"#utility.yul\":5770:5771   */\n  0x00\n    /* \"#utility.yul\":5759:5768   */\n  dup4\n    /* \"#utility.yul\":5755:5772   */\n  add\n    /* \"#utility.yul\":5748:5795   */\n  mstore\n    /* \"#utility.yul\":5812:5943   */\n  tag_115\n    /* \"#utility.yul\":5938:5942   */\n  dup2\n    /* \"#utility.yul\":5812:5943   */\n  tag_39\n  jump\t// in\ntag_115:\n    /* \"#utility.yul\":5804:5943   */\n  swap1\n  pop\n    /* \"#utility.yul\":5531:5950   */\n  swap2\n  swap1\n  pop\n  jump\t// out\n    /* \"#utility.yul\":5956:6055   */\ntag_40:\n    /* \"#utility.yul\":6008:6014   */\n  0x00\n    /* \"#utility.yul\":6042:6047   */\n  dup2\n    /* \"#utility.yul\":6036:6048   */\n  mload\n    /* \"#utility.yul\":6026:6048   */\n  swap1\n  pop\n    /* \"#utility.yul\":5956:6055   */\n  swap2\n  swap1\n  pop\n  jump\t// out\n    /* \"#utility.yul\":6061:6241   */\ntag_41:\n    /* \"#utility.yul\":6109:6186   */\n  0x4e487b7100000000000000000000000000000000000000000000000000000000\n    /* \"#utility.yul\":6106:6107   */\n  0x00\n    /* \"#utility.yul\":6099:6187   */\n  mstore\n    /* \"#utility.yul\":6206:6210   */\n  0x22\n    /* \"#utility.yul\":6203:6204   */\n  0x04\n    /* \"#utility.yul\":6196:6211   */\n  mstore\n    /* \"#utility.yul\":6230:6234   */\n  0x24\n    /* \"#utility.yul\":6227:6228   */\n  0x00\n    /* \"#utility.yul\":6220:6235   */\n  revert\n    /* \"#utility.yul\":6247:6567   */\ntag_42:\n    /* \"#utility.yul\":6291:6297   */\n  0x00\n    /* \"#utility.yul\":6328:6329   */\n  0x02\n    /* \"#utility.yul\":6322:6326   */\n  dup3\n    /* \"#utility.yul\":6318:6330   */\n  div\n    /* \"#utility.yul\":6308:6330   */\n  swap1\n  pop\n    /* \"#utility.yul\":6375:6376   */\n  0x01\n    /* \"#utility.yul\":6369:6373   */\n  dup3\n    /* \"#utility.yul\":6365:6377   */\n  and\n    /* \"#utility.yul\":6396:6414   */\n  dup1\n    /* \"#utility.yul\":6386:6467   */\n  tag_119\n  jumpi\n    /* \"#utility.yul\":6452:6456   */\n  0x7f\n    /* \"#utility.yul\":6444:6450   */\n  dup3\n    /* \"#utility.yul\":6440:6457   */\n  and\n    /* \"#utility.yul\":6430:6457   */\n  swap2\n  pop\n    /* \"#utility.yul\":6386:6467   */\ntag_119:\n    /* \"#utility.yul\":6514:6516   */\n  0x20\n    /* \"#utility.yul\":6506:6512   */\n  dup3\n    /* \"#utility.yul\":6503:6517   */\n  lt\n    /* \"#utility.yul\":6483:6501   */\n  dup2\n    /* \"#utility.yul\":6480:6518   */\n  sub\n    /* \"#utility.yul\":6477:6561   */\n  tag_120\n  jumpi\n    /* \"#utility.yul\":6533:6551   */\n  tag_121\n  tag_41\n  jump\t// in\ntag_121:\n    /* \"#utility.yul\":6477:6561   */\ntag_120:\n    /* \"#utility.yul\":6298:6567   */\n  pop\n    /* \"#utility.yul\":6247:6567   */\n  swap2\n  swap1\n  pop\n  jump\t// out\n    /* \"#utility.yul\":6573:6714   */\ntag_43:\n    /* \"#utility.yul\":6622:6626   */\n  0x00\n    /* \"#utility.yul\":6645:6648   */\n  dup2\n    /* \"#utility.yul\":6637:6648   */\n  swap1\n  pop\n    /* \"#utility.yul\":6668:6671   */\n  dup2\n    /* \"#utility.yul\":6665:6666   */\n  0x00\n    /* \"#utility.yul\":6658:6672   */\n  mstore\n    /* \"#utility.yul\":6702:6706   */\n  0x20\n    /* \"#utility.yul\":6699:6700   */\n  0x00\n    /* \"#utility.yul\":6689:6707   */\n  keccak256\n    /* \"#utility.yul\":6681:6707   */\n  swap1\n  pop\n    /* \"#utility.yul\":6573:6714   */\n  swap2\n  swap1\n  pop\n  jump\t// out\n    /* \"#utility.yul\":6720:6813   */\ntag_44:\n    /* \"#utility.yul\":6757:6763   */\n  0x00\n    /* \"#utility.yul\":6804:6806   */\n  0x20\n    /* \"#utility.yul\":6799:6801   */\n  0x1f\n    /* \"#utility.yul\":6792:6797   */\n  dup4\n    /* \"#utility.yul\":6788:6802   */\n  add\n    /* \"#utility.yul\":6784:6807   */\n  div\n    /* \"#utility.yul\":6774:6807   */\n  swap1\n  pop\n    /* \"#utility.yul\":6720:6813   */\n  swap2\n  swap1\n  pop\n  jump\t// out\n    /* \"#utility.yul\":6819:6926   */\ntag_45:\n    /* \"#utility.yul\":6863:6871   */\n  0x00\n    /* \"#utility.yul\":6913:6918   */\n  dup3\n    /* \"#utility.yul\":6907:6911   */\n  dup3\n    /* \"#utility.yul\":6903:6919   */\n  shl\n    /* \"#utility.yul\":6882:6919   */\n  swap1\n  pop\n    /* \"#utility.yul\":6819:6926   */\n  swap3\n  swap2\n  pop\n  pop\n  jump\t// out\n    /* \"#utility.yul\":6932:7325   */\ntag_46:\n    /* \"#utility.yul\":7001:7007   */\n  0x00\n    /* \"#utility.yul\":7051:7052   */\n  0x08\n    /* \"#utility.yul\":7039:7049   */\n  dup4\n    /* \"#utility.yul\":7035:7053   */\n  mul\n    /* \"#utility.yul\":7074:7171   */\n  tag_126\n    /* \"#utility.yul\":7104:7170   */\n  0xffffffffffffffffffffffffffffffffffffffffffffffffffffffffffffffff\n    /* \"#utility.yul\":7093:7102   */\n  dup3\n    /* \"#utility.yul\":7074:7171   */\n  tag_45\n  jump\t// in\ntag_126:\n    /* \"#utility.yul\":7192:7231   */\n  tag_127\n    /* \"#utility.yul\":7222:7230   */\n  dup7\n    /* \"#utility.yul\":7211:7220   */\n  dup4\n    /* \"#utility.yul\":7192:7231   */\n  tag_45\n  jump\t// in\ntag_127:\n    /* \"#utility.yul\":7180:7231   */\n  swap6\n  pop\n    /* \"#utility.yul\":7264:7268   */\n  dup1\n    /* \"#utility.yul\":7260:7269   */\n  not\n    /* \"#utility.yul\":7253:7258   */\n  dup5\n    /* \"#utility.yul\":7249:7270   */\n  and\n    /* \"#utility.yul\":7240:7270   */\n  swap4\n  pop\n    /* \"#utility.yul\":7313:7317   */\n  dup1\n    /* \"#utility.yul\":7303:7311   */\n  dup7\n    /* \"#utility.yul\":7299:7318   */\n  and\n    /* \"#utility.yul\":7292:7297   */\n  dup5\n    /* \"#utility.yul\":7289:7319   */\n  or\n    /* \"#utility.yul\":7279:7319   */\n  swap3\n  pop\n    /* \"#utility.yul\":7008:7325   */\n  pop\n  pop\n    /* \"#utility.yul\":6932:7325   */\n  swap4\n  swap3\n  pop\n  pop\n  pop\n  jump\t// out\n    /* \"#utility.yul\":7331:7391   */\ntag_47:\n    /* \"#utility.yul\":7359:7362   */\n  0x00\n    /* \"#utility.yul\":7380:7385   */\n  dup2\n    /* \"#utility.yul\":7373:7385   */\n  swap1\n  pop\n    /* \"#utility.yul\":7331:7391   */\n  swap2\n  swap1\n  pop\n  jump\t// out\n    /* \"#utility.yul\":7397:7539   */\ntag_48:\n    /* \"#utility.yul\":7447:7456   */\n  0x00\n    /* \"#utility.yul\":7480:7533   */\n  tag_130\n    /* \"#utility.yul\":7498:7532   */\n  tag_131\n    /* \"#utility.yul\":7507:7531   */\n  tag_132\n    /* \"#utility.yul\":7525:7530   */\n  dup5\n    /* \"#utility.yul\":7507:7531   */\n  tag_32\n  jump\t// in\ntag_132:\n    /* \"#utility.yul\":7498:7532   */\n  tag_47\n  jump\t// in\ntag_131:\n    /* \"#utility.yul\":7480:7533   */\n  tag_32\n  jump\t// in\ntag_130:\n    /* \"#utility.yul\":7467:7533   */\n  swap1\n  pop\n    /* \"#utility.yul\":7397:7539   */\n  swap2\n  swap1\n  pop\n  jump\t// out\n    /* \"#utility.yul\":7545:7620   */\ntag_49:\n    /* \"#utility.yul\":7588:7591   */\n  0x00\n    /* \"#utility.yul\":7609:7614   */\n  dup2\n    /* \"#utility.yul\":7602:7614   */\n  swap1\n  pop\n    /* \"#utility.yul\":7545:7620   */\n  swap2\n  swap1\n  pop\n  jump\t// out\n    /* \"#utility.yul\":7626:7895   */\ntag_50:\n    /* \"#utility.yul\":7736:7775   */\n  tag_135\n    /* \"#utility.yul\":7767:7774   */\n  dup4\n    /* \"#utility.yul\":7736:7775   */\n  tag_48\n  jump\t// in\ntag_135:\n    /* \"#utility.yul\":7797:7888   */\n  tag_136\n    /* \"#utility.yul\":7846:7887   */\n  tag_137\n    /* \"#utility.yul\":7870:7886   */\n  dup3\n    /* \"#utility.yul\":7846:7887   */\n  tag_49\n  jump\t// in\ntag_137:\n    /* \"#utility.yul\":7838:7844   */\n  dup5\n    /* \"#utility.yul\":7831:7835   */\n  dup5\n    /* \"#utility.yul\":7825:7836   */\n  sload\n    /* \"#utility.yul\":7797:7888   */\n  tag_46\n  jump\t// in\ntag_136:\n    /* \"#utility.yul\":7791:7795   */\n  dup3\n    /* \"#utility.yul\":7784:7889   */\n  sstore\n    /* \"#utility.yul\":7702:7895   */\n  pop\n    /* \"#utility.yul\":7626:7895   */\n  pop\n  pop\n  pop\n  jump\t// out\n    /* \"#utility.yul\":7901:7974   */\ntag_51:\n    /* \"#utility.yul\":7946:7949   */\n  0x00\n    /* \"#utility.yul\":7901:7974   */\n  swap1\n  jump\t// out\n    /* \"#utility.yul\":7980:8169   */\ntag_52:\n    /* \"#utility.yul\":8057:8089   */\n  tag_140\n  tag_51\n  jump\t// in\ntag_140:\n    /* \"#utility.yul\":8098:8163   */\n  tag_141\n    /* \"#utility.yul\":8156:8162   */\n  dup2\n    /* \"#utility.yul\":8148:8154   */\n  dup5\n    /* \"#utility.yul\":8142:8146   */\n  dup5\n    /* \"#utility.yul\":8098:8163   */\n  tag_50\n  jump\t// in\ntag_141:\n    /* \"#utility.yul\":8033:8169   */\n  pop\n    /* \"#utility.yul\":7980:8169   */\n  pop\n  pop\n  jump\t// out\n    /* \"#utility.yul\":8175:8361   */\ntag_53:\n    /* \"#utility.yul\":8235:8355   */\ntag_143:\n    /* \"#utility.yul\":8252:8255   */\n  dup2\n    /* \"#utility.yul\":8245:8250   */\n  dup2\n    /* \"#utility.yul\":8242:8256   */\n  lt\n    /* \"#utility.yul\":8235:8355   */\n  iszero\n  tag_145\n  jumpi\n    /* \"#utility.yul\":8306:8345   */\n  tag_146\n    /* \"#utility.yul\":8343:8344   */\n  0x00\n    /* \"#utility.yul\":8336:8341   */\n  dup3\n    /* \"#utility.yul\":8306:8345   */\n  tag_52\n  jump\t// in\ntag_146:\n    /* \"#utility.yul\":8279:8280   */\n  0x01\n    /* \"#utility.yul\":8272:8277   */\n  dup2\n    /* \"#utility.yul\":8268:8281   */\n  add\n    /* \"#utility.yul\":8259:8281   */\n  swap1\n  pop\n    /* \"#utility.yul\":8235:8355   */\n  jump(tag_143)\ntag_145:\n    /* \"#utility.yul\":8175:8361   */\n  pop\n  pop\n  jump\t// out\n    /* \"#utility.yul\":8367:8910   */\ntag_54:\n    /* \"#utility.yul\":8468:8470   */\n  0x1f\n    /* \"#utility.yul\":8463:8466   */\n  dup3\n    /* \"#utility.yul\":8460:8471   */\n  gt\n    /* \"#utility.yul\":8457:8903   */\n  iszero\n  tag_148\n  jumpi\n    /* \"#utility.yul\":8502:8540   */\n  tag_149\n    /* \"#utility.yul\":8534:8539   */\n  dup2\n    /* \"#utility.yul\":8502:8540   */\n  tag_43\n  jump\t// in\ntag_149:\n    /* \"#utility.yul\":8586:8615   */\n  tag_150\n    /* \"#utility.yul\":8604:8614   */\n  dup5\n    /* \"#utility.yul\":8586:8615   */\n  tag_44\n  jump\t// in\ntag_150:\n    /* \"#utility.yul\":8576:8584   */\n  dup2\n    /* \"#utility.yul\":8572:8616   */\n  add\n    /* \"#utility.yul\":8769:8771   */\n  0x20\n    /* \"#utility.yul\":8757:8767   */\n  dup6\n    /* \"#utility.yul\":8754:8772   */\n  lt\n    /* \"#utility.yul\":8751:8800   */\n  iszero\n  tag_151\n  jumpi\n    /* \"#utility.yul\":8790:8798   */\n  dup2\n    /* \"#utility.yul\":8775:8798   */\n  swap1\n  pop\n    /* \"#utility.yul\":8751:8800   */\ntag_151:\n    /* \"#utility.yul\":8813:8893   */\n  tag_152\n    /* \"#utility.yul\":8869:8891   */\n  tag_153\n    /* \"#utility.yul\":8887:8890   */\n  dup6\n    /* \"#utility.yul\":8869:8891   */\n  tag_44\n  jump\t// in\ntag_153:\n    /* \"#utility.yul\":8859:8867   */\n  dup4\n    /* \"#utility.yul\":8855:8892   */\n  add\n    /* \"#utility.yul\":8842:8853   */\n  dup3\n    /* \"#utility.yul\":8813:8893   */\n  tag_53\n  jump\t// in\ntag_152:\n    /* \"#utility.yul\":8472:8903   */\n  pop\n  pop\n    /* \"#utility.yul\":8457:8903   */\ntag_148:\n    /* \"#utility.yul\":8367:8910   */\n  pop\n  pop\n  pop\n  jump\t// out\n    /* \"#utility.yul\":8916:9033   */\ntag_55:\n    /* \"#utility.yul\":8970:8978   */\n  0x00\n    /* \"#utility.yul\":9020:9025   */\n  dup3\n    /* \"#utility.yul\":9014:9018   */\n  dup3\n    /* \"#utility.yul\":9010:9026   */\n  shr\n    /* \"#utility.yul\":8989:9026   */\n  swap1\n  pop\n    /* \"#utility.yul\":8916:9033   */\n  swap3\n  swap2\n  pop\n  pop\n  jump\t// out\n    /* \"#utility.yul\":9039:9208   */\ntag_56:\n    /* \"#utility.yul\":9083:9089   */\n  0x00\n    /* \"#utility.yul\":9116:9167   */\n  tag_156\n    /* \"#utility.yul\":9164:9165   */\n  0x00\n    /* \"#utility.yul\":9160:9166   */\n  not\n    /* \"#utility.yul\":9152:9157   */\n  dup5\n    /* \"#utility.yul\":9149:9150   */\n  0x08\n    /* \"#utility.yul\":9145:9158   */\n  mul\n    /* \"#utility.yul\":9116:9167   */\n  tag_55\n  jump\t// in\ntag_156:\n    /* \"#utility.yul\":9112:9168   */\n  not\n    /* \"#utility.yul\":9197:9201   */\n  dup1\n    /* \"#utility.yul\":9191:9195   */\n  dup4\n    /* \"#utility.yul\":9187:9202   */\n  and\n    /* \"#utility.yul\":9177:9202   */\n  swap2\n  pop\n    /* \"#utility.yul\":9090:9208   */\n  pop\n    /* \"#utility.yul\":9039:9208   */\n  swap3\n  swap2\n  pop\n  pop\n  jump\t// out\n    /* \"#utility.yul\":9213:9508   */\ntag_57:\n    /* \"#utility.yul\":9289:9293   */\n  0x00\n    /* \"#utility.yul\":9435:9464   */\n  tag_158\n    /* \"#utility.yul\":9460:9463   */\n  dup4\n    /* \"#utility.yul\":9454:9458   */\n  dup4\n    /* \"#utility.yul\":9435:9464   */\n  tag_56\n  jump\t// in\ntag_158:\n    /* \"#utility.yul\":9427:9464   */\n  swap2\n  pop\n    /* \"#utility.yul\":9497:9500   */\n  dup3\n    /* \"#utility.yul\":9494:9495   */\n  0x02\n    /* \"#utility.yul\":9490:9501   */\n  mul\n    /* \"#utility.yul\":9484:9488   */\n  dup3\n    /* \"#utility.yul\":9481:9502   */\n  or\n    /* \"#utility.yul\":9473:9502   */\n  swap1\n  pop\n    /* \"#utility.yul\":9213:9508   */\n  swap3\n  swap2\n  pop\n  pop\n  jump\t// out\n    /* \"#utility.yul\":9513:10908   */\ntag_13:\n    /* \"#utility.yul\":9630:9667   */\n  tag_160\n    /* \"#utility.yul\":9663:9666   */\n  dup3\n    /* \"#utility.yul\":9630:9667   */\n  tag_40\n  jump\t// in\ntag_160:\n    /* \"#utility.yul\":9732:9750   */\n  0xffffffffffffffff\n    /* \"#utility.yul\":9724:9730   */\n  dup2\n    /* \"#utility.yul\":9721:9751   */\n  gt\n    /* \"#utility.yul\":9718:9774   */\n  iszero\n  tag_161\n  jumpi\n    /* \"#utility.yul\":9754:9772   */\n  tag_162\n  tag_25\n  jump\t// in\ntag_162:\n    /* \"#utility.yul\":9718:9774   */\ntag_161:\n    /* \"#utility.yul\":9798:9836   */\n  tag_163\n    /* \"#utility.yul\":9830:9834   */\n  dup3\n    /* \"#utility.yul\":9824:9835   */\n  sload\n    /* \"#utility.yul\":9798:9836   */\n  tag_42\n  jump\t// in\ntag_163:\n    /* \"#utility.yul\":9883:9950   */\n  tag_164\n    /* \"#utility.yul\":9943:9949   */\n  dup3\n    /* \"#utility.yul\":9935:9941   */\n  dup3\n    /* \"#utility.yul\":9929:9933   */\n  dup6\n    /* \"#utility.yul\":9883:9950   */\n  tag_54\n  jump\t// in\ntag_164:\n    /* \"#utility.yul\":9977:9978   */\n  0x00\n    /* \"#utility.yul\":10001:10005   */\n  0x20\n    /* \"#utility.yul\":9988:10005   */\n  swap1\n  pop\n    /* \"#utility.yul\":10033:10035   */\n  0x1f\n    /* \"#utility.yul\":10025:10031   */\n  dup4\n    /* \"#utility.yul\":10022:10036   */\n  gt\n    /* \"#utility.yul\":10050:10051   */\n  0x01\n    /* \"#utility.yul\":10045:10663   */\n  dup2\n  eq\n  tag_166\n  jumpi\n    /* \"#utility.yul\":10707:10708   */\n  0x00\n    /* \"#utility.yul\":10724:10730   */\n  dup5\n    /* \"#utility.yul\":10721:10798   */\n  iszero\n  tag_167\n  jumpi\n    /* \"#utility.yul\":10773:10782   */\n  dup3\n    /* \"#utility.yul\":10768:10771   */\n  dup8\n    /* \"#utility.yul\":10764:10783   */\n  add\n    /* \"#utility.yul\":10758:10784   */\n  mload\n    /* \"#utility.yul\":10749:10784   */\n  swap1\n  pop\n    /* \"#utility.yul\":10721:10798   */\ntag_167:\n    /* \"#utility.yul\":10824:10891   */\n  tag_168\n    /* \"#utility.yul\":10884:10890   */\n  dup6\n    /* \"#utility.yul\":10877:10882   */\n  dup3\n    /* \"#utility.yul\":10824:10891   */\n  tag_57\n  jump\t// in\ntag_168:\n    /* \"#utility.yul\":10818:10822   */\n  dup7\n    /* \"#utility.yul\":10811:10892   */\n  sstore\n    /* \"#utility.yul\":10680:10902   */\n  pop\n    /* \"#utility.yul\":10015:10902   */\n  jump(tag_165)\n    /* \"#utility.yul\":10045:10663   */\ntag_166:\n    /* \"#utility.yul\":10097:10101   */\n  0x1f\n    /* \"#utility.yul\":10093:10102   */\n  not\n    /* \"#utility.yul\":10085:10091   */\n  dup5\n    /* \"#utility.yul\":10081:10103   */\n  and\n    /* \"#utility.yul\":10131:10168   */\n  tag_169\n    /* \"#utility.yul\":10163:10167   */\n  dup7\n    /* \"#utility.yul\":10131:10168   */\n  tag_43\n  jump\t// in\ntag_169:\n    /* \"#utility.yul\":10190:10191   */\n  0x00\n    /* \"#utility.yul\":10204:10412   */\ntag_170:\n    /* \"#utility.yul\":10218:10225   */\n  dup3\n    /* \"#utility.yul\":10215:10216   */\n  dup2\n    /* \"#utility.yul\":10212:10226   */\n  lt\n    /* \"#utility.yul\":10204:10412   */\n  iszero\n  tag_172\n  jumpi\n    /* \"#utility.yul\":10297:10306   */\n  dup5\n    /* \"#utility.yul\":10292:10295   */\n  dup10\n    /* \"#utility.yul\":10288:10307   */\n  add\n    /* \"#utility.yul\":10282:10308   */\n  mload\n    /* \"#utility.yul\":10274:10280   */\n  dup3\n    /* \"#utility.yul\":10267:10309   */\n  sstore\n    /* \"#utility.yul\":10348:10349   */\n  0x01\n    /* \"#utility.yul\":10340:10346   */\n  dup3\n    /* \"#utility.yul\":10336:10350   */\n  add\n    /* \"#utility.yul\":10326:10350   */\n  swap2\n  pop\n    /* \"#utility.yul\":10395:10397   */\n  0x20\n    /* \"#utility.yul\":10384:10393   */\n  dup6\n    /* \"#utility.yul\":10380:10398   */\n  add\n    /* \"#utility.yul\":10367:10398   */\n  swap5\n  pop\n    /* \"#utility.yul\":10241:10245   */\n  0x20\n    /* \"#utility.yul\":10238:10239   */\n  dup2\n    /* \"#utility.yul\":10234:10246   */\n  add\n    /* \"#utility.yul\":10229:10246   */\n  swap1\n  pop\n    /* \"#utility.yul\":10204:10412   */\n  jump(tag_170)\ntag_172:\n    /* \"#utility.yul\":10440:10446   */\n  dup7\n    /* \"#utility.yul\":10431:10438   */\n  dup4\n    /* \"#utility.yul\":10428:10447   */\n  lt\n    /* \"#utility.yul\":10425:10604   */\n  iszero\n  tag_173\n  jumpi\n    /* \"#utility.yul\":10498:10507   */\n  dup5\n    /* \"#utility.yul\":10493:10496   */\n  dup10\n    /* \"#utility.yul\":10489:10508   */\n  add\n    /* \"#utility.yul\":10483:10509   */\n  mload\n    /* \"#utility.yul\":10541:10589   */\n  tag_174\n    /* \"#utility.yul\":10583:10587   */\n  0x1f\n    /* \"#utility.yul\":10575:10581   */\n  dup10\n    /* \"#utility.yul\":10571:10588   */\n  and\n    /* \"#utility.yul\":10560:10569   */\n  dup3\n    /* \"#utility.yul\":10541:10589   */\n  tag_56\n  jump\t// in\ntag_174:\n    /* \"#utility.yul\":10533:10539   */\n  dup4\n    /* \"#utility.yul\":10526:10590   */\n  sstore\n    /* \"#utility.yul\":10448:10604   */\n  pop\n    /* \"#utility.yul\":10425:10604   */\ntag_173:\n    /* \"#utility.yul\":10650:10651   */\n  0x01\n    /* \"#utility.yul\":10646:10647   */\n  0x02\n    /* \"#utility.yul\":10638:10644   */\n  dup9\n    /* \"#utility.yul\":10634:10648   */\n  mul\n    /* \"#utility.yul\":10630:10652   */\n  add\n    /* \"#utility.yul\":10624:10628   */\n  dup9\n    /* \"#utility.yul\":10617:10653   */\n  sstore\n    /* \"#utility.yul\":10052:10663   */\n  pop\n  pop\n  pop\n    /* \"#utility.yul\":10015:10902   */\ntag_165:\n  pop\n    /* \"#utility.yul\":9605:10908   */\n  pop\n  pop\n  pop\n    /* \"#utility.yul\":9513:10908   */\n  pop\n  pop\n  jump\t// out\n    /* \"#utility.yul\":10914:11094   */\ntag_58:\n    /* \"#utility.yul\":10962:11039   */\n  0x4e487b7100000000000000000000000000000000000000000000000000000000\n    /* \"#utility.yul\":10959:10960   */\n  0x00\n    /* \"#utility.yul\":10952:11040   */\n  mstore\n    /* \"#utility.yul\":11059:11063   */\n  0x11\n    /* \"#utility.yul\":11056:11057   */\n  0x04\n    /* \"#utility.yul\":11049:11064   */\n  mstore\n    /* \"#utility.yul\":11083:11087   */\n  0x24\n    /* \"#utility.yul\":11080:11081   */\n  0x00\n    /* \"#utility.yul\":11073:11088   */\n  revert\n    /* \"#utility.yul\":11100:11510   */\ntag_15:\n    /* \"#utility.yul\":11140:11147   */\n  0x00\n    /* \"#utility.yul\":11163:11183   */\n  tag_177\n    /* \"#utility.yul\":11181:11182   */\n  dup3\n    /* \"#utility.yul\":11163:11183   */\n  tag_32\n  jump\t// in\ntag_177:\n    /* \"#utility.yul\":11158:11183   */\n  swap2\n  pop\n    /* \"#utility.yul\":11197:11217   */\n  tag_178\n    /* \"#utility.yul\":11215:11216   */\n  dup4\n    /* \"#utility.yul\":11197:11217   */\n  tag_32\n  jump\t// in\ntag_178:\n    /* \"#utility.yul\":11192:11217   */\n  swap3\n  pop\n    /* \"#utility.yul\":11252:11253   */\n  dup3\n    /* \"#utility.yul\":11249:11250   */\n  dup3\n    /* \"#utility.yul\":11245:11254   */\n  mul\n    /* \"#utility.yul\":11274:11304   */\n  tag_179\n    /* \"#utility.yul\":11292:11303   */\n  dup2\n    /* \"#utility.yul\":11274:11304   */\n  tag_32\n  jump\t// in\ntag_179:\n    /* \"#utility.yul\":11263:11304   */\n  swap2\n  pop\n    /* \"#utility.yul\":11453:11454   */\n  dup3\n    /* \"#utility.yul\":11444:11451   */\n  dup3\n    /* \"#utility.yul\":11440:11455   */\n  div\n    /* \"#utility.yul\":11437:11438   */\n  dup5\n    /* \"#utility.yul\":11434:11456   */\n  eq\n    /* \"#utility.yul\":11414:11415   */\n  dup4\n    /* \"#utility.yul\":11407:11416   */\n  iszero\n    /* \"#utility.yul\":11387:11470   */\n  or\n    /* \"#utility.yul\":11364:11503   */\n  tag_180\n  jumpi\n    /* \"#utility.yul\":11483:11501   */\n  tag_181\n  tag_58\n  jump\t// in\ntag_181:\n    /* \"#utility.yul\":11364:11503   */\ntag_180:\n    /* \"#utility.yul\":11148:11510   */\n  pop\n    /* \"#utility.yul\":11100:11510   */\n  swap3\n  swap2\n  pop\n  pop\n  jump\t// out\n    /* \"#utility.yul\":11516:11707   */\ntag_17:\n    /* \"#utility.yul\":11556:11559   */\n  0x00\n    /* \"#utility.yul\":11575:11595   */\n  tag_183\n    /* \"#utility.yul\":11593:11594   */\n  dup3\n    /* \"#utility.yul\":11575:11595   */\n  tag_32\n  jump\t// in\ntag_183:\n    /* \"#utility.yul\":11570:11595   */\n  swap2\n  pop\n    /* \"#utility.yul\":11609:11629   */\n  tag_184\n    /* \"#utility.yul\":11627:11628   */\n  dup4\n    /* \"#utility.yul\":11609:11629   */\n  tag_32\n  jump\t// in\ntag_184:\n    /* \"#utility.yul\":11604:11629   */\n  swap3\n  pop\n    /* \"#utility.yul\":11652:11653   */\n  dup3\n    /* \"#utility.yul\":11649:11650   */\n  dup3\n    /* \"#utility.yul\":11645:11654   */\n  add\n    /* \"#utility.yul\":11638:11654   */\n  swap1\n  pop\n    /* \"#utility.yul\":11673:11676   */\n  dup1\n    /* \"#utility.yul\":11670:11671   */\n  dup3\n    /* \"#utility.yul\":11667:11677   */\n  gt\n    /* \"#utility.yul\":11664:11700   */\n  iszero\n  tag_185\n  jumpi\n    /* \"#utility.yul\":11680:11698   */\n  tag_186\n  tag_58\n  jump\t// in\ntag_186:\n    /* \"#utility.yul\":11664:11700   */\ntag_185:\n    /* \"#utility.yul\":11516:11707   */\n  swap3\n  swap2\n  pop\n  pop\n  jump\t// out\n    /* \"contracts/crowdfunding.sol\":59:2248  contract Campaign {... */\ntag_18:\n  dataSize(sub_0)\n  dup1\n  dataOffset(sub_0)\n  0x00\n  codecopy\n  0x00\n  return\nstop\n\nsub_0: assembly {\n        /* \"contracts/crowdfunding.sol\":59:2248  contract Campaign {... */\n      mstore(0x40, 0x80)\n      jumpi(tag_1, lt(calldatasize, 0x04))\n      shr(0xe0, calldataload(0x00))\n      dup1\n      0x4a79d50c\n      gt\n      tag_11\n      jumpi\n      dup1\n      0x4a79d50c\n      eq\n      tag_6\n      jumpi\n      dup1\n      0xac307773\n      eq\n      tag_7\n      jumpi\n      dup1\n      0xb2d5ae44\n      eq\n      tag_8\n      jumpi\n      dup1\n      0xc5c4744c\n      eq\n      tag_9\n      jumpi\n      dup1\n      0xd7bb99ba\n      eq\n      tag_10\n      jumpi\n      jump(tag_1)\n    tag_11:\n      dup1\n      0x02d05d3f\n      eq\n      tag_2\n      jumpi\n      dup1\n      0x29dcb0cf\n      eq\n      tag_3\n      jumpi\n      dup1\n      0x40193883\n      eq\n      tag_4\n      jumpi\n      dup1\n      0x42e94c90\n      eq\n      tag_5\n      jumpi\n    tag_1:\n      0x00\n      dup1\n      revert\n        /* \"contracts/crowdfunding.sol\":83:113  address payable public creator */\n    tag_2:\n      callvalue\n      dup1\n      iszero\n      tag_12\n      jumpi\n      0x00\n      dup1\n      revert\n    tag_12:\n      pop\n      tag_13\n      tag_14\n      jump\t// in\n    tag_13:\n      mload(0x40)\n      tag_15\n      swap2\n      swap1\n      tag_16\n      jump\t// in\n    tag_15:\n      mload(0x40)\n      dup1\n      swap2\n      sub\n      swap1\n      return\n        /* \"contracts/crowdfunding.sol\":169:192  uint256 public deadline */\n    tag_3:\n      callvalue\n      dup1\n      iszero\n      tag_17\n      jumpi\n      0x00\n      dup1\n      revert\n    tag_17:\n      pop\n      tag_18\n      tag_19\n      jump\t// in\n    tag_18:\n      mload(0x40)\n      tag_20\n      swap2\n      swap1\n      tag_21\n      jump\t// in\n    tag_20:\n      mload(0x40)\n      dup1\n      swap2\n      sub\n      swap1\n      return\n        /* \"contracts/crowdfunding.sol\":144:163  uint256 public goal */\n    tag_4:\n      callvalue\n      dup1\n      iszero\n      tag_22\n      jumpi\n      0x00\n      dup1\n      revert\n    tag_22:\n      pop\n      tag_23\n      tag_24\n      jump\t// in\n    tag_23:\n      mload(0x40)\n      tag_25\n      swap2\n      swap1\n      tag_21\n      jump\t// in\n    tag_25:\n      mload(0x40)\n      dup1\n      swap2\n      sub\n      swap1\n      return\n        /* \"contracts/crowdfunding.sol\":321:369  mapping(address => uint256) public contributions */\n    tag_5:\n      callvalue\n      dup1\n      iszero\n      tag_26\n      jumpi\n      0x00\n      dup1\n      revert\n    tag_26:\n      pop\n      tag_27\n      0x04\n      dup1\n      calldatasize\n      sub\n      dup2\n      add\n      swap1\n      tag_28\n      swap2\n      swap1\n      tag_29\n      jump\t// in\n    tag_28:\n      tag_30\n      jump\t// in\n    tag_27:\n      mload(0x40)\n      tag_31\n      swap2\n      swap1\n      tag_21\n      jump\t// in\n    tag_31:\n      mload(0x40)\n      dup1\n      swap2\n      sub\n      swap1\n      return\n        /* \"contracts/crowdfunding.sol\":119:138  string public title */\n    tag_6:\n      callvalue\n      dup1\n      iszero\n      tag_32\n      jumpi\n      0x00\n      dup1\n      revert\n    tag_32:\n      pop\n      tag_33\n      tag_34\n      jump\t// in\n    tag_33:\n      mload(0x40)\n      tag_35\n      swap2\n      swap1\n      tag_36\n      jump\t// in\n    tag_35:\n      mload(0x40)\n      dup1\n      swap2\n      sub\n      swap1\n      return\n        /* \"contracts/crowdfunding.sol\":1635:1963  function claimFunds() public onlyCreator goalReached isCampaignInactive {... */\n    tag_7:\n      callvalue\n      dup1\n      iszero\n      tag_37\n      jumpi\n      0x00\n      dup1\n      revert\n    tag_37:\n      pop\n      tag_38\n      tag_39\n      jump\t// in\n    tag_38:\n      stop\n        /* \"contracts/crowdfunding.sol\":1969:2245  function getRefund() public isCampaignInactive hasContribution {... */\n    tag_8:\n      callvalue\n      dup1\n      iszero\n      tag_40\n      jumpi\n      0x00\n      dup1\n      revert\n    tag_40:\n      pop\n      tag_41\n      tag_42\n      jump\t// in\n    tag_41:\n      stop\n        /* \"contracts/crowdfunding.sol\":239:265  uint256 public totalRaised */\n    tag_9:\n      callvalue\n      dup1\n      iszero\n      tag_43\n      jumpi\n      0x00\n      dup1\n      revert\n    tag_43:\n      pop\n      tag_44\n      tag_45\n      jump\t// in\n    tag_44:\n      mload(0x40)\n      tag_46\n      swap2\n      swap1\n      tag_21\n      jump\t// in\n    tag_46:\n      mload(0x40)\n      dup1\n      swap2\n      sub\n      swap1\n      return\n        /* \"contracts/crowdfunding.sol\":1428:1629  function contribute() public payable isCampaignActive {... */\n    tag_10:\n      tag_47\n      tag_48\n      jump\t// in\n    tag_47:\n      stop\n        /* \"contracts/crowdfunding.sol\":83:113  address payable public creator */\n    tag_14:\n      0x00\n      dup1\n      sload\n      swap1\n      0x0100\n      exp\n      swap1\n      div\n      0xffffffffffffffffffffffffffffffffffffffff\n      and\n      dup2\n      jump\t// out\n        /* \"contracts/crowdfunding.sol\":169:192  uint256 public deadline */\n    tag_19:\n      sload(0x03)\n      dup2\n      jump\t// out\n        /* \"contracts/crowdfunding.sol\":144:163  uint256 public goal */\n    tag_24:\n      sload(0x02)\n      dup2\n      jump\t// out\n        /* \"contracts/crowdfunding.sol\":321:369  mapping(address => uint256) public contributions */\n    tag_30:\n      mstore(0x20, 0x05)\n      dup1\n      0x00\n      mstore\n      keccak256(0x00, 0x40)\n      0x00\n      swap2\n      pop\n      swap1\n      pop\n      sload\n      dup2\n      jump\t// out\n        /* \"contracts/crowdfunding.sol\":119:138  string public title */\n    tag_34:\n      0x01\n      dup1\n      sload\n      tag_49\n      swap1\n      tag_50\n      jump\t// in\n    tag_49:\n      dup1\n      0x1f\n      add\n      0x20\n      dup1\n      swap2\n      div\n      mul\n      0x20\n      add\n      mload(0x40)\n      swap1\n      dup2\n      add\n      0x40\n      mstore\n      dup1\n      swap3\n      swap2\n      swap1\n      dup2\n      dup2\n      mstore\n      0x20\n      add\n      dup3\n      dup1\n      sload\n      tag_51\n      swap1\n      tag_50\n      jump\t// in\n    tag_51:\n      dup1\n      iszero\n      tag_52\n      jumpi\n      dup1\n      0x1f\n      lt\n      tag_53\n      jumpi\n      0x0100\n      dup1\n      dup4\n      sload\n      div\n      mul\n      dup4\n      mstore\n      swap2\n      0x20\n      add\n      swap2\n      jump(tag_52)\n    tag_53:\n      dup3\n      add\n      swap2\n      swap1\n      0x00\n      mstore\n      keccak256(0x00, 0x20)\n      swap1\n    tag_54:\n      dup2\n      sload\n      dup2\n      mstore\n      swap1\n      0x01\n      add\n      swap1\n      0x20\n      add\n      dup1\n      dup4\n      gt\n      tag_54\n      jumpi\n      dup3\n      swap1\n      sub\n      0x1f\n      and\n      dup3\n      add\n      swap2\n    tag_52:\n      pop\n      pop\n      pop\n      pop\n      pop\n      dup2\n      jump\t// out\n        /* \"contracts/crowdfunding.sol\":1635:1963  function claimFunds() public onlyCreator goalReached isCampaignInactive {... */\n    tag_39:\n        /* \"contracts/crowdfunding.sol\":1077:1084  creator */\n      0x00\n      dup1\n      sload\n      swap1\n      0x0100\n      exp\n      swap1\n      div\n      0xffffffffffffffffffffffffffffffffffffffff\n      and\n        /* \"contracts/crowdfunding.sol\":1063:1084  msg.sender == creator */\n      0xffffffffffffffffffffffffffffffffffffffff\n      and\n        /* \"contracts/crowdfunding.sol\":1063:1073  msg.sender */\n      caller\n        /* \"contracts/crowdfunding.sol\":1063:1084  msg.sender == creator */\n      0xffffffffffffffffffffffffffffffffffffffff\n      and\n      eq\n        /* \"contracts/crowdfunding.sol\":1055:1085  require(msg.sender == creator) */\n      tag_56\n      jumpi\n      0x00\n      dup1\n      revert\n    tag_56:\n        /* \"contracts/crowdfunding.sol\":1300:1304  goal */\n      sload(0x02)\n        /* \"contracts/crowdfunding.sol\":1285:1296  totalRaised */\n      sload(0x04)\n        /* \"contracts/crowdfunding.sol\":1285:1304  totalRaised >= goal */\n      lt\n      iszero\n        /* \"contracts/crowdfunding.sol\":1276:1305  require (totalRaised >= goal) */\n      tag_58\n      jumpi\n      0x00\n      dup1\n      revert\n    tag_58:\n        /* \"contracts/crowdfunding.sol\":1233:1241  deadline */\n      sload(0x03)\n        /* \"contracts/crowdfunding.sol\":1215:1230  block.timestamp */\n      timestamp\n        /* \"contracts/crowdfunding.sol\":1215:1241  block.timestamp > deadline */\n      gt\n        /* \"contracts/crowdfunding.sol\":1206:1242  require (block.timestamp > deadline) */\n      tag_60\n      jumpi\n      0x00\n      dup1\n      revert\n    tag_60:\n        /* \"contracts/crowdfunding.sol\":1749:1750  0 */\n      0x00\n        /* \"contracts/crowdfunding.sol\":1725:1746  address(this).balance */\n      selfbalance\n        /* \"contracts/crowdfunding.sol\":1725:1750  address(this).balance > 0 */\n      gt\n        /* \"contracts/crowdfunding.sol\":1717:1772  require(address(this).balance > 0, \"No funds to claim\") */\n      tag_62\n      jumpi\n      mload(0x40)\n      0x08c379a000000000000000000000000000000000000000000000000000000000\n      dup2\n      mstore\n      0x04\n      add\n      tag_63\n      swap1\n      tag_64\n      jump\t// in\n    tag_63:\n      mload(0x40)\n      dup1\n      swap2\n      sub\n      swap1\n      revert\n    tag_62:\n        /* \"contracts/crowdfunding.sol\":1813:1827  uint256 amount */\n      0x00\n        /* \"contracts/crowdfunding.sol\":1830:1851  address(this).balance */\n      selfbalance\n        /* \"contracts/crowdfunding.sol\":1813:1851  uint256 amount = address(this).balance */\n      swap1\n      pop\n        /* \"contracts/crowdfunding.sol\":1862:1874  bool success */\n      0x00\n        /* \"contracts/crowdfunding.sol\":1880:1887  creator */\n      dup1\n      0x00\n      swap1\n      sload\n      swap1\n      0x0100\n      exp\n      swap1\n      div\n      0xffffffffffffffffffffffffffffffffffffffff\n      and\n        /* \"contracts/crowdfunding.sol\":1880:1892  creator.call */\n      0xffffffffffffffffffffffffffffffffffffffff\n      and\n        /* \"contracts/crowdfunding.sol\":1900:1906  amount */\n      dup3\n        /* \"contracts/crowdfunding.sol\":1880:1911  creator.call{value: amount}(\"\") */\n      mload(0x40)\n      tag_65\n      swap1\n      tag_66\n      jump\t// in\n    tag_65:\n      0x00\n      mload(0x40)\n      dup1\n      dup4\n      sub\n      dup2\n      dup6\n      dup8\n      gas\n      call\n      swap3\n      pop\n      pop\n      pop\n      returndatasize\n      dup1\n      0x00\n      dup2\n      eq\n      tag_69\n      jumpi\n      mload(0x40)\n      swap2\n      pop\n      and(add(returndatasize, 0x3f), not(0x1f))\n      dup3\n      add\n      0x40\n      mstore\n      returndatasize\n      dup3\n      mstore\n      returndatasize\n      0x00\n      0x20\n      dup5\n      add\n      returndatacopy\n      jump(tag_68)\n    tag_69:\n      0x60\n      swap2\n      pop\n    tag_68:\n      pop\n        /* \"contracts/crowdfunding.sol\":1861:1911  (bool success, ) = creator.call{value: amount}(\"\") */\n      pop\n      swap1\n      pop\n        /* \"contracts/crowdfunding.sol\":1929:1936  success */\n      dup1\n        /* \"contracts/crowdfunding.sol\":1921:1956  require(success, \"Transfer failed\") */\n      tag_70\n      jumpi\n      mload(0x40)\n      0x08c379a000000000000000000000000000000000000000000000000000000000\n      dup2\n      mstore\n      0x04\n      add\n      tag_71\n      swap1\n      tag_72\n      jump\t// in\n    tag_71:\n      mload(0x40)\n      dup1\n      swap2\n      sub\n      swap1\n      revert\n    tag_70:\n        /* \"contracts/crowdfunding.sol\":1707:1963  {... */\n      pop\n      pop\n        /* \"contracts/crowdfunding.sol\":1635:1963  function claimFunds() public onlyCreator goalReached isCampaignInactive {... */\n      jump\t// out\n        /* \"contracts/crowdfunding.sol\":1969:2245  function getRefund() public isCampaignInactive hasContribution {... */\n    tag_42:\n        /* \"contracts/crowdfunding.sol\":1233:1241  deadline */\n      sload(0x03)\n        /* \"contracts/crowdfunding.sol\":1215:1230  block.timestamp */\n      timestamp\n        /* \"contracts/crowdfunding.sol\":1215:1241  block.timestamp > deadline */\n      gt\n        /* \"contracts/crowdfunding.sol\":1206:1242  require (block.timestamp > deadline) */\n      tag_74\n      jumpi\n      0x00\n      dup1\n      revert\n    tag_74:\n        /* \"contracts/crowdfunding.sol\":1384:1385  0 */\n      0x00\n        /* \"contracts/crowdfunding.sol\":1356:1369  contributions */\n      0x05\n        /* \"contracts/crowdfunding.sol\":1356:1381  contributions[msg.sender] */\n      0x00\n        /* \"contracts/crowdfunding.sol\":1370:1380  msg.sender */\n      caller\n        /* \"contracts/crowdfunding.sol\":1356:1381  contributions[msg.sender] */\n      0xffffffffffffffffffffffffffffffffffffffff\n      and\n      0xffffffffffffffffffffffffffffffffffffffff\n      and\n      dup2\n      mstore\n      0x20\n      add\n      swap1\n      dup2\n      mstore\n      0x20\n      add\n      0x00\n      keccak256\n      sload\n        /* \"contracts/crowdfunding.sol\":1356:1385  contributions[msg.sender] > 0 */\n      gt\n        /* \"contracts/crowdfunding.sol\":1348:1411  require(contributions[msg.sender] > 0, \"No contribution found\") */\n      tag_76\n      jumpi\n      mload(0x40)\n      0x08c379a000000000000000000000000000000000000000000000000000000000\n      dup2\n      mstore\n      0x04\n      add\n      tag_77\n      swap1\n      tag_78\n      jump\t// in\n    tag_77:\n      mload(0x40)\n      dup1\n      swap2\n      sub\n      swap1\n      revert\n    tag_76:\n        /* \"contracts/crowdfunding.sol\":2042:2056  uint256 amount */\n      0x00\n        /* \"contracts/crowdfunding.sol\":2059:2072  contributions */\n      0x05\n        /* \"contracts/crowdfunding.sol\":2059:2084  contributions[msg.sender] */\n      0x00\n        /* \"contracts/crowdfunding.sol\":2073:2083  msg.sender */\n      caller\n        /* \"contracts/crowdfunding.sol\":2059:2084  contributions[msg.sender] */\n      0xffffffffffffffffffffffffffffffffffffffff\n      and\n      0xffffffffffffffffffffffffffffffffffffffff\n      and\n      dup2\n      mstore\n      0x20\n      add\n      swap1\n      dup2\n      mstore\n      0x20\n      add\n      0x00\n      keccak256\n      sload\n        /* \"contracts/crowdfunding.sol\":2042:2084  uint256 amount = contributions[msg.sender] */\n      swap1\n      pop\n        /* \"contracts/crowdfunding.sol\":2122:2123  0 */\n      0x00\n        /* \"contracts/crowdfunding.sol\":2094:2107  contributions */\n      0x05\n        /* \"contracts/crowdfunding.sol\":2094:2119  contributions[msg.sender] */\n      0x00\n        /* \"contracts/crowdfunding.sol\":2108:2118  msg.sender */\n      caller\n        /* \"contracts/crowdfunding.sol\":2094:2119  contributions[msg.sender] */\n      0xffffffffffffffffffffffffffffffffffffffff\n      and\n      0xffffffffffffffffffffffffffffffffffffffff\n      and\n      dup2\n      mstore\n      0x20\n      add\n      swap1\n      dup2\n      mstore\n      0x20\n      add\n      0x00\n      keccak256\n        /* \"contracts/crowdfunding.sol\":2094:2123  contributions[msg.sender] = 0 */\n      dup2\n      swap1\n      sstore\n      pop\n        /* \"contracts/crowdfunding.sol\":2134:2146  bool success */\n      0x00\n        /* \"contracts/crowdfunding.sol\":2160:2170  msg.sender */\n      caller\n        /* \"contracts/crowdfunding.sol\":2152:2176  payable(msg.sender).call */\n      0xffffffffffffffffffffffffffffffffffffffff\n      and\n        /* \"contracts/crowdfunding.sol\":2184:2190  amount */\n      dup3\n        /* \"contracts/crowdfunding.sol\":2152:2195  payable(msg.sender).call{value: amount}(\"\") */\n      mload(0x40)\n      tag_80\n      swap1\n      tag_66\n      jump\t// in\n    tag_80:\n      0x00\n      mload(0x40)\n      dup1\n      dup4\n      sub\n      dup2\n      dup6\n      dup8\n      gas\n      call\n      swap3\n      pop\n      pop\n      pop\n      returndatasize\n      dup1\n      0x00\n      dup2\n      eq\n      tag_83\n      jumpi\n      mload(0x40)\n      swap2\n      pop\n      and(add(returndatasize, 0x3f), not(0x1f))\n      dup3\n      add\n      0x40\n      mstore\n      returndatasize\n      dup3\n      mstore\n      returndatasize\n      0x00\n      0x20\n      dup5\n      add\n      returndatacopy\n      jump(tag_82)\n    tag_83:\n      0x60\n      swap2\n      pop\n    tag_82:\n      pop\n        /* \"contracts/crowdfunding.sol\":2133:2195  (bool success, ) = payable(msg.sender).call{value: amount}(\"\") */\n      pop\n      swap1\n      pop\n        /* \"contracts/crowdfunding.sol\":2213:2220  success */\n      dup1\n        /* \"contracts/crowdfunding.sol\":2205:2238  require(success, \"Refund failed\") */\n      tag_84\n      jumpi\n      mload(0x40)\n      0x08c379a000000000000000000000000000000000000000000000000000000000\n      dup2\n      mstore\n      0x04\n      add\n      tag_85\n      swap1\n      tag_86\n      jump\t// in\n    tag_85:\n      mload(0x40)\n      dup1\n      swap2\n      sub\n      swap1\n      revert\n    tag_84:\n        /* \"contracts/crowdfunding.sol\":2032:2245  {... */\n      pop\n      pop\n        /* \"contracts/crowdfunding.sol\":1969:2245  function getRefund() public isCampaignInactive hasContribution {... */\n      jump\t// out\n        /* \"contracts/crowdfunding.sol\":239:265  uint256 public totalRaised */\n    tag_45:\n      sload(0x04)\n      dup2\n      jump\t// out\n        /* \"contracts/crowdfunding.sol\":1428:1629  function contribute() public payable isCampaignActive {... */\n    tag_48:\n        /* \"contracts/crowdfunding.sol\":1152:1160  deadline */\n      sload(0x03)\n        /* \"contracts/crowdfunding.sol\":1133:1148  block.timestamp */\n      timestamp\n        /* \"contracts/crowdfunding.sol\":1133:1160  block.timestamp <= deadline */\n      gt\n      iszero\n        /* \"contracts/crowdfunding.sol\":1124:1161  require (block.timestamp <= deadline) */\n      tag_88\n      jumpi\n      0x00\n      dup1\n      revert\n    tag_88:\n        /* \"contracts/crowdfunding.sol\":1521:1530  msg.value */\n      callvalue\n        /* \"contracts/crowdfunding.sol\":1492:1505  contributions */\n      0x05\n        /* \"contracts/crowdfunding.sol\":1492:1517  contributions[msg.sender] */\n      0x00\n        /* \"contracts/crowdfunding.sol\":1506:1516  msg.sender */\n      caller\n        /* \"contracts/crowdfunding.sol\":1492:1517  contributions[msg.sender] */\n      0xffffffffffffffffffffffffffffffffffffffff\n      and\n      0xffffffffffffffffffffffffffffffffffffffff\n      and\n      dup2\n      mstore\n      0x20\n      add\n      swap1\n      dup2\n      mstore\n      0x20\n      add\n      0x00\n      keccak256\n      0x00\n        /* \"contracts/crowdfunding.sol\":1492:1530  contributions[msg.sender] += msg.value */\n      dup3\n      dup3\n      sload\n      tag_90\n      swap2\n      swap1\n      tag_91\n      jump\t// in\n    tag_90:\n      swap3\n      pop\n      pop\n      dup2\n      swap1\n      sstore\n      pop\n        /* \"contracts/crowdfunding.sol\":1555:1564  msg.value */\n      callvalue\n        /* \"contracts/crowdfunding.sol\":1540:1551  totalRaised */\n      0x04\n      0x00\n        /* \"contracts/crowdfunding.sol\":1540:1564  totalRaised += msg.value */\n      dup3\n      dup3\n      sload\n      tag_92\n      swap2\n      swap1\n      tag_91\n      jump\t// in\n    tag_92:\n      swap3\n      pop\n      pop\n      dup2\n      swap1\n      sstore\n      pop\n        /* \"contracts/crowdfunding.sol\":1579:1622  ContributionReceived(msg.sender, msg.value) */\n      0x1bb460ccaaf70fbacfec17a376f8acbd278c1405590ffcc8ebe4b88daf4f64ad\n        /* \"contracts/crowdfunding.sol\":1600:1610  msg.sender */\n      caller\n        /* \"contracts/crowdfunding.sol\":1612:1621  msg.value */\n      callvalue\n        /* \"contracts/crowdfunding.sol\":1579:1622  ContributionReceived(msg.sender, msg.value) */\n      mload(0x40)\n      tag_93\n      swap3\n      swap2\n      swap1\n      tag_94\n      jump\t// in\n    tag_93:\n      mload(0x40)\n      dup1\n      swap2\n      sub\n      swap1\n      log1\n        /* \"contracts/crowdfunding.sol\":1428:1629  function contribute() public payable isCampaignActive {... */\n      jump\t// out\n        /* \"#utility.yul\":7:133   */\n    tag_95:\n        /* \"#utility.yul\":44:51   */\n      0x00\n        /* \"#utility.yul\":84:126   */\n      0xffffffffffffffffffffffffffffffffffffffff\n        /* \"#utility.yul\":77:82   */\n      dup3\n        /* \"#utility.yul\":73:127   */\n      and\n        /* \"#utility.yul\":62:127   */\n      swap1\n      pop\n        /* \"#utility.yul\":7:133   */\n      swap2\n      swap1\n      pop\n      jump\t// out\n        /* \"#utility.yul\":139:243   */\n    tag_96:\n        /* \"#utility.yul\":184:191   */\n      0x00\n        /* \"#utility.yul\":213:237   */\n      tag_128\n        /* \"#utility.yul\":231:236   */\n      dup3\n        /* \"#utility.yul\":213:237   */\n      tag_95\n      jump\t// in\n    tag_128:\n        /* \"#utility.yul\":202:237   */\n      swap1\n      pop\n        /* \"#utility.yul\":139:243   */\n      swap2\n      swap1\n      pop\n      jump\t// out\n        /* \"#utility.yul\":249:391   */\n    tag_97:\n        /* \"#utility.yul\":352:384   */\n      tag_130\n        /* \"#utility.yul\":378:383   */\n      dup2\n        /* \"#utility.yul\":352:384   */\n      tag_96\n      jump\t// in\n    tag_130:\n        /* \"#utility.yul\":347:350   */\n      dup3\n        /* \"#utility.yul\":340:385   */\n      mstore\n        /* \"#utility.yul\":249:391   */\n      pop\n      pop\n      jump\t// out\n        /* \"#utility.yul\":397:651   */\n    tag_16:\n        /* \"#utility.yul\":506:510   */\n      0x00\n        /* \"#utility.yul\":544:546   */\n      0x20\n        /* \"#utility.yul\":533:542   */\n      dup3\n        /* \"#utility.yul\":529:547   */\n      add\n        /* \"#utility.yul\":521:547   */\n      swap1\n      pop\n        /* \"#utility.yul\":557:644   */\n      tag_132\n        /* \"#utility.yul\":641:642   */\n      0x00\n        /* \"#utility.yul\":630:639   */\n      dup4\n        /* \"#utility.yul\":626:643   */\n      add\n        /* \"#utility.yul\":617:623   */\n      dup5\n        /* \"#utility.yul\":557:644   */\n      tag_97\n      jump\t// in\n    tag_132:\n        /* \"#utility.yul\":397:651   */\n      swap3\n      swap2\n      pop\n      pop\n      jump\t// out\n        /* \"#utility.yul\":657:734   */\n    tag_98:\n        /* \"#utility.yul\":694:701   */\n      0x00\n        /* \"#utility.yul\":723:728   */\n      dup2\n        /* \"#utility.yul\":712:728   */\n      swap1\n      pop\n        /* \"#utility.yul\":657:734   */\n      swap2\n      swap1\n      pop\n      jump\t// out\n        /* \"#utility.yul\":740:858   */\n    tag_99:\n        /* \"#utility.yul\":827:851   */\n      tag_135\n        /* \"#utility.yul\":845:850   */\n      dup2\n        /* \"#utility.yul\":827:851   */\n      tag_98\n      jump\t// in\n    tag_135:\n        /* \"#utility.yul\":822:825   */\n      dup3\n        /* \"#utility.yul\":815:852   */\n      mstore\n        /* \"#utility.yul\":740:858   */\n      pop\n      pop\n      jump\t// out\n        /* \"#utility.yul\":864:1086   */\n    tag_21:\n        /* \"#utility.yul\":957:961   */\n      0x00\n        /* \"#utility.yul\":995:997   */\n      0x20\n        /* \"#utility.yul\":984:993   */\n      dup3\n        /* \"#utility.yul\":980:998   */\n      add\n        /* \"#utility.yul\":972:998   */\n      swap1\n      pop\n        /* \"#utility.yul\":1008:1079   */\n      tag_137\n        /* \"#utility.yul\":1076:1077   */\n      0x00\n        /* \"#utility.yul\":1065:1074   */\n      dup4\n        /* \"#utility.yul\":1061:1078   */\n      add\n        /* \"#utility.yul\":1052:1058   */\n      dup5\n        /* \"#utility.yul\":1008:1079   */\n      tag_99\n      jump\t// in\n    tag_137:\n        /* \"#utility.yul\":864:1086   */\n      swap3\n      swap2\n      pop\n      pop\n      jump\t// out\n        /* \"#utility.yul\":1173:1290   */\n    tag_101:\n        /* \"#utility.yul\":1282:1283   */\n      0x00\n        /* \"#utility.yul\":1279:1280   */\n      dup1\n        /* \"#utility.yul\":1272:1284   */\n      revert\n        /* \"#utility.yul\":1419:1515   */\n    tag_103:\n        /* \"#utility.yul\":1456:1463   */\n      0x00\n        /* \"#utility.yul\":1485:1509   */\n      tag_142\n        /* \"#utility.yul\":1503:1508   */\n      dup3\n        /* \"#utility.yul\":1485:1509   */\n      tag_95\n      jump\t// in\n    tag_142:\n        /* \"#utility.yul\":1474:1509   */\n      swap1\n      pop\n        /* \"#utility.yul\":1419:1515   */\n      swap2\n      swap1\n      pop\n      jump\t// out\n        /* \"#utility.yul\":1521:1643   */\n    tag_104:\n        /* \"#utility.yul\":1594:1618   */\n      tag_144\n        /* \"#utility.yul\":1612:1617   */\n      dup2\n        /* \"#utility.yul\":1594:1618   */\n      tag_103\n      jump\t// in\n    tag_144:\n        /* \"#utility.yul\":1587:1592   */\n      dup2\n        /* \"#utility.yul\":1584:1619   */\n      eq\n        /* \"#utility.yul\":1574:1637   */\n      tag_145\n      jumpi\n        /* \"#utility.yul\":1633:1634   */\n      0x00\n        /* \"#utility.yul\":1630:1631   */\n      dup1\n        /* \"#utility.yul\":1623:1635   */\n      revert\n        /* \"#utility.yul\":1574:1637   */\n    tag_145:\n        /* \"#utility.yul\":1521:1643   */\n      pop\n      jump\t// out\n        /* \"#utility.yul\":1649:1788   */\n    tag_105:\n        /* \"#utility.yul\":1695:1700   */\n      0x00\n        /* \"#utility.yul\":1733:1739   */\n      dup2\n        /* \"#utility.yul\":1720:1740   */\n      calldataload\n        /* \"#utility.yul\":1711:1740   */\n      swap1\n      pop\n        /* \"#utility.yul\":1749:1782   */\n      tag_147\n        /* \"#utility.yul\":1776:1781   */\n      dup2\n        /* \"#utility.yul\":1749:1782   */\n      tag_104\n      jump\t// in\n    tag_147:\n        /* \"#utility.yul\":1649:1788   */\n      swap3\n      swap2\n      pop\n      pop\n      jump\t// out\n        /* \"#utility.yul\":1794:2123   */\n    tag_29:\n        /* \"#utility.yul\":1853:1859   */\n      0x00\n        /* \"#utility.yul\":1902:1904   */\n      0x20\n        /* \"#utility.yul\":1890:1899   */\n      dup3\n        /* \"#utility.yul\":1881:1888   */\n      dup5\n        /* \"#utility.yul\":1877:1900   */\n      sub\n        /* \"#utility.yul\":1873:1905   */\n      slt\n        /* \"#utility.yul\":1870:1989   */\n      iszero\n      tag_149\n      jumpi\n        /* \"#utility.yul\":1908:1987   */\n      tag_150\n      tag_101\n      jump\t// in\n    tag_150:\n        /* \"#utility.yul\":1870:1989   */\n    tag_149:\n        /* \"#utility.yul\":2028:2029   */\n      0x00\n        /* \"#utility.yul\":2053:2106   */\n      tag_151\n        /* \"#utility.yul\":2098:2105   */\n      dup5\n        /* \"#utility.yul\":2089:2095   */\n      dup3\n        /* \"#utility.yul\":2078:2087   */\n      dup6\n        /* \"#utility.yul\":2074:2096   */\n      add\n        /* \"#utility.yul\":2053:2106   */\n      tag_105\n      jump\t// in\n    tag_151:\n        /* \"#utility.yul\":2043:2106   */\n      swap2\n      pop\n        /* \"#utility.yul\":1999:2116   */\n      pop\n        /* \"#utility.yul\":1794:2123   */\n      swap3\n      swap2\n      pop\n      pop\n      jump\t// out\n        /* \"#utility.yul\":2129:2228   */\n    tag_106:\n        /* \"#utility.yul\":2181:2187   */\n      0x00\n        /* \"#utility.yul\":2215:2220   */\n      dup2\n        /* \"#utility.yul\":2209:2221   */\n      mload\n        /* \"#utility.yul\":2199:2221   */\n      swap1\n      pop\n        /* \"#utility.yul\":2129:2228   */\n      swap2\n      swap1\n      pop\n      jump\t// out\n        /* \"#utility.yul\":2234:2403   */\n    tag_107:\n        /* \"#utility.yul\":2318:2329   */\n      0x00\n        /* \"#utility.yul\":2352:2358   */\n      dup3\n        /* \"#utility.yul\":2347:2350   */\n      dup3\n        /* \"#utility.yul\":2340:2359   */\n      mstore\n        /* \"#utility.yul\":2392:2396   */\n      0x20\n        /* \"#utility.yul\":2387:2390   */\n      dup3\n        /* \"#utility.yul\":2383:2397   */\n      add\n        /* \"#utility.yul\":2368:2397   */\n      swap1\n      pop\n        /* \"#utility.yul\":2234:2403   */\n      swap3\n      swap2\n      pop\n      pop\n      jump\t// out\n        /* \"#utility.yul\":2409:2548   */\n    tag_108:\n        /* \"#utility.yul\":2498:2504   */\n      dup3\n        /* \"#utility.yul\":2493:2496   */\n      dup2\n        /* \"#utility.yul\":2488:2491   */\n      dup4\n        /* \"#utility.yul\":2482:2505   */\n      mcopy\n        /* \"#utility.yul\":2539:2540   */\n      0x00\n        /* \"#utility.yul\":2530:2536   */\n      dup4\n        /* \"#utility.yul\":2525:2528   */\n      dup4\n        /* \"#utility.yul\":2521:2537   */\n      add\n        /* \"#utility.yul\":2514:2541   */\n      mstore\n        /* \"#utility.yul\":2409:2548   */\n      pop\n      pop\n      pop\n      jump\t// out\n        /* \"#utility.yul\":2554:2656   */\n    tag_109:\n        /* \"#utility.yul\":2595:2601   */\n      0x00\n        /* \"#utility.yul\":2646:2648   */\n      0x1f\n        /* \"#utility.yul\":2642:2649   */\n      not\n        /* \"#utility.yul\":2637:2639   */\n      0x1f\n        /* \"#utility.yul\":2630:2635   */\n      dup4\n        /* \"#utility.yul\":2626:2640   */\n      add\n        /* \"#utility.yul\":2622:2650   */\n      and\n        /* \"#utility.yul\":2612:2650   */\n      swap1\n      pop\n        /* \"#utility.yul\":2554:2656   */\n      swap2\n      swap1\n      pop\n      jump\t// out\n        /* \"#utility.yul\":2662:3039   */\n    tag_110:\n        /* \"#utility.yul\":2750:2753   */\n      0x00\n        /* \"#utility.yul\":2778:2817   */\n      tag_157\n        /* \"#utility.yul\":2811:2816   */\n      dup3\n        /* \"#utility.yul\":2778:2817   */\n      tag_106\n      jump\t// in\n    tag_157:\n        /* \"#utility.yul\":2833:2904   */\n      tag_158\n        /* \"#utility.yul\":2897:2903   */\n      dup2\n        /* \"#utility.yul\":2892:2895   */\n      dup6\n        /* \"#utility.yul\":2833:2904   */\n      tag_107\n      jump\t// in\n    tag_158:\n        /* \"#utility.yul\":2826:2904   */\n      swap4\n      pop\n        /* \"#utility.yul\":2913:2978   */\n      tag_159\n        /* \"#utility.yul\":2971:2977   */\n      dup2\n        /* \"#utility.yul\":2966:2969   */\n      dup6\n        /* \"#utility.yul\":2959:2963   */\n      0x20\n        /* \"#utility.yul\":2952:2957   */\n      dup7\n        /* \"#utility.yul\":2948:2964   */\n      add\n        /* \"#utility.yul\":2913:2978   */\n      tag_108\n      jump\t// in\n    tag_159:\n        /* \"#utility.yul\":3003:3032   */\n      tag_160\n        /* \"#utility.yul\":3025:3031   */\n      dup2\n        /* \"#utility.yul\":3003:3032   */\n      tag_109\n      jump\t// in\n    tag_160:\n        /* \"#utility.yul\":2998:3001   */\n      dup5\n        /* \"#utility.yul\":2994:3033   */\n      add\n        /* \"#utility.yul\":2987:3033   */\n      swap2\n      pop\n        /* \"#utility.yul\":2754:3039   */\n      pop\n        /* \"#utility.yul\":2662:3039   */\n      swap3\n      swap2\n      pop\n      pop\n      jump\t// out\n        /* \"#utility.yul\":3045:3358   */\n    tag_36:\n        /* \"#utility.yul\":3158:3162   */\n      0x00\n        /* \"#utility.yul\":3196:3198   */\n      0x20\n        /* \"#utility.yul\":3185:3194   */\n      dup3\n        /* \"#utility.yul\":3181:3199   */\n      add\n        /* \"#utility.yul\":3173:3199   */\n      swap1\n      pop\n        /* \"#utility.yul\":3245:3254   */\n      dup2\n        /* \"#utility.yul\":3239:3243   */\n      dup2\n        /* \"#utility.yul\":3235:3255   */\n      sub\n        /* \"#utility.yul\":3231:3232   */\n      0x00\n        /* \"#utility.yul\":3220:3229   */\n      dup4\n        /* \"#utility.yul\":3216:3233   */\n      add\n        /* \"#utility.yul\":3209:3256   */\n      mstore\n        /* \"#utility.yul\":3273:3351   */\n      tag_162\n        /* \"#utility.yul\":3346:3350   */\n      dup2\n        /* \"#utility.yul\":3337:3343   */\n      dup5\n        /* \"#utility.yul\":3273:3351   */\n      tag_110\n      jump\t// in\n    tag_162:\n        /* \"#utility.yul\":3265:3351   */\n      swap1\n      pop\n        /* \"#utility.yul\":3045:3358   */\n      swap3\n      swap2\n      pop\n      pop\n      jump\t// out\n        /* \"#utility.yul\":3364:3544   */\n    tag_111:\n        /* \"#utility.yul\":3412:3489   */\n      0x4e487b7100000000000000000000000000000000000000000000000000000000\n        /* \"#utility.yul\":3409:3410   */\n      0x00\n        /* \"#utility.yul\":3402:3490   */\n      mstore\n        /* \"#utility.yul\":3509:3513   */\n      0x22\n        /* \"#utility.yul\":3506:3507   */\n      0x04\n        /* \"#utility.yul\":3499:3514   */\n      mstore\n        /* \"#utility.yul\":3533:3537   */\n      0x24\n        /* \"#utility.yul\":3530:3531   */\n      0x00\n        /* \"#utility.yul\":3523:3538   */\n      revert\n        /* \"#utility.yul\":3550:3870   */\n    tag_50:\n        /* \"#utility.yul\":3594:3600   */\n      0x00\n        /* \"#utility.yul\":3631:3632   */\n      0x02\n        /* \"#utility.yul\":3625:3629   */\n      dup3\n        /* \"#utility.yul\":3621:3633   */\n      div\n        /* \"#utility.yul\":3611:3633   */\n      swap1\n      pop\n        /* \"#utility.yul\":3678:3679   */\n      0x01\n        /* \"#utility.yul\":3672:3676   */\n      dup3\n        /* \"#utility.yul\":3668:3680   */\n      and\n        /* \"#utility.yul\":3699:3717   */\n      dup1\n        /* \"#utility.yul\":3689:3770   */\n      tag_165\n      jumpi\n        /* \"#utility.yul\":3755:3759   */\n      0x7f\n        /* \"#utility.yul\":3747:3753   */\n      dup3\n        /* \"#utility.yul\":3743:3760   */\n      and\n        /* \"#utility.yul\":3733:3760   */\n      swap2\n      pop\n        /* \"#utility.yul\":3689:3770   */\n    tag_165:\n        /* \"#utility.yul\":3817:3819   */\n      0x20\n        /* \"#utility.yul\":3809:3815   */\n      dup3\n        /* \"#utility.yul\":3806:3820   */\n      lt\n        /* \"#utility.yul\":3786:3804   */\n      dup2\n        /* \"#utility.yul\":3783:3821   */\n      sub\n        /* \"#utility.yul\":3780:3864   */\n      tag_166\n      jumpi\n        /* \"#utility.yul\":3836:3854   */\n      tag_167\n      tag_111\n      jump\t// in\n    tag_167:\n        /* \"#utility.yul\":3780:3864   */\n    tag_166:\n        /* \"#utility.yul\":3601:3870   */\n      pop\n        /* \"#utility.yul\":3550:3870   */\n      swap2\n      swap1\n      pop\n      jump\t// out\n        /* \"#utility.yul\":3876:4043   */\n    tag_112:\n        /* \"#utility.yul\":4016:4035   */\n      0x4e6f2066756e647320746f20636c61696d000000000000000000000000000000\n        /* \"#utility.yul\":4012:4013   */\n      0x00\n        /* \"#utility.yul\":4004:4010   */\n      dup3\n        /* \"#utility.yul\":4000:4014   */\n      add\n        /* \"#utility.yul\":3993:4036   */\n      mstore\n        /* \"#utility.yul\":3876:4043   */\n      pop\n      jump\t// out\n        /* \"#utility.yul\":4049:4415   */\n    tag_113:\n        /* \"#utility.yul\":4191:4194   */\n      0x00\n        /* \"#utility.yul\":4212:4279   */\n      tag_170\n        /* \"#utility.yul\":4276:4278   */\n      0x11\n        /* \"#utility.yul\":4271:4274   */\n      dup4\n        /* \"#utility.yul\":4212:4279   */\n      tag_107\n      jump\t// in\n    tag_170:\n        /* \"#utility.yul\":4205:4279   */\n      swap2\n      pop\n        /* \"#utility.yul\":4288:4381   */\n      tag_171\n        /* \"#utility.yul\":4377:4380   */\n      dup3\n        /* \"#utility.yul\":4288:4381   */\n      tag_112\n      jump\t// in\n    tag_171:\n        /* \"#utility.yul\":4406:4408   */\n      0x20\n        /* \"#utility.yul\":4401:4404   */\n      dup3\n        /* \"#utility.yul\":4397:4409   */\n      add\n        /* \"#utility.yul\":4390:4409   */\n      swap1\n      pop\n        /* \"#utility.yul\":4049:4415   */\n      swap2\n      swap1\n      pop\n      jump\t// out\n        /* \"#utility.yul\":4421:4840   */\n    tag_64:\n        /* \"#utility.yul\":4587:4591   */\n      0x00\n        /* \"#utility.yul\":4625:4627   */\n      0x20\n        /* \"#utility.yul\":4614:4623   */\n      dup3\n        /* \"#utility.yul\":4610:4628   */\n      add\n        /* \"#utility.yul\":4602:4628   */\n      swap1\n      pop\n        /* \"#utility.yul\":4674:4683   */\n      dup2\n        /* \"#utility.yul\":4668:4672   */\n      dup2\n        /* \"#utility.yul\":4664:4684   */\n      sub\n        /* \"#utility.yul\":4660:4661   */\n      0x00\n        /* \"#utility.yul\":4649:4658   */\n      dup4\n        /* \"#utility.yul\":4645:4662   */\n      add\n        /* \"#utility.yul\":4638:4685   */\n      mstore\n        /* \"#utility.yul\":4702:4833   */\n      tag_173\n        /* \"#utility.yul\":4828:4832   */\n      dup2\n        /* \"#utility.yul\":4702:4833   */\n      tag_113\n      jump\t// in\n    tag_173:\n        /* \"#utility.yul\":4694:4833   */\n      swap1\n      pop\n        /* \"#utility.yul\":4421:4840   */\n      swap2\n      swap1\n      pop\n      jump\t// out\n        /* \"#utility.yul\":4846:4993   */\n    tag_114:\n        /* \"#utility.yul\":4947:4958   */\n      0x00\n        /* \"#utility.yul\":4984:4987   */\n      dup2\n        /* \"#utility.yul\":4969:4987   */\n      swap1\n      pop\n        /* \"#utility.yul\":4846:4993   */\n      swap3\n      swap2\n      pop\n      pop\n      jump\t// out\n        /* \"#utility.yul\":4999:5113   */\n    tag_115:\n      pop\n      jump\t// out\n        /* \"#utility.yul\":5119:5517   */\n    tag_116:\n        /* \"#utility.yul\":5278:5281   */\n      0x00\n        /* \"#utility.yul\":5299:5382   */\n      tag_177\n        /* \"#utility.yul\":5380:5381   */\n      0x00\n        /* \"#utility.yul\":5375:5378   */\n      dup4\n        /* \"#utility.yul\":5299:5382   */\n      tag_114\n      jump\t// in\n    tag_177:\n        /* \"#utility.yul\":5292:5382   */\n      swap2\n      pop\n        /* \"#utility.yul\":5391:5484   */\n      tag_178\n        /* \"#utility.yul\":5480:5483   */\n      dup3\n        /* \"#utility.yul\":5391:5484   */\n      tag_115\n      jump\t// in\n    tag_178:\n        /* \"#utility.yul\":5509:5510   */\n      0x00\n        /* \"#utility.yul\":5504:5507   */\n      dup3\n        /* \"#utility.yul\":5500:5511   */\n      add\n        /* \"#utility.yul\":5493:5511   */\n      swap1\n      pop\n        /* \"#utility.yul\":5119:5517   */\n      swap2\n      swap1\n      pop\n      jump\t// out\n        /* \"#utility.yul\":5523:5902   */\n    tag_66:\n        /* \"#utility.yul\":5707:5710   */\n      0x00\n        /* \"#utility.yul\":5729:5876   */\n      tag_180\n        /* \"#utility.yul\":5872:5875   */\n      dup3\n        /* \"#utility.yul\":5729:5876   */\n      tag_116\n      jump\t// in\n    tag_180:\n        /* \"#utility.yul\":5722:5876   */\n      swap2\n      pop\n        /* \"#utility.yul\":5893:5896   */\n      dup2\n        /* \"#utility.yul\":5886:5896   */\n      swap1\n      pop\n        /* \"#utility.yul\":5523:5902   */\n      swap2\n      swap1\n      pop\n      jump\t// out\n        /* \"#utility.yul\":5908:6073   */\n    tag_117:\n        /* \"#utility.yul\":6048:6065   */\n      0x5472616e73666572206661696c65640000000000000000000000000000000000\n        /* \"#utility.yul\":6044:6045   */\n      0x00\n        /* \"#utility.yul\":6036:6042   */\n      dup3\n        /* \"#utility.yul\":6032:6046   */\n      add\n        /* \"#utility.yul\":6025:6066   */\n      mstore\n        /* \"#utility.yul\":5908:6073   */\n      pop\n      jump\t// out\n        /* \"#utility.yul\":6079:6445   */\n    tag_118:\n        /* \"#utility.yul\":6221:6224   */\n      0x00\n        /* \"#utility.yul\":6242:6309   */\n      tag_183\n        /* \"#utility.yul\":6306:6308   */\n      0x0f\n        /* \"#utility.yul\":6301:6304   */\n      dup4\n        /* \"#utility.yul\":6242:6309   */\n      tag_107\n      jump\t// in\n    tag_183:\n        /* \"#utility.yul\":6235:6309   */\n      swap2\n      pop\n        /* \"#utility.yul\":6318:6411   */\n      tag_184\n        /* \"#utility.yul\":6407:6410   */\n      dup3\n        /* \"#utility.yul\":6318:6411   */\n      tag_117\n      jump\t// in\n    tag_184:\n        /* \"#utility.yul\":6436:6438   */\n      0x20\n        /* \"#utility.yul\":6431:6434   */\n      dup3\n        /* \"#utility.yul\":6427:6439   */\n      add\n        /* \"#utility.yul\":6420:6439   */\n      swap1\n      pop\n        /* \"#utility.yul\":6079:6445   */\n      swap2\n      swap1\n      pop\n      jump\t// out\n        /* \"#utility.yul\":6451:6870   */\n    tag_72:\n        /* \"#utility.yul\":6617:6621   */\n      0x00\n        /* \"#utility.yul\":6655:6657   */\n      0x20\n        /* \"#utility.yul\":6644:6653   */\n      dup3\n        /* \"#utility.yul\":6640:6658   */\n      add\n        /* \"#utility.yul\":6632:6658   */\n      swap1\n      pop\n        /* \"#utility.yul\":6704:6713   */\n      dup2\n        /* \"#utility.yul\":6698:6702   */\n      dup2\n        /* \"#utility.yul\":6694:6714   */\n      sub\n        /* \"#utility.yul\":6690:6691   */\n      0x00\n        /* \"#utility.yul\":6679:6688   */\n      dup4\n        /* \"#utility.yul\":6675:6692   */\n      add\n        /* \"#utility.yul\":6668:6715   */\n      mstore\n        /* \"#utility.yul\":6732:6863   */\n      tag_186\n        /* \"#utility.yul\":6858:6862   */\n      dup2\n        /* \"#utility.yul\":6732:6863   */\n      tag_118\n      jump\t// in\n    tag_186:\n        /* \"#utility.yul\":6724:6863   */\n      swap1\n      pop\n        /* \"#utility.yul\":6451:6870   */\n      swap2\n      swap1\n      pop\n      jump\t// out\n        /* \"#utility.yul\":6876:7047   */\n    tag_119:\n        /* \"#utility.yul\":7016:7039   */\n      0x4e6f20636f6e747269627574696f6e20666f756e640000000000000000000000\n        /* \"#utility.yul\":7012:7013   */\n      0x00\n        /* \"#utility.yul\":7004:7010   */\n      dup3\n        /* \"#utility.yul\":7000:7014   */\n      add\n        /* \"#utility.yul\":6993:7040   */\n      mstore\n        /* \"#utility.yul\":6876:7047   */\n      pop\n      jump\t// out\n        /* \"#utility.yul\":7053:7419   */\n    tag_120:\n        /* \"#utility.yul\":7195:7198   */\n      0x00\n        /* \"#utility.yul\":7216:7283   */\n      tag_189\n        /* \"#utility.yul\":7280:7282   */\n      0x15\n        /* \"#utility.yul\":7275:7278   */\n      dup4\n        /* \"#utility.yul\":7216:7283   */\n      tag_107\n      jump\t// in\n    tag_189:\n        /* \"#utility.yul\":7209:7283   */\n      swap2\n      pop\n        /* \"#utility.yul\":7292:7385   */\n      tag_190\n        /* \"#utility.yul\":7381:7384   */\n      dup3\n        /* \"#utility.yul\":7292:7385   */\n      tag_119\n      jump\t// in\n    tag_190:\n        /* \"#utility.yul\":7410:7412   */\n      0x20\n        /* \"#utility.yul\":7405:7408   */\n      dup3\n        /* \"#utility.yul\":7401:7413   */\n      add\n        /* \"#utility.yul\":7394:7413   */\n      swap1\n      pop\n        /* \"#utility.yul\":7053:7419   */\n      swap2\n      swap1\n      pop\n      jump\t// out\n        /* \"#utility.yul\":7425:7844   */\n    tag_78:\n        /* \"#utility.yul\":7591:7595   */\n      0x00\n        /* \"#utility.yul\":7629:7631   */\n      0x20\n        /* \"#utility.yul\":7618:7627   */\n      dup3\n        /* \"#utility.yul\":7614:7632   */\n      add\n        /* \"#utility.yul\":7606:7632   */\n      swap1\n      pop\n        /* \"#utility.yul\":7678:7687   */\n      dup2\n        /* \"#utility.yul\":7672:7676   */\n      dup2\n        /* \"#utility.yul\":7668:7688   */\n      sub\n        /* \"#utility.yul\":7664:7665   */\n      0x00\n        /* \"#utility.yul\":7653:7662   */\n      dup4\n        /* \"#utility.yul\":7649:7666   */\n      add\n        /* \"#utility.yul\":7642:7689   */\n      mstore\n        /* \"#utility.yul\":7706:7837   */\n      tag_192\n        /* \"#utility.yul\":7832:7836   */\n      dup2\n        /* \"#utility.yul\":7706:7837   */\n      tag_120\n      jump\t// in\n    tag_192:\n        /* \"#utility.yul\":7698:7837   */\n      swap1\n      pop\n        /* \"#utility.yul\":7425:7844   */\n      swap2\n      swap1\n      pop\n      jump\t// out\n        /* \"#utility.yul\":7850:8013   */\n    tag_121:\n        /* \"#utility.yul\":7990:8005   */\n      0x526566756e64206661696c656400000000000000000000000000000000000000\n        /* \"#utility.yul\":7986:7987   */\n      0x00\n        /* \"#utility.yul\":7978:7984   */\n      dup3\n        /* \"#utility.yul\":7974:7988   */\n      add\n        /* \"#utility.yul\":7967:8006   */\n      mstore\n        /* \"#utility.yul\":7850:8013   */\n      pop\n      jump\t// out\n        /* \"#utility.yul\":8019:8385   */\n    tag_122:\n        /* \"#utility.yul\":8161:8164   */\n      0x00\n        /* \"#utility.yul\":8182:8249   */\n      tag_195\n        /* \"#utility.yul\":8246:8248   */\n      0x0d\n        /* \"#utility.yul\":8241:8244   */\n      dup4\n        /* \"#utility.yul\":8182:8249   */\n      tag_107\n      jump\t// in\n    tag_195:\n        /* \"#utility.yul\":8175:8249   */\n      swap2\n      pop\n        /* \"#utility.yul\":8258:8351   */\n      tag_196\n        /* \"#utility.yul\":8347:8350   */\n      dup3\n        /* \"#utility.yul\":8258:8351   */\n      tag_121\n      jump\t// in\n    tag_196:\n        /* \"#utility.yul\":8376:8378   */\n      0x20\n        /* \"#utility.yul\":8371:8374   */\n      dup3\n        /* \"#utility.yul\":8367:8379   */\n      add\n        /* \"#utility.yul\":8360:8379   */\n      swap1\n      pop\n        /* \"#utility.yul\":8019:8385   */\n      swap2\n      swap1\n      pop\n      jump\t// out\n        /* \"#utility.yul\":8391:8810   */\n    tag_86:\n        /* \"#utility.yul\":8557:8561   */\n      0x00\n        /* \"#utility.yul\":8595:8597   */\n      0x20\n        /* \"#utility.yul\":8584:8593   */\n      dup3\n        /* \"#utility.yul\":8580:8598   */\n      add\n        /* \"#utility.yul\":8572:8598   */\n      swap1\n      pop\n        /* \"#utility.yul\":8644:8653   */\n      dup2\n        /* \"#utility.yul\":8638:8642   */\n      dup2\n        /* \"#utility.yul\":8634:8654   */\n      sub\n        /* \"#utility.yul\":8630:8631   */\n      0x00\n        /* \"#utility.yul\":8619:8628   */\n      dup4\n        /* \"#utility.yul\":8615:8632   */\n      add\n        /* \"#utility.yul\":8608:8655   */\n      mstore\n        /* \"#utility.yul\":8672:8803   */\n      tag_198\n        /* \"#utility.yul\":8798:8802   */\n      dup2\n        /* \"#utility.yul\":8672:8803   */\n      tag_122\n      jump\t// in\n    tag_198:\n        /* \"#utility.yul\":8664:8803   */\n      swap1\n      pop\n        /* \"#utility.yul\":8391:8810   */\n      swap2\n      swap1\n      pop\n      jump\t// out\n        /* \"#utility.yul\":8816:8996   */\n    tag_123:\n        /* \"#utility.yul\":8864:8941   */\n      0x4e487b7100000000000000000000000000000000000000000000000000000000\n        /* \"#utility.yul\":8861:8862   */\n      0x00\n        /* \"#utility.yul\":8854:8942   */\n      mstore\n        /* \"#utility.yul\":8961:8965   */\n      0x11\n        /* \"#utility.yul\":8958:8959   */\n      0x04\n        /* \"#utility.yul\":8951:8966   */\n      mstore\n        /* \"#utility.yul\":8985:8989   */\n      0x24\n        /* \"#utility.yul\":8982:8983   */\n      0x00\n        /* \"#utility.yul\":8975:8990   */\n      revert\n        /* \"#utility.yul\":9002:9193   */\n    tag_91:\n        /* \"#utility.yul\":9042:9045   */\n      0x00\n        /* \"#utility.yul\":9061:9081   */\n      tag_201\n        /* \"#utility.yul\":9079:9080   */\n      dup3\n        /* \"#utility.yul\":9061:9081   */\n      tag_98\n      jump\t// in\n    tag_201:\n        /* \"#utility.yul\":9056:9081   */\n      swap2\n      pop\n        /* \"#utility.yul\":9095:9115   */\n      tag_202\n        /* \"#utility.yul\":9113:9114   */\n      dup4\n        /* \"#utility.yul\":9095:9115   */\n      tag_98\n      jump\t// in\n    tag_202:\n        /* \"#utility.yul\":9090:9115   */\n      swap3\n      pop\n        /* \"#utility.yul\":9138:9139   */\n      dup3\n        /* \"#utility.yul\":9135:9136   */\n      dup3\n        /* \"#utility.yul\":9131:9140   */\n      add\n        /* \"#utility.yul\":9124:9140   */\n      swap1\n      pop\n        /* \"#utility.yul\":9159:9162   */\n      dup1\n        /* \"#utility.yul\":9156:9157   */\n      dup3\n        /* \"#utility.yul\":9153:9163   */\n      gt\n        /* \"#utility.yul\":9150:9186   */\n      iszero\n      tag_203\n      jumpi\n        /* \"#utility.yul\":9166:9184   */\n      tag_204\n      tag_123\n      jump\t// in\n    tag_204:\n        /* \"#utility.yul\":9150:9186   */\n    tag_203:\n        /* \"#utility.yul\":9002:9193   */\n      swap3\n      swap2\n      pop\n      pop\n      jump\t// out\n        /* \"#utility.yul\":9199:9317   */\n    tag_124:\n        /* \"#utility.yul\":9286:9310   */\n      tag_206\n        /* \"#utility.yul\":9304:9309   */\n      dup2\n        /* \"#utility.yul\":9286:9310   */\n      tag_103\n      jump\t// in\n    tag_206:\n        /* \"#utility.yul\":9281:9284   */\n      dup3\n        /* \"#utility.yul\":9274:9311   */\n      mstore\n        /* \"#utility.yul\":9199:9317   */\n      pop\n      pop\n      jump\t// out\n        /* \"#utility.yul\":9323:9655   */\n    tag_94:\n        /* \"#utility.yul\":9444:9448   */\n      0x00\n        /* \"#utility.yul\":9482:9484   */\n      0x40\n        /* \"#utility.yul\":9471:9480   */\n      dup3\n        /* \"#utility.yul\":9467:9485   */\n      add\n        /* \"#utility.yul\":9459:9485   */\n      swap1\n      pop\n        /* \"#utility.yul\":9495:9566   */\n      tag_208\n        /* \"#utility.yul\":9563:9564   */\n      0x00\n        /* \"#utility.yul\":9552:9561   */\n      dup4\n        /* \"#utility.yul\":9548:9565   */\n      add\n        /* \"#utility.yul\":9539:9545   */\n      dup6\n        /* \"#utility.yul\":9495:9566   */\n      tag_124\n      jump\t// in\n    tag_208:\n        /* \"#utility.yul\":9576:9648   */\n      tag_209\n        /* \"#utility.yul\":9644:9646   */\n      0x20\n        /* \"#utility.yul\":9633:9642   */\n      dup4\n        /* \"#utility.yul\":9629:9647   */\n      add\n        /* \"#utility.yul\":9620:9626   */\n      dup5\n        /* \"#utility.yul\":9576:9648   */\n      tag_99\n      jump\t// in\n    tag_209:\n        /* \"#utility.yul\":9323:9655   */\n      swap4\n      swap3\n      pop\n      pop\n      pop\n      jump\t// out\n\n    auxdata: 0xa264697066735822122036c9dd3059fcc4d9c79b875f5d8c6e7c00978dff1e1e93c1050551126bd132c764736f6c634300081a0033\n}\n",
				"bytecode": {
					"linkReferences": {},
					"object": "608060405234801561000f575f80fd5b506040516112d33803806112d3833981810160405281019061003191906102bc565b5f8211610073576040517f08c379a000000000000000000000000000000000000000000000000000000000815260040161006a90610382565b60405180910390fd5b60018110156100b7576040517f08c379a00000000000000000000000000000000000000000000000000000000081526004016100ae90610410565b60405180910390fd5b335f806101000a81548173ffffffffffffffffffffffffffffffffffffffff021916908373ffffffffffffffffffffffffffffffffffffffff16021790555082600190816101059190610632565b5081600281905550620151808161011c919061072e565b42610127919061076f565b6003819055505f6004819055505050506107a2565b5f604051905090565b5f80fd5b5f80fd5b5f80fd5b5f80fd5b5f601f19601f8301169050919050565b7f4e487b71000000000000000000000000000000000000000000000000000000005f52604160045260245ffd5b61019b82610155565b810181811067ffffffffffffffff821117156101ba576101b9610165565b5b80604052505050565b5f6101cc61013c565b90506101d88282610192565b919050565b5f67ffffffffffffffff8211156101f7576101f6610165565b5b61020082610155565b9050602081019050919050565b8281835e5f83830152505050565b5f61022d610228846101dd565b6101c3565b90508281526020810184848401111561024957610248610151565b5b61025484828561020d565b509392505050565b5f82601f8301126102705761026f61014d565b5b815161028084826020860161021b565b91505092915050565b5f819050919050565b61029b81610289565b81146102a5575f80fd5b50565b5f815190506102b681610292565b92915050565b5f805f606084860312156102d3576102d2610145565b5b5f84015167ffffffffffffffff8111156102f0576102ef610149565b5b6102fc8682870161025c565b935050602061030d868287016102a8565b925050604061031e868287016102a8565b9150509250925092565b5f82825260208201905092915050565b7f476f616c206d7573742062652067726561746572207468616e207a65726f00005f82015250565b5f61036c601e83610328565b915061037782610338565b602082019050919050565b5f6020820190508181035f83015261039981610360565b9050919050565b7f43616d706169676e206d7573742072756e20666f72206174206c6561737420315f8201527f2064617900000000000000000000000000000000000000000000000000000000602082015250565b5f6103fa602483610328565b9150610405826103a0565b604082019050919050565b5f6020820190508181035f830152610427816103ee565b9050919050565b5f81519050919050565b7f4e487b71000000000000000000000000000000000000000000000000000000005f52602260045260245ffd5b5f600282049050600182168061047c57607f821691505b60208210810361048f5761048e610438565b5b50919050565b5f819050815f5260205f209050919050565b5f6020601f8301049050919050565b5f82821b905092915050565b5f600883026104f17fffffffffffffffffffffffffffffffffffffffffffffffffffffffffffffffff826104b6565b6104fb86836104b6565b95508019841693508086168417925050509392505050565b5f819050919050565b5f61053661053161052c84610289565b610513565b610289565b9050919050565b5f819050919050565b61054f8361051c565b61056361055b8261053d565b8484546104c2565b825550505050565b5f90565b61057761056b565b610582818484610546565b505050565b5b818110156105a55761059a5f8261056f565b600181019050610588565b5050565b601f8211156105ea576105bb81610495565b6105c4846104a7565b810160208510156105d3578190505b6105e76105df856104a7565b830182610587565b50505b505050565b5f82821c905092915050565b5f61060a5f19846008026105ef565b1980831691505092915050565b5f61062283836105fb565b9150826002028217905092915050565b61063b8261042e565b67ffffffffffffffff81111561065457610653610165565b5b61065e8254610465565b6106698282856105a9565b5f60209050601f83116001811461069a575f8415610688578287015190505b6106928582610617565b8655506106f9565b601f1984166106a886610495565b5f5b828110156106cf578489015182556001820191506020850194506020810190506106aa565b868310156106ec57848901516106e8601f8916826105fb565b8355505b6001600288020188555050505b505050505050565b7f4e487b71000000000000000000000000000000000000000000000000000000005f52601160045260245ffd5b5f61073882610289565b915061074383610289565b925082820261075181610289565b9150828204841483151761076857610767610701565b5b5092915050565b5f61077982610289565b915061078483610289565b925082820190508082111561079c5761079b610701565b5b92915050565b610b24806107af5f395ff3fe608060405260043610610085575f3560e01c80634a79d50c116100585780634a79d50c14610143578063ac3077731461016d578063b2d5ae4414610183578063c5c4744c14610199578063d7bb99ba146101c357610085565b806302d05d3f1461008957806329dcb0cf146100b357806340193883146100dd57806342e94c9014610107575b5f80fd5b348015610094575f80fd5b5061009d6101cd565b6040516100aa91906106d6565b60405180910390f35b3480156100be575f80fd5b506100c76101f0565b6040516100d49190610707565b60405180910390f35b3480156100e8575f80fd5b506100f16101f6565b6040516100fe9190610707565b60405180910390f35b348015610112575f80fd5b5061012d6004803603810190610128919061075f565b6101fc565b60405161013a9190610707565b60405180910390f35b34801561014e575f80fd5b50610157610211565b60405161016491906107fa565b60405180910390f35b348015610178575f80fd5b5061018161029d565b005b34801561018e575f80fd5b50610197610422565b005b3480156101a4575f80fd5b506101ad6105dd565b6040516101ba9190610707565b60405180910390f35b6101cb6105e3565b005b5f8054906101000a900473ffffffffffffffffffffffffffffffffffffffff1681565b60035481565b60025481565b6005602052805f5260405f205f915090505481565b6001805461021e90610847565b80601f016020809104026020016040519081016040528092919081815260200182805461024a90610847565b80156102955780601f1061026c57610100808354040283529160200191610295565b820191905f5260205f20905b81548152906001019060200180831161027857829003601f168201915b505050505081565b5f8054906101000a900473ffffffffffffffffffffffffffffffffffffffff1673ffffffffffffffffffffffffffffffffffffffff163373ffffffffffffffffffffffffffffffffffffffff16146102f3575f80fd5b6002546004541015610303575f80fd5b6003544211610310575f80fd5b5f4711610352576040517f08c379a0000000000000000000000000000000000000000000000000000000008152600401610349906108c1565b60405180910390fd5b5f4790505f805f9054906101000a900473ffffffffffffffffffffffffffffffffffffffff1673ffffffffffffffffffffffffffffffffffffffff168260405161039b9061090c565b5f6040518083038185875af1925050503d805f81146103d5576040519150601f19603f3d011682016040523d82523d5f602084013e6103da565b606091505b505090508061041e576040517f08c379a00000000000000000000000000000000000000000000000000000000081526004016104159061096a565b60405180910390fd5b5050565b600354421161042f575f80fd5b5f60055f3373ffffffffffffffffffffffffffffffffffffffff1673ffffffffffffffffffffffffffffffffffffffff1681526020019081526020015f2054116104ae576040517f08c379a00000000000000000000000000000000000000000000000000000000081526004016104a5906109d2565b60405180910390fd5b5f60055f3373ffffffffffffffffffffffffffffffffffffffff1673ffffffffffffffffffffffffffffffffffffffff1681526020019081526020015f205490505f60055f3373ffffffffffffffffffffffffffffffffffffffff1673ffffffffffffffffffffffffffffffffffffffff1681526020019081526020015f20819055505f3373ffffffffffffffffffffffffffffffffffffffff16826040516105569061090c565b5f6040518083038185875af1925050503d805f8114610590576040519150601f19603f3d011682016040523d82523d5f602084013e610595565b606091505b50509050806105d9576040517f08c379a00000000000000000000000000000000000000000000000000000000081526004016105d090610a3a565b60405180910390fd5b5050565b60045481565b6003544211156105f1575f80fd5b3460055f3373ffffffffffffffffffffffffffffffffffffffff1673ffffffffffffffffffffffffffffffffffffffff1681526020019081526020015f205f82825461063d9190610a85565b925050819055503460045f8282546106559190610a85565b925050819055507f1bb460ccaaf70fbacfec17a376f8acbd278c1405590ffcc8ebe4b88daf4f64ad333460405161068d929190610ac7565b60405180910390a1565b5f73ffffffffffffffffffffffffffffffffffffffff82169050919050565b5f6106c082610697565b9050919050565b6106d0816106b6565b82525050565b5f6020820190506106e95f8301846106c7565b92915050565b5f819050919050565b610701816106ef565b82525050565b5f60208201905061071a5f8301846106f8565b92915050565b5f80fd5b5f61072e82610697565b9050919050565b61073e81610724565b8114610748575f80fd5b50565b5f8135905061075981610735565b92915050565b5f6020828403121561077457610773610720565b5b5f6107818482850161074b565b91505092915050565b5f81519050919050565b5f82825260208201905092915050565b8281835e5f83830152505050565b5f601f19601f8301169050919050565b5f6107cc8261078a565b6107d68185610794565b93506107e68185602086016107a4565b6107ef816107b2565b840191505092915050565b5f6020820190508181035f83015261081281846107c2565b905092915050565b7f4e487b71000000000000000000000000000000000000000000000000000000005f52602260045260245ffd5b5f600282049050600182168061085e57607f821691505b6020821081036108715761087061081a565b5b50919050565b7f4e6f2066756e647320746f20636c61696d0000000000000000000000000000005f82015250565b5f6108ab601183610794565b91506108b682610877565b602082019050919050565b5f6020820190508181035f8301526108d88161089f565b9050919050565b5f81905092915050565b50565b5f6108f75f836108df565b9150610902826108e9565b5f82019050919050565b5f610916826108ec565b9150819050919050565b7f5472616e73666572206661696c656400000000000000000000000000000000005f82015250565b5f610954600f83610794565b915061095f82610920565b602082019050919050565b5f6020820190508181035f83015261098181610948565b9050919050565b7f4e6f20636f6e747269627574696f6e20666f756e6400000000000000000000005f82015250565b5f6109bc601583610794565b91506109c782610988565b602082019050919050565b5f6020820190508181035f8301526109e9816109b0565b9050919050565b7f526566756e64206661696c6564000000000000000000000000000000000000005f82015250565b5f610a24600d83610794565b9150610a2f826109f0565b602082019050919050565b5f6020820190508181035f830152610a5181610a18565b9050919050565b7f4e487b71000000000000000000000000000000000000000000000000000000005f52601160045260245ffd5b5f610a8f826106ef565b9150610a9a836106ef565b9250828201905080821115610ab257610ab1610a58565b5b92915050565b610ac181610724565b82525050565b5f604082019050610ada5f830185610ab8565b610ae760208301846106f8565b939250505056fea264697066735822122036c9dd3059fcc4d9c79b875f5d8c6e7c00978dff1e1e93c1050551126bd132c764736f6c634300081a0033",
					"opcodes": "PUSH1 0x80 PUSH1 0x40 MSTORE CALLVALUE DUP1 ISZERO PUSH2 0xF JUMPI PUSH0 DUP1 REVERT JUMPDEST POP PUSH1 0x40 MLOAD PUSH2 0x12D3 CODESIZE SUB DUP1 PUSH2 0x12D3 DUP4 CODECOPY DUP2 DUP2 ADD PUSH1 0x40 MSTORE DUP2 ADD SWAP1 PUSH2 0x31 SWAP2 SWAP1 PUSH2 0x2BC JUMP JUMPDEST PUSH0 DUP3 GT PUSH2 0x73 JUMPI PUSH1 0x40 MLOAD PUSH32 0x8C379A000000000000000000000000000000000000000000000000000000000 DUP2 MSTORE PUSH1 0x4 ADD PUSH2 0x6A SWAP1 PUSH2 0x382 JUMP JUMPDEST PUSH1 0x40 MLOAD DUP1 SWAP2 SUB SWAP1 REVERT JUMPDEST PUSH1 0x1 DUP2 LT ISZERO PUSH2 0xB7 JUMPI PUSH1 0x40 MLOAD PUSH32 0x8C379A000000000000000000000000000000000000000000000000000000000 DUP2 MSTORE PUSH1 0x4 ADD PUSH2 0xAE SWAP1 PUSH2 0x410 JUMP JUMPDEST PUSH1 0x40 MLOAD DUP1 SWAP2 SUB SWAP1 REVERT JUMPDEST CALLER PUSH0 DUP1 PUSH2 0x100 EXP DUP2 SLOAD DUP2 PUSH20 0xFFFFFFFFFFFFFFFFFFFFFFFFFFFFFFFFFFFFFFFF MUL NOT AND SWAP1 DUP4 PUSH20 0xFFFFFFFFFFFFFFFFFFFFFFFFFFFFFFFFFFFFFFFF AND MUL OR SWAP1 SSTORE POP DUP3 PUSH1 0x1 SWAP1 DUP2 PUSH2 0x105 SWAP2 SWAP1 PUSH2 0x632 JUMP JUMPDEST POP DUP2 PUSH1 0x2 DUP2 SWAP1 SSTORE POP PUSH3 0x15180 DUP2 PUSH2 0x11C SWAP2 SWAP1 PUSH2 0x72E JUMP JUMPDEST TIMESTAMP PUSH2 0x127 SWAP2 SWAP1 PUSH2 0x76F JUMP JUMPDEST PUSH1 0x3 DUP2 SWAP1 SSTORE POP PUSH0 PUSH1 0x4 DUP2 SWAP1 SSTORE POP POP POP POP PUSH2 0x7A2 JUMP JUMPDEST PUSH0 PUSH1 0x40 MLOAD SWAP1 POP SWAP1 JUMP JUMPDEST PUSH0 DUP1 REVERT JUMPDEST PUSH0 DUP1 REVERT JUMPDEST PUSH0 DUP1 REVERT JUMPDEST PUSH0 DUP1 REVERT JUMPDEST PUSH0 PUSH1 0x1F NOT PUSH1 0x1F DUP4 ADD AND SWAP1 POP SWAP2 SWAP1 POP JUMP JUMPDEST PUSH32 0x4E487B7100000000000000000000000000000000000000000000000000000000 PUSH0 MSTORE PUSH1 0x41 PUSH1 0x4 MSTORE PUSH1 0x24 PUSH0 REVERT JUMPDEST PUSH2 0x19B DUP3 PUSH2 0x155 JUMP JUMPDEST DUP2 ADD DUP2 DUP2 LT PUSH8 0xFFFFFFFFFFFFFFFF DUP3 GT OR ISZERO PUSH2 0x1BA JUMPI PUSH2 0x1B9 PUSH2 0x165 JUMP JUMPDEST JUMPDEST DUP1 PUSH1 0x40 MSTORE POP POP POP JUMP JUMPDEST PUSH0 PUSH2 0x1CC PUSH2 0x13C JUMP JUMPDEST SWAP1 POP PUSH2 0x1D8 DUP3 DUP3 PUSH2 0x192 JUMP JUMPDEST SWAP2 SWAP1 POP JUMP JUMPDEST PUSH0 PUSH8 0xFFFFFFFFFFFFFFFF DUP3 GT ISZERO PUSH2 0x1F7 JUMPI PUSH2 0x1F6 PUSH2 0x165 JUMP JUMPDEST JUMPDEST PUSH2 0x200 DUP3 PUSH2 0x155 JUMP JUMPDEST SWAP1 POP PUSH1 0x20 DUP2 ADD SWAP1 POP SWAP2 SWAP1 POP JUMP JUMPDEST DUP3 DUP2 DUP4 MCOPY PUSH0 DUP4 DUP4 ADD MSTORE POP POP POP JUMP JUMPDEST PUSH0 PUSH2 0x22D PUSH2 0x228 DUP5 PUSH2 0x1DD JUMP JUMPDEST PUSH2 0x1C3 JUMP JUMPDEST SWAP1 POP DUP3 DUP2 MSTORE PUSH1 0x20 DUP2 ADD DUP5 DUP5 DUP5 ADD GT ISZERO PUSH2 0x249 JUMPI PUSH2 0x248 PUSH2 0x151 JUMP JUMPDEST JUMPDEST PUSH2 0x254 DUP5 DUP3 DUP6 PUSH2 0x20D JUMP JUMPDEST POP SWAP4 SWAP3 POP POP POP JUMP JUMPDEST PUSH0 DUP3 PUSH1 0x1F DUP4 ADD SLT PUSH2 0x270 JUMPI PUSH2 0x26F PUSH2 0x14D JUMP JUMPDEST JUMPDEST DUP2 MLOAD PUSH2 0x280 DUP5 DUP3 PUSH1 0x20 DUP7 ADD PUSH2 0x21B JUMP JUMPDEST SWAP2 POP POP SWAP3 SWAP2 POP POP JUMP JUMPDEST PUSH0 DUP2 SWAP1 POP SWAP2 SWAP1 POP JUMP JUMPDEST PUSH2 0x29B DUP2 PUSH2 0x289 JUMP JUMPDEST DUP2 EQ PUSH2 0x2A5 JUMPI PUSH0 DUP1 REVERT JUMPDEST POP JUMP JUMPDEST PUSH0 DUP2 MLOAD SWAP1 POP PUSH2 0x2B6 DUP2 PUSH2 0x292 JUMP JUMPDEST SWAP3 SWAP2 POP POP JUMP JUMPDEST PUSH0 DUP1 PUSH0 PUSH1 0x60 DUP5 DUP7 SUB SLT ISZERO PUSH2 0x2D3 JUMPI PUSH2 0x2D2 PUSH2 0x145 JUMP JUMPDEST JUMPDEST PUSH0 DUP5 ADD MLOAD PUSH8 0xFFFFFFFFFFFFFFFF DUP2 GT ISZERO PUSH2 0x2F0 JUMPI PUSH2 0x2EF PUSH2 0x149 JUMP JUMPDEST JUMPDEST PUSH2 0x2FC DUP7 DUP3 DUP8 ADD PUSH2 0x25C JUMP JUMPDEST SWAP4 POP POP PUSH1 0x20 PUSH2 0x30D DUP7 DUP3 DUP8 ADD PUSH2 0x2A8 JUMP JUMPDEST SWAP3 POP POP PUSH1 0x40 PUSH2 0x31E DUP7 DUP3 DUP8 ADD PUSH2 0x2A8 JUMP JUMPDEST SWAP2 POP POP SWAP3 POP SWAP3 POP SWAP3 JUMP JUMPDEST PUSH0 DUP3 DUP3 MSTORE PUSH1 0x20 DUP3 ADD SWAP1 POP SWAP3 SWAP2 POP POP JUMP JUMPDEST PUSH32 0x476F616C206D7573742062652067726561746572207468616E207A65726F0000 PUSH0 DUP3 ADD MSTORE POP JUMP JUMPDEST PUSH0 PUSH2 0x36C PUSH1 0x1E DUP4 PUSH2 0x328 JUMP JUMPDEST SWAP2 POP PUSH2 0x377 DUP3 PUSH2 0x338 JUMP JUMPDEST PUSH1 0x20 DUP3 ADD SWAP1 POP SWAP2 SWAP1 POP JUMP JUMPDEST PUSH0 PUSH1 0x20 DUP3 ADD SWAP1 POP DUP2 DUP2 SUB PUSH0 DUP4 ADD MSTORE PUSH2 0x399 DUP2 PUSH2 0x360 JUMP JUMPDEST SWAP1 POP SWAP2 SWAP1 POP JUMP JUMPDEST PUSH32 0x43616D706169676E206D7573742072756E20666F72206174206C656173742031 PUSH0 DUP3 ADD MSTORE PUSH32 0x2064617900000000000000000000000000000000000000000000000000000000 PUSH1 0x20 DUP3 ADD MSTORE POP JUMP JUMPDEST PUSH0 PUSH2 0x3FA PUSH1 0x24 DUP4 PUSH2 0x328 JUMP JUMPDEST SWAP2 POP PUSH2 0x405 DUP3 PUSH2 0x3A0 JUMP JUMPDEST PUSH1 0x40 DUP3 ADD SWAP1 POP SWAP2 SWAP1 POP JUMP JUMPDEST PUSH0 PUSH1 0x20 DUP3 ADD SWAP1 POP DUP2 DUP2 SUB PUSH0 DUP4 ADD MSTORE PUSH2 0x427 DUP2 PUSH2 0x3EE JUMP JUMPDEST SWAP1 POP SWAP2 SWAP1 POP JUMP JUMPDEST PUSH0 DUP2 MLOAD SWAP1 POP SWAP2 SWAP1 POP JUMP JUMPDEST PUSH32 0x4E487B7100000000000000000000000000000000000000000000000000000000 PUSH0 MSTORE PUSH1 0x22 PUSH1 0x4 MSTORE PUSH1 0x24 PUSH0 REVERT JUMPDEST PUSH0 PUSH1 0x2 DUP3 DIV SWAP1 POP PUSH1 0x1 DUP3 AND DUP1 PUSH2 0x47C JUMPI PUSH1 0x7F DUP3 AND SWAP2 POP JUMPDEST PUSH1 0x20 DUP3 LT DUP2 SUB PUSH2 0x48F JUMPI PUSH2 0x48E PUSH2 0x438 JUMP JUMPDEST JUMPDEST POP SWAP2 SWAP1 POP JUMP JUMPDEST PUSH0 DUP2 SWAP1 POP DUP2 PUSH0 MSTORE PUSH1 0x20 PUSH0 KECCAK256 SWAP1 POP SWAP2 SWAP1 POP JUMP JUMPDEST PUSH0 PUSH1 0x20 PUSH1 0x1F DUP4 ADD DIV SWAP1 POP SWAP2 SWAP1 POP JUMP JUMPDEST PUSH0 DUP3 DUP3 SHL SWAP1 POP SWAP3 SWAP2 POP POP JUMP JUMPDEST PUSH0 PUSH1 0x8 DUP4 MUL PUSH2 0x4F1 PUSH32 0xFFFFFFFFFFFFFFFFFFFFFFFFFFFFFFFFFFFFFFFFFFFFFFFFFFFFFFFFFFFFFFFF DUP3 PUSH2 0x4B6 JUMP JUMPDEST PUSH2 0x4FB DUP7 DUP4 PUSH2 0x4B6 JUMP JUMPDEST SWAP6 POP DUP1 NOT DUP5 AND SWAP4 POP DUP1 DUP7 AND DUP5 OR SWAP3 POP POP POP SWAP4 SWAP3 POP POP POP JUMP JUMPDEST PUSH0 DUP2 SWAP1 POP SWAP2 SWAP1 POP JUMP JUMPDEST PUSH0 PUSH2 0x536 PUSH2 0x531 PUSH2 0x52C DUP5 PUSH2 0x289 JUMP JUMPDEST PUSH2 0x513 JUMP JUMPDEST PUSH2 0x289 JUMP JUMPDEST SWAP1 POP SWAP2 SWAP1 POP JUMP JUMPDEST PUSH0 DUP2 SWAP1 POP SWAP2 SWAP1 POP JUMP JUMPDEST PUSH2 0x54F DUP4 PUSH2 0x51C JUMP JUMPDEST PUSH2 0x563 PUSH2 0x55B DUP3 PUSH2 0x53D JUMP JUMPDEST DUP5 DUP5 SLOAD PUSH2 0x4C2 JUMP JUMPDEST DUP3 SSTORE POP POP POP POP JUMP JUMPDEST PUSH0 SWAP1 JUMP JUMPDEST PUSH2 0x577 PUSH2 0x56B JUMP JUMPDEST PUSH2 0x582 DUP2 DUP5 DUP5 PUSH2 0x546 JUMP JUMPDEST POP POP POP JUMP JUMPDEST JUMPDEST DUP2 DUP2 LT ISZERO PUSH2 0x5A5 JUMPI PUSH2 0x59A PUSH0 DUP3 PUSH2 0x56F JUMP JUMPDEST PUSH1 0x1 DUP2 ADD SWAP1 POP PUSH2 0x588 JUMP JUMPDEST POP POP JUMP JUMPDEST PUSH1 0x1F DUP3 GT ISZERO PUSH2 0x5EA JUMPI PUSH2 0x5BB DUP2 PUSH2 0x495 JUMP JUMPDEST PUSH2 0x5C4 DUP5 PUSH2 0x4A7 JUMP JUMPDEST DUP2 ADD PUSH1 0x20 DUP6 LT ISZERO PUSH2 0x5D3 JUMPI DUP2 SWAP1 POP JUMPDEST PUSH2 0x5E7 PUSH2 0x5DF DUP6 PUSH2 0x4A7 JUMP JUMPDEST DUP4 ADD DUP3 PUSH2 0x587 JUMP JUMPDEST POP POP JUMPDEST POP POP POP JUMP JUMPDEST PUSH0 DUP3 DUP3 SHR SWAP1 POP SWAP3 SWAP2 POP POP JUMP JUMPDEST PUSH0 PUSH2 0x60A PUSH0 NOT DUP5 PUSH1 0x8 MUL PUSH2 0x5EF JUMP JUMPDEST NOT DUP1 DUP4 AND SWAP2 POP POP SWAP3 SWAP2 POP POP JUMP JUMPDEST PUSH0 PUSH2 0x622 DUP4 DUP4 PUSH2 0x5FB JUMP JUMPDEST SWAP2 POP DUP3 PUSH1 0x2 MUL DUP3 OR SWAP1 POP SWAP3 SWAP2 POP POP JUMP JUMPDEST PUSH2 0x63B DUP3 PUSH2 0x42E JUMP JUMPDEST PUSH8 0xFFFFFFFFFFFFFFFF DUP2 GT ISZERO PUSH2 0x654 JUMPI PUSH2 0x653 PUSH2 0x165 JUMP JUMPDEST JUMPDEST PUSH2 0x65E DUP3 SLOAD PUSH2 0x465 JUMP JUMPDEST PUSH2 0x669 DUP3 DUP3 DUP6 PUSH2 0x5A9 JUMP JUMPDEST PUSH0 PUSH1 0x20 SWAP1 POP PUSH1 0x1F DUP4 GT PUSH1 0x1 DUP2 EQ PUSH2 0x69A JUMPI PUSH0 DUP5 ISZERO PUSH2 0x688 JUMPI DUP3 DUP8 ADD MLOAD SWAP1 POP JUMPDEST PUSH2 0x692 DUP6 DUP3 PUSH2 0x617 JUMP JUMPDEST DUP7 SSTORE POP PUSH2 0x6F9 JUMP JUMPDEST PUSH1 0x1F NOT DUP5 AND PUSH2 0x6A8 DUP7 PUSH2 0x495 JUMP JUMPDEST PUSH0 JUMPDEST DUP3 DUP2 LT ISZERO PUSH2 0x6CF JUMPI DUP5 DUP10 ADD MLOAD DUP3 SSTORE PUSH1 0x1 DUP3 ADD SWAP2 POP PUSH1 0x20 DUP6 ADD SWAP5 POP PUSH1 0x20 DUP2 ADD SWAP1 POP PUSH2 0x6AA JUMP JUMPDEST DUP7 DUP4 LT ISZERO PUSH2 0x6EC JUMPI DUP5 DUP10 ADD MLOAD PUSH2 0x6E8 PUSH1 0x1F DUP10 AND DUP3 PUSH2 0x5FB JUMP JUMPDEST DUP4 SSTORE POP JUMPDEST PUSH1 0x1 PUSH1 0x2 DUP9 MUL ADD DUP9 SSTORE POP POP POP JUMPDEST POP POP POP POP POP POP JUMP JUMPDEST PUSH32 0x4E487B7100000000000000000000000000000000000000000000000000000000 PUSH0 MSTORE PUSH1 0x11 PUSH1 0x4 MSTORE PUSH1 0x24 PUSH0 REVERT JUMPDEST PUSH0 PUSH2 0x738 DUP3 PUSH2 0x289 JUMP JUMPDEST SWAP2 POP PUSH2 0x743 DUP4 PUSH2 0x289 JUMP JUMPDEST SWAP3 POP DUP3 DUP3 MUL PUSH2 0x751 DUP2 PUSH2 0x289 JUMP JUMPDEST SWAP2 POP DUP3 DUP3 DIV DUP5 EQ DUP4 ISZERO OR PUSH2 0x768 JUMPI PUSH2 0x767 PUSH2 0x701 JUMP JUMPDEST JUMPDEST POP SWAP3 SWAP2 POP POP JUMP JUMPDEST PUSH0 PUSH2 0x779 DUP3 PUSH2 0x289 JUMP JUMPDEST SWAP2 POP PUSH2 0x784 DUP4 PUSH2 0x289 JUMP JUMPDEST SWAP3 POP DUP3 DUP3 ADD SWAP1 POP DUP1 DUP3 GT ISZERO PUSH2 0x79C JUMPI PUSH2 0x79B PUSH2 0x701 JUMP JUMPDEST JUMPDEST SWAP3 SWAP2 POP POP JUMP JUMPDEST PUSH2 0xB24 DUP1 PUSH2 0x7AF PUSH0 CODECOPY PUSH0 RETURN INVALID PUSH1 0x80 PUSH1 0x40 MSTORE PUSH1 0x4 CALLDATASIZE LT PUSH2 0x85 JUMPI PUSH0 CALLDATALOAD PUSH1 0xE0 SHR DUP1 PUSH4 0x4A79D50C GT PUSH2 0x58 JUMPI DUP1 PUSH4 0x4A79D50C EQ PUSH2 0x143 JUMPI DUP1 PUSH4 0xAC307773 EQ PUSH2 0x16D JUMPI DUP1 PUSH4 0xB2D5AE44 EQ PUSH2 0x183 JUMPI DUP1 PUSH4 0xC5C4744C EQ PUSH2 0x199 JUMPI DUP1 PUSH4 0xD7BB99BA EQ PUSH2 0x1C3 JUMPI PUSH2 0x85 JUMP JUMPDEST DUP1 PUSH4 0x2D05D3F EQ PUSH2 0x89 JUMPI DUP1 PUSH4 0x29DCB0CF EQ PUSH2 0xB3 JUMPI DUP1 PUSH4 0x40193883 EQ PUSH2 0xDD JUMPI DUP1 PUSH4 0x42E94C90 EQ PUSH2 0x107 JUMPI JUMPDEST PUSH0 DUP1 REVERT JUMPDEST CALLVALUE DUP1 ISZERO PUSH2 0x94 JUMPI PUSH0 DUP1 REVERT JUMPDEST POP PUSH2 0x9D PUSH2 0x1CD JUMP JUMPDEST PUSH1 0x40 MLOAD PUSH2 0xAA SWAP2 SWAP1 PUSH2 0x6D6 JUMP JUMPDEST PUSH1 0x40 MLOAD DUP1 SWAP2 SUB SWAP1 RETURN JUMPDEST CALLVALUE DUP1 ISZERO PUSH2 0xBE JUMPI PUSH0 DUP1 REVERT JUMPDEST POP PUSH2 0xC7 PUSH2 0x1F0 JUMP JUMPDEST PUSH1 0x40 MLOAD PUSH2 0xD4 SWAP2 SWAP1 PUSH2 0x707 JUMP JUMPDEST PUSH1 0x40 MLOAD DUP1 SWAP2 SUB SWAP1 RETURN JUMPDEST CALLVALUE DUP1 ISZERO PUSH2 0xE8 JUMPI PUSH0 DUP1 REVERT JUMPDEST POP PUSH2 0xF1 PUSH2 0x1F6 JUMP JUMPDEST PUSH1 0x40 MLOAD PUSH2 0xFE SWAP2 SWAP1 PUSH2 0x707 JUMP JUMPDEST PUSH1 0x40 MLOAD DUP1 SWAP2 SUB SWAP1 RETURN JUMPDEST CALLVALUE DUP1 ISZERO PUSH2 0x112 JUMPI PUSH0 DUP1 REVERT JUMPDEST POP PUSH2 0x12D PUSH1 0x4 DUP1 CALLDATASIZE SUB DUP2 ADD SWAP1 PUSH2 0x128 SWAP2 SWAP1 PUSH2 0x75F JUMP JUMPDEST PUSH2 0x1FC JUMP JUMPDEST PUSH1 0x40 MLOAD PUSH2 0x13A SWAP2 SWAP1 PUSH2 0x707 JUMP JUMPDEST PUSH1 0x40 MLOAD DUP1 SWAP2 SUB SWAP1 RETURN JUMPDEST CALLVALUE DUP1 ISZERO PUSH2 0x14E JUMPI PUSH0 DUP1 REVERT JUMPDEST POP PUSH2 0x157 PUSH2 0x211 JUMP JUMPDEST PUSH1 0x40 MLOAD PUSH2 0x164 SWAP2 SWAP1 PUSH2 0x7FA JUMP JUMPDEST PUSH1 0x40 MLOAD DUP1 SWAP2 SUB SWAP1 RETURN JUMPDEST CALLVALUE DUP1 ISZERO PUSH2 0x178 JUMPI PUSH0 DUP1 REVERT JUMPDEST POP PUSH2 0x181 PUSH2 0x29D JUMP JUMPDEST STOP JUMPDEST CALLVALUE DUP1 ISZERO PUSH2 0x18E JUMPI PUSH0 DUP1 REVERT JUMPDEST POP PUSH2 0x197 PUSH2 0x422 JUMP JUMPDEST STOP JUMPDEST CALLVALUE DUP1 ISZERO PUSH2 0x1A4 JUMPI PUSH0 DUP1 REVERT JUMPDEST POP PUSH2 0x1AD PUSH2 0x5DD JUMP JUMPDEST PUSH1 0x40 MLOAD PUSH2 0x1BA SWAP2 SWAP1 PUSH2 0x707 JUMP JUMPDEST PUSH1 0x40 MLOAD DUP1 SWAP2 SUB SWAP1 RETURN JUMPDEST PUSH2 0x1CB PUSH2 0x5E3 JUMP JUMPDEST STOP JUMPDEST PUSH0 DUP1 SLOAD SWAP1 PUSH2 0x100 EXP SWAP1 DIV PUSH20 0xFFFFFFFFFFFFFFFFFFFFFFFFFFFFFFFFFFFFFFFF AND DUP2 JUMP JUMPDEST PUSH1 0x3 SLOAD DUP2 JUMP JUMPDEST PUSH1 0x2 SLOAD DUP2 JUMP JUMPDEST PUSH1 0x5 PUSH1 0x20 MSTORE DUP1 PUSH0 MSTORE PUSH1 0x40 PUSH0 KECCAK256 PUSH0 SWAP2 POP SWAP1 POP SLOAD DUP2 JUMP JUMPDEST PUSH1 0x1 DUP1 SLOAD PUSH2 0x21E SWAP1 PUSH2 0x847 JUMP JUMPDEST DUP1 PUSH1 0x1F ADD PUSH1 0x20 DUP1 SWAP2 DIV MUL PUSH1 0x20 ADD PUSH1 0x40 MLOAD SWAP1 DUP2 ADD PUSH1 0x40 MSTORE DUP1 SWAP3 SWAP2 SWAP1 DUP2 DUP2 MSTORE PUSH1 0x20 ADD DUP3 DUP1 SLOAD PUSH2 0x24A SWAP1 PUSH2 0x847 JUMP JUMPDEST DUP1 ISZERO PUSH2 0x295 JUMPI DUP1 PUSH1 0x1F LT PUSH2 0x26C JUMPI PUSH2 0x100 DUP1 DUP4 SLOAD DIV MUL DUP4 MSTORE SWAP2 PUSH1 0x20 ADD SWAP2 PUSH2 0x295 JUMP JUMPDEST DUP3 ADD SWAP2 SWAP1 PUSH0 MSTORE PUSH1 0x20 PUSH0 KECCAK256 SWAP1 JUMPDEST DUP2 SLOAD DUP2 MSTORE SWAP1 PUSH1 0x1 ADD SWAP1 PUSH1 0x20 ADD DUP1 DUP4 GT PUSH2 0x278 JUMPI DUP3 SWAP1 SUB PUSH1 0x1F AND DUP3 ADD SWAP2 JUMPDEST POP POP POP POP POP DUP2 JUMP JUMPDEST PUSH0 DUP1 SLOAD SWAP1 PUSH2 0x100 EXP SWAP1 DIV PUSH20 0xFFFFFFFFFFFFFFFFFFFFFFFFFFFFFFFFFFFFFFFF AND PUSH20 0xFFFFFFFFFFFFFFFFFFFFFFFFFFFFFFFFFFFFFFFF AND CALLER PUSH20 0xFFFFFFFFFFFFFFFFFFFFFFFFFFFFFFFFFFFFFFFF AND EQ PUSH2 0x2F3 JUMPI PUSH0 DUP1 REVERT JUMPDEST PUSH1 0x2 SLOAD PUSH1 0x4 SLOAD LT ISZERO PUSH2 0x303 JUMPI PUSH0 DUP1 REVERT JUMPDEST PUSH1 0x3 SLOAD TIMESTAMP GT PUSH2 0x310 JUMPI PUSH0 DUP1 REVERT JUMPDEST PUSH0 SELFBALANCE GT PUSH2 0x352 JUMPI PUSH1 0x40 MLOAD PUSH32 0x8C379A000000000000000000000000000000000000000000000000000000000 DUP2 MSTORE PUSH1 0x4 ADD PUSH2 0x349 SWAP1 PUSH2 0x8C1 JUMP JUMPDEST PUSH1 0x40 MLOAD DUP1 SWAP2 SUB SWAP1 REVERT JUMPDEST PUSH0 SELFBALANCE SWAP1 POP PUSH0 DUP1 PUSH0 SWAP1 SLOAD SWAP1 PUSH2 0x100 EXP SWAP1 DIV PUSH20 0xFFFFFFFFFFFFFFFFFFFFFFFFFFFFFFFFFFFFFFFF AND PUSH20 0xFFFFFFFFFFFFFFFFFFFFFFFFFFFFFFFFFFFFFFFF AND DUP3 PUSH1 0x40 MLOAD PUSH2 0x39B SWAP1 PUSH2 0x90C JUMP JUMPDEST PUSH0 PUSH1 0x40 MLOAD DUP1 DUP4 SUB DUP2 DUP6 DUP8 GAS CALL SWAP3 POP POP POP RETURNDATASIZE DUP1 PUSH0 DUP2 EQ PUSH2 0x3D5 JUMPI PUSH1 0x40 MLOAD SWAP2 POP PUSH1 0x1F NOT PUSH1 0x3F RETURNDATASIZE ADD AND DUP3 ADD PUSH1 0x40 MSTORE RETURNDATASIZE DUP3 MSTORE RETURNDATASIZE PUSH0 PUSH1 0x20 DUP5 ADD RETURNDATACOPY PUSH2 0x3DA JUMP JUMPDEST PUSH1 0x60 SWAP2 POP JUMPDEST POP POP SWAP1 POP DUP1 PUSH2 0x41E JUMPI PUSH1 0x40 MLOAD PUSH32 0x8C379A000000000000000000000000000000000000000000000000000000000 DUP2 MSTORE PUSH1 0x4 ADD PUSH2 0x415 SWAP1 PUSH2 0x96A JUMP JUMPDEST PUSH1 0x40 MLOAD DUP1 SWAP2 SUB SWAP1 REVERT JUMPDEST POP POP JUMP JUMPDEST PUSH1 0x3 SLOAD TIMESTAMP GT PUSH2 0x42F JUMPI PUSH0 DUP1 REVERT JUMPDEST PUSH0 PUSH1 0x5 PUSH0 CALLER PUSH20 0xFFFFFFFFFFFFFFFFFFFFFFFFFFFFFFFFFFFFFFFF AND PUSH20 0xFFFFFFFFFFFFFFFFFFFFFFFFFFFFFFFFFFFFFFFF AND DUP2 MSTORE PUSH1 0x20 ADD SWAP1 DUP2 MSTORE PUSH1 0x20 ADD PUSH0 KECCAK256 SLOAD GT PUSH2 0x4AE JUMPI PUSH1 0x40 MLOAD PUSH32 0x8C379A000000000000000000000000000000000000000000000000000000000 DUP2 MSTORE PUSH1 0x4 ADD PUSH2 0x4A5 SWAP1 PUSH2 0x9D2 JUMP JUMPDEST PUSH1 0x40 MLOAD DUP1 SWAP2 SUB SWAP1 REVERT JUMPDEST PUSH0 PUSH1 0x5 PUSH0 CALLER PUSH20 0xFFFFFFFFFFFFFFFFFFFFFFFFFFFFFFFFFFFFFFFF AND PUSH20 0xFFFFFFFFFFFFFFFFFFFFFFFFFFFFFFFFFFFFFFFF AND DUP2 MSTORE PUSH1 0x20 ADD SWAP1 DUP2 MSTORE PUSH1 0x20 ADD PUSH0 KECCAK256 SLOAD SWAP1 POP PUSH0 PUSH1 0x5 PUSH0 CALLER PUSH20 0xFFFFFFFFFFFFFFFFFFFFFFFFFFFFFFFFFFFFFFFF AND PUSH20 0xFFFFFFFFFFFFFFFFFFFFFFFFFFFFFFFFFFFFFFFF AND DUP2 MSTORE PUSH1 0x20 ADD SWAP1 DUP2 MSTORE PUSH1 0x20 ADD PUSH0 KECCAK256 DUP2 SWAP1 SSTORE POP PUSH0 CALLER PUSH20 0xFFFFFFFFFFFFFFFFFFFFFFFFFFFFFFFFFFFFFFFF AND DUP3 PUSH1 0x40 MLOAD PUSH2 0x556 SWAP1 PUSH2 0x90C JUMP JUMPDEST PUSH0 PUSH1 0x40 MLOAD DUP1 DUP4 SUB DUP2 DUP6 DUP8 GAS CALL SWAP3 POP POP POP RETURNDATASIZE DUP1 PUSH0 DUP2 EQ PUSH2 0x590 JUMPI PUSH1 0x40 MLOAD SWAP2 POP PUSH1 0x1F NOT PUSH1 0x3F RETURNDATASIZE ADD AND DUP3 ADD PUSH1 0x40 MSTORE RETURNDATASIZE DUP3 MSTORE RETURNDATASIZE PUSH0 PUSH1 0x20 DUP5 ADD RETURNDATACOPY PUSH2 0x595 JUMP JUMPDEST PUSH1 0x60 SWAP2 POP JUMPDEST POP POP SWAP1 POP DUP1 PUSH2 0x5D9 JUMPI PUSH1 0x40 MLOAD PUSH32 0x8C379A000000000000000000000000000000000000000000000000000000000 DUP2 MSTORE PUSH1 0x4 ADD PUSH2 0x5D0 SWAP1 PUSH2 0xA3A JUMP JUMPDEST PUSH1 0x40 MLOAD DUP1 SWAP2 SUB SWAP1 REVERT JUMPDEST POP POP JUMP JUMPDEST PUSH1 0x4 SLOAD DUP2 JUMP JUMPDEST PUSH1 0x3 SLOAD TIMESTAMP GT ISZERO PUSH2 0x5F1 JUMPI PUSH0 DUP1 REVERT JUMPDEST CALLVALUE PUSH1 0x5 PUSH0 CALLER PUSH20 0xFFFFFFFFFFFFFFFFFFFFFFFFFFFFFFFFFFFFFFFF AND PUSH20 0xFFFFFFFFFFFFFFFFFFFFFFFFFFFFFFFFFFFFFFFF AND DUP2 MSTORE PUSH1 0x20 ADD SWAP1 DUP2 MSTORE PUSH1 0x20 ADD PUSH0 KECCAK256 PUSH0 DUP3 DUP3 SLOAD PUSH2 0x63D SWAP2 SWAP1 PUSH2 0xA85 JUMP JUMPDEST SWAP3 POP POP DUP2 SWAP1 SSTORE POP CALLVALUE PUSH1 0x4 PUSH0 DUP3 DUP3 SLOAD PUSH2 0x655 SWAP2 SWAP1 PUSH2 0xA85 JUMP JUMPDEST SWAP3 POP POP DUP2 SWAP1 SSTORE POP PUSH32 0x1BB460CCAAF70FBACFEC17A376F8ACBD278C1405590FFCC8EBE4B88DAF4F64AD CALLER CALLVALUE PUSH1 0x40 MLOAD PUSH2 0x68D SWAP3 SWAP2 SWAP1 PUSH2 0xAC7 JUMP JUMPDEST PUSH1 0x40 MLOAD DUP1 SWAP2 SUB SWAP1 LOG1 JUMP JUMPDEST PUSH0 PUSH20 0xFFFFFFFFFFFFFFFFFFFFFFFFFFFFFFFFFFFFFFFF DUP3 AND SWAP1 POP SWAP2 SWAP1 POP JUMP JUMPDEST PUSH0 PUSH2 0x6C0 DUP3 PUSH2 0x697 JUMP JUMPDEST SWAP1 POP SWAP2 SWAP1 POP JUMP JUMPDEST PUSH2 0x6D0 DUP2 PUSH2 0x6B6 JUMP JUMPDEST DUP3 MSTORE POP POP JUMP JUMPDEST PUSH0 PUSH1 0x20 DUP3 ADD SWAP1 POP PUSH2 0x6E9 PUSH0 DUP4 ADD DUP5 PUSH2 0x6C7 JUMP JUMPDEST SWAP3 SWAP2 POP POP JUMP JUMPDEST PUSH0 DUP2 SWAP1 POP SWAP2 SWAP1 POP JUMP JUMPDEST PUSH2 0x701 DUP2 PUSH2 0x6EF JUMP JUMPDEST DUP3 MSTORE POP POP JUMP JUMPDEST PUSH0 PUSH1 0x20 DUP3 ADD SWAP1 POP PUSH2 0x71A PUSH0 DUP4 ADD DUP5 PUSH2 0x6F8 JUMP JUMPDEST SWAP3 SWAP2 POP POP JUMP JUMPDEST PUSH0 DUP1 REVERT JUMPDEST PUSH0 PUSH2 0x72E DUP3 PUSH2 0x697 JUMP JUMPDEST SWAP1 POP SWAP2 SWAP1 POP JUMP JUMPDEST PUSH2 0x73E DUP2 PUSH2 0x724 JUMP JUMPDEST DUP2 EQ PUSH2 0x748 JUMPI PUSH0 DUP1 REVERT JUMPDEST POP JUMP JUMPDEST PUSH0 DUP2 CALLDATALOAD SWAP1 POP PUSH2 0x759 DUP2 PUSH2 0x735 JUMP JUMPDEST SWAP3 SWAP2 POP POP JUMP JUMPDEST PUSH0 PUSH1 0x20 DUP3 DUP5 SUB SLT ISZERO PUSH2 0x774 JUMPI PUSH2 0x773 PUSH2 0x720 JUMP JUMPDEST JUMPDEST PUSH0 PUSH2 0x781 DUP5 DUP3 DUP6 ADD PUSH2 0x74B JUMP JUMPDEST SWAP2 POP POP SWAP3 SWAP2 POP POP JUMP JUMPDEST PUSH0 DUP2 MLOAD SWAP1 POP SWAP2 SWAP1 POP JUMP JUMPDEST PUSH0 DUP3 DUP3 MSTORE PUSH1 0x20 DUP3 ADD SWAP1 POP SWAP3 SWAP2 POP POP JUMP JUMPDEST DUP3 DUP2 DUP4 MCOPY PUSH0 DUP4 DUP4 ADD MSTORE POP POP POP JUMP JUMPDEST PUSH0 PUSH1 0x1F NOT PUSH1 0x1F DUP4 ADD AND SWAP1 POP SWAP2 SWAP1 POP JUMP JUMPDEST PUSH0 PUSH2 0x7CC DUP3 PUSH2 0x78A JUMP JUMPDEST PUSH2 0x7D6 DUP2 DUP6 PUSH2 0x794 JUMP JUMPDEST SWAP4 POP PUSH2 0x7E6 DUP2 DUP6 PUSH1 0x20 DUP7 ADD PUSH2 0x7A4 JUMP JUMPDEST PUSH2 0x7EF DUP2 PUSH2 0x7B2 JUMP JUMPDEST DUP5 ADD SWAP2 POP POP SWAP3 SWAP2 POP POP JUMP JUMPDEST PUSH0 PUSH1 0x20 DUP3 ADD SWAP1 POP DUP2 DUP2 SUB PUSH0 DUP4 ADD MSTORE PUSH2 0x812 DUP2 DUP5 PUSH2 0x7C2 JUMP JUMPDEST SWAP1 POP SWAP3 SWAP2 POP POP JUMP JUMPDEST PUSH32 0x4E487B7100000000000000000000000000000000000000000000000000000000 PUSH0 MSTORE PUSH1 0x22 PUSH1 0x4 MSTORE PUSH1 0x24 PUSH0 REVERT JUMPDEST PUSH0 PUSH1 0x2 DUP3 DIV SWAP1 POP PUSH1 0x1 DUP3 AND DUP1 PUSH2 0x85E JUMPI PUSH1 0x7F DUP3 AND SWAP2 POP JUMPDEST PUSH1 0x20 DUP3 LT DUP2 SUB PUSH2 0x871 JUMPI PUSH2 0x870 PUSH2 0x81A JUMP JUMPDEST JUMPDEST POP SWAP2 SWAP1 POP JUMP JUMPDEST PUSH32 0x4E6F2066756E647320746F20636C61696D000000000000000000000000000000 PUSH0 DUP3 ADD MSTORE POP JUMP JUMPDEST PUSH0 PUSH2 0x8AB PUSH1 0x11 DUP4 PUSH2 0x794 JUMP JUMPDEST SWAP2 POP PUSH2 0x8B6 DUP3 PUSH2 0x877 JUMP JUMPDEST PUSH1 0x20 DUP3 ADD SWAP1 POP SWAP2 SWAP1 POP JUMP JUMPDEST PUSH0 PUSH1 0x20 DUP3 ADD SWAP1 POP DUP2 DUP2 SUB PUSH0 DUP4 ADD MSTORE PUSH2 0x8D8 DUP2 PUSH2 0x89F JUMP JUMPDEST SWAP1 POP SWAP2 SWAP1 POP JUMP JUMPDEST PUSH0 DUP2 SWAP1 POP SWAP3 SWAP2 POP POP JUMP JUMPDEST POP JUMP JUMPDEST PUSH0 PUSH2 0x8F7 PUSH0 DUP4 PUSH2 0x8DF JUMP JUMPDEST SWAP2 POP PUSH2 0x902 DUP3 PUSH2 0x8E9 JUMP JUMPDEST PUSH0 DUP3 ADD SWAP1 POP SWAP2 SWAP1 POP JUMP JUMPDEST PUSH0 PUSH2 0x916 DUP3 PUSH2 0x8EC JUMP JUMPDEST SWAP2 POP DUP2 SWAP1 POP SWAP2 SWAP1 POP JUMP JUMPDEST PUSH32 0x5472616E73666572206661696C65640000000000000000000000000000000000 PUSH0 DUP3 ADD MSTORE POP JUMP JUMPDEST PUSH0 PUSH2 0x954 PUSH1 0xF DUP4 PUSH2 0x794 JUMP JUMPDEST SWAP2 POP PUSH2 0x95F DUP3 PUSH2 0x920 JUMP JUMPDEST PUSH1 0x20 DUP3 ADD SWAP1 POP SWAP2 SWAP1 POP JUMP JUMPDEST PUSH0 PUSH1 0x20 DUP3 ADD SWAP1 POP DUP2 DUP2 SUB PUSH0 DUP4 ADD MSTORE PUSH2 0x981 DUP2 PUSH2 0x948 JUMP JUMPDEST SWAP1 POP SWAP2 SWAP1 POP JUMP JUMPDEST PUSH32 0x4E6F20636F6E747269627574696F6E20666F756E640000000000000000000000 PUSH0 DUP3 ADD MSTORE POP JUMP JUMPDEST PUSH0 PUSH2 0x9BC PUSH1 0x15 DUP4 PUSH2 0x794 JUMP JUMPDEST SWAP2 POP PUSH2 0x9C7 DUP3 PUSH2 0x988 JUMP JUMPDEST PUSH1 0x20 DUP3 ADD SWAP1 POP SWAP2 SWAP1 POP JUMP JUMPDEST PUSH0 PUSH1 0x20 DUP3 ADD SWAP1 POP DUP2 DUP2 SUB PUSH0 DUP4 ADD MSTORE PUSH2 0x9E9 DUP2 PUSH2 0x9B0 JUMP JUMPDEST SWAP1 POP SWAP2 SWAP1 POP JUMP JUMPDEST PUSH32 0x526566756E64206661696C656400000000000000000000000000000000000000 PUSH0 DUP3 ADD MSTORE POP JUMP JUMPDEST PUSH0 PUSH2 0xA24 PUSH1 0xD DUP4 PUSH2 0x794 JUMP JUMPDEST SWAP2 POP PUSH2 0xA2F DUP3 PUSH2 0x9F0 JUMP JUMPDEST PUSH1 0x20 DUP3 ADD SWAP1 POP SWAP2 SWAP1 POP JUMP JUMPDEST PUSH0 PUSH1 0x20 DUP3 ADD SWAP1 POP DUP2 DUP2 SUB PUSH0 DUP4 ADD MSTORE PUSH2 0xA51 DUP2 PUSH2 0xA18 JUMP JUMPDEST SWAP1 POP SWAP2 SWAP1 POP JUMP JUMPDEST PUSH32 0x4E487B7100000000000000000000000000000000000000000000000000000000 PUSH0 MSTORE PUSH1 0x11 PUSH1 0x4 MSTORE PUSH1 0x24 PUSH0 REVERT JUMPDEST PUSH0 PUSH2 0xA8F DUP3 PUSH2 0x6EF JUMP JUMPDEST SWAP2 POP PUSH2 0xA9A DUP4 PUSH2 0x6EF JUMP JUMPDEST SWAP3 POP DUP3 DUP3 ADD SWAP1 POP DUP1 DUP3 GT ISZERO PUSH2 0xAB2 JUMPI PUSH2 0xAB1 PUSH2 0xA58 JUMP JUMPDEST JUMPDEST SWAP3 SWAP2 POP POP JUMP JUMPDEST PUSH2 0xAC1 DUP2 PUSH2 0x724 JUMP JUMPDEST DUP3 MSTORE POP POP JUMP JUMPDEST PUSH0 PUSH1 0x40 DUP3 ADD SWAP1 POP PUSH2 0xADA PUSH0 DUP4 ADD DUP6 PUSH2 0xAB8 JUMP JUMPDEST PUSH2 0xAE7 PUSH1 0x20 DUP4 ADD DUP5 PUSH2 0x6F8 JUMP JUMPDEST SWAP4 SWAP3 POP POP POP JUMP INVALID LOG2 PUSH5 0x6970667358 0x22 SLT KECCAK256 CALLDATASIZE 0xC9 0xDD ADDRESS MSIZE 0xFC 0xC4 0xD9 0xC7 SWAP12 DUP8 PUSH0 TSTORE DUP13 PUSH15 0x7C00978DFF1E1E93C1050551126BD1 ORIGIN 0xC7 PUSH5 0x736F6C6343 STOP ADDMOD BYTE STOP CALLER "
				},
				"gasEstimates": {
					"creation": {
						"codeDepositCost": "570400",
						"executionCost": "infinite",
						"totalCost": "infinite"
					},
					"external": {
						"claimFunds()": "infinite",
						"contribute()": "infinite",
						"contributions(address)": "2869",
						"creator()": "2506",
						"deadline()": "2448",
						"getRefund()": "infinite",
						"goal()": "2470",
						"title()": "infinite",
						"totalRaised()": "2491"
					}
				},
				"methodIdentifiers": {
					"claimFunds()": "ac307773",
					"contribute()": "d7bb99ba",
					"contributions(address)": "42e94c90",
					"creator()": "02d05d3f",
					"deadline()": "29dcb0cf",
					"getRefund()": "b2d5ae44",
					"goal()": "40193883",
					"title()": "4a79d50c",
					"totalRaised()": "c5c4744c"
				}
			},
			"storageLayout": {
				"storage": [
					{
						"astId": 3,
						"contract": "contracts/crowdfunding.sol:Campaign",
						"label": "creator",
						"offset": 0,
						"slot": "0",
						"type": "t_address_payable"
					},
					{
						"astId": 5,
						"contract": "contracts/crowdfunding.sol:Campaign",
						"label": "title",
						"offset": 0,
						"slot": "1",
						"type": "t_string_storage"
					},
					{
						"astId": 7,
						"contract": "contracts/crowdfunding.sol:Campaign",
						"label": "goal",
						"offset": 0,
						"slot": "2",
						"type": "t_uint256"
					},
					{
						"astId": 9,
						"contract": "contracts/crowdfunding.sol:Campaign",
						"label": "deadline",
						"offset": 0,
						"slot": "3",
						"type": "t_uint256"
					},
					{
						"astId": 11,
						"contract": "contracts/crowdfunding.sol:Campaign",
						"label": "totalRaised",
						"offset": 0,
						"slot": "4",
						"type": "t_uint256"
					},
					{
						"astId": 15,
						"contract": "contracts/crowdfunding.sol:Campaign",
						"label": "contributions",
						"offset": 0,
						"slot": "5",
						"type": "t_mapping(t_address,t_uint256)"
					}
				],
				"types": {
					"t_address": {
						"encoding": "inplace",
						"label": "address",
						"numberOfBytes": "20"
					},
					"t_address_payable": {
						"encoding": "inplace",
						"label": "address payable",
						"numberOfBytes": "20"
					},
					"t_mapping(t_address,t_uint256)": {
						"encoding": "mapping",
						"key": "t_address",
						"label": "mapping(address => uint256)",
						"numberOfBytes": "32",
						"value": "t_uint256"
					},
					"t_string_storage": {
						"encoding": "bytes",
						"label": "string",
						"numberOfBytes": "32"
					},
					"t_uint256": {
						"encoding": "inplace",
						"label": "uint256",
						"numberOfBytes": "32"
					}
				}
			},
			"userdoc": {
				"kind": "user",
				"methods": {},
				"version": 1
			}
		}
	}
}