{
	"contracts/crowdfunding.sol": {
		"Campaign": {
			"abi": [
				{
					"inputs": [
						{
							"internalType": "string",
							"name": "_title",
							"type": "string"
						},
						{
							"internalType": "uint256",
							"name": "_goal",
							"type": "uint256"
						},
						{
							"internalType": "uint256",
							"name": "_durationInDays",
							"type": "uint256"
						}
					],
					"stateMutability": "nonpayable",
					"type": "constructor"
				},
				{
					"anonymous": false,
					"inputs": [
						{
							"indexed": false,
							"internalType": "address",
							"name": "contributor",
							"type": "address"
						},
						{
							"indexed": false,
							"internalType": "uint256",
							"name": "amount",
							"type": "uint256"
						}
					],
					"name": "ContributionReceived",
					"type": "event"
				},
				{
					"inputs": [],
					"name": "campaignActive",
					"outputs": [
						{
							"internalType": "bool",
							"name": "",
							"type": "bool"
						}
					],
					"stateMutability": "view",
					"type": "function"
				},
				{
					"inputs": [],
					"name": "claimFunds",
					"outputs": [],
					"stateMutability": "nonpayable",
					"type": "function"
				},
				{
					"inputs": [],
					"name": "contribute",
					"outputs": [],
					"stateMutability": "payable",
					"type": "function"
				},
				{
					"inputs": [
						{
							"internalType": "address",
							"name": "",
							"type": "address"
						}
					],
					"name": "contributions",
					"outputs": [
						{
							"internalType": "uint256",
							"name": "",
							"type": "uint256"
						}
					],
					"stateMutability": "view",
					"type": "function"
				},
				{
					"inputs": [],
					"name": "creator",
					"outputs": [
						{
							"internalType": "address payable",
							"name": "",
							"type": "address"
						}
					],
					"stateMutability": "view",
					"type": "function"
				},
				{
					"inputs": [],
					"name": "deadline",
					"outputs": [
						{
							"internalType": "uint256",
							"name": "",
							"type": "uint256"
						}
					],
					"stateMutability": "view",
					"type": "function"
				},
				{
					"inputs": [],
					"name": "getRefund",
					"outputs": [],
					"stateMutability": "nonpayable",
					"type": "function"
				},
				{
					"inputs": [],
					"name": "goal",
					"outputs": [
						{
							"internalType": "uint256",
							"name": "",
							"type": "uint256"
						}
					],
					"stateMutability": "view",
					"type": "function"
				},
				{
					"inputs": [],
					"name": "goalReached",
					"outputs": [
						{
							"internalType": "bool",
							"name": "",
							"type": "bool"
						}
					],
					"stateMutability": "view",
					"type": "function"
				},
				{
					"inputs": [],
					"name": "title",
					"outputs": [
						{
							"internalType": "string",
							"name": "",
							"type": "string"
						}
					],
					"stateMutability": "view",
					"type": "function"
				},
				{
					"inputs": [],
					"name": "totalRaised",
					"outputs": [
						{
							"internalType": "uint256",
							"name": "",
							"type": "uint256"
						}
					],
					"stateMutability": "view",
					"type": "function"
				}
			],
			"devdoc": {
				"kind": "dev",
				"methods": {},
				"version": 1
			},
			"evm": {
				"assembly": "    /* \"contracts/crowdfunding.sol\":59:2388  contract Campaign {... */\n  mstore(0x40, 0x80)\n    /* \"contracts/crowdfunding.sol\":450:1024  constructor(... */\n  callvalue\n  dup1\n  iszero\n  tag_1\n  jumpi\n  0x00\n  dup1\n  revert\ntag_1:\n  pop\n  mload(0x40)\n  sub(codesize, bytecodeSize)\n  dup1\n  bytecodeSize\n  dup4\n  codecopy\n  dup2\n  dup2\n  add\n  0x40\n  mstore\n  dup2\n  add\n  swap1\n  tag_2\n  swap2\n  swap1\n  tag_3\n  jump\t// in\ntag_2:\n    /* \"contracts/crowdfunding.sol\":640:641  0 */\n  0x00\n    /* \"contracts/crowdfunding.sol\":632:637  _goal */\n  dup3\n    /* \"contracts/crowdfunding.sol\":632:641  _goal > 0 */\n  gt\n    /* \"contracts/crowdfunding.sol\":624:676  require(_goal > 0, \"Goal must be greater than zero\") */\n  tag_6\n  jumpi\n  mload(0x40)\n  0x08c379a000000000000000000000000000000000000000000000000000000000\n  dup2\n  mstore\n  0x04\n  add\n  tag_7\n  swap1\n  tag_8\n  jump\t// in\ntag_7:\n  mload(0x40)\n  dup1\n  swap2\n  sub\n  swap1\n  revert\ntag_6:\n    /* \"contracts/crowdfunding.sol\":713:714  1 */\n  0x01\n    /* \"contracts/crowdfunding.sol\":694:709  _durationInDays */\n  dup2\n    /* \"contracts/crowdfunding.sol\":694:714  _durationInDays >= 1 */\n  lt\n  iszero\n    /* \"contracts/crowdfunding.sol\":686:755  require(_durationInDays >= 1, \"Campaign must run for at least 1 day\") */\n  tag_9\n  jumpi\n  mload(0x40)\n  0x08c379a000000000000000000000000000000000000000000000000000000000\n  dup2\n  mstore\n  0x04\n  add\n  tag_10\n  swap1\n  tag_11\n  jump\t// in\ntag_10:\n  mload(0x40)\n  dup1\n  swap2\n  sub\n  swap1\n  revert\ntag_9:\n    /* \"contracts/crowdfunding.sol\":785:795  msg.sender */\n  caller\n    /* \"contracts/crowdfunding.sol\":767:774  creator */\n  0x00\n  dup1\n    /* \"contracts/crowdfunding.sol\":767:796  creator = payable(msg.sender) */\n  0x0100\n  exp\n  dup2\n  sload\n  dup2\n  0xffffffffffffffffffffffffffffffffffffffff\n  mul\n  not\n  and\n  swap1\n  dup4\n  0xffffffffffffffffffffffffffffffffffffffff\n  and\n  mul\n  or\n  swap1\n  sstore\n  pop\n    /* \"contracts/crowdfunding.sol\":868:874  _title */\n  dup3\n    /* \"contracts/crowdfunding.sol\":860:865  title */\n  0x01\n    /* \"contracts/crowdfunding.sol\":860:874  title = _title */\n  swap1\n  dup2\n  tag_12\n  swap2\n  swap1\n  tag_13\n  jump\t// in\ntag_12:\n  pop\n    /* \"contracts/crowdfunding.sol\":891:896  _goal */\n  dup2\n    /* \"contracts/crowdfunding.sol\":884:888  goal */\n  0x02\n    /* \"contracts/crowdfunding.sol\":884:896  goal = _goal */\n  dup2\n  swap1\n  sstore\n  pop\n    /* \"contracts/crowdfunding.sol\":954:960  1 days */\n  0x015180\n    /* \"contracts/crowdfunding.sol\":936:951  _durationInDays */\n  dup2\n    /* \"contracts/crowdfunding.sol\":936:960  _durationInDays * 1 days */\n  tag_14\n  swap2\n  swap1\n  tag_15\n  jump\t// in\ntag_14:\n    /* \"contracts/crowdfunding.sol\":917:932  block.timestamp */\n  timestamp\n    /* \"contracts/crowdfunding.sol\":917:961  block.timestamp + (_durationInDays * 1 days) */\n  tag_16\n  swap2\n  swap1\n  tag_17\n  jump\t// in\ntag_16:\n    /* \"contracts/crowdfunding.sol\":906:914  deadline */\n  0x03\n    /* \"contracts/crowdfunding.sol\":906:961  deadline = block.timestamp + (_durationInDays * 1 days) */\n  dup2\n  swap1\n  sstore\n  pop\n    /* \"contracts/crowdfunding.sol\":1012:1013  0 */\n  0x00\n    /* \"contracts/crowdfunding.sol\":998:1009  totalRaised */\n  0x04\n    /* \"contracts/crowdfunding.sol\":998:1013  totalRaised = 0 */\n  dup2\n  swap1\n  sstore\n  pop\n    /* \"contracts/crowdfunding.sol\":450:1024  constructor(... */\n  pop\n  pop\n  pop\n    /* \"contracts/crowdfunding.sol\":59:2388  contract Campaign {... */\n  jump(tag_18)\n    /* \"#utility.yul\":7:82   */\ntag_19:\n    /* \"#utility.yul\":40:46   */\n  0x00\n    /* \"#utility.yul\":73:75   */\n  0x40\n    /* \"#utility.yul\":67:76   */\n  mload\n    /* \"#utility.yul\":57:76   */\n  swap1\n  pop\n    /* \"#utility.yul\":7:82   */\n  swap1\n  jump\t// out\n    /* \"#utility.yul\":88:205   */\ntag_20:\n    /* \"#utility.yul\":197:198   */\n  0x00\n    /* \"#utility.yul\":194:195   */\n  dup1\n    /* \"#utility.yul\":187:199   */\n  revert\n    /* \"#utility.yul\":211:328   */\ntag_21:\n    /* \"#utility.yul\":320:321   */\n  0x00\n    /* \"#utility.yul\":317:318   */\n  dup1\n    /* \"#utility.yul\":310:322   */\n  revert\n    /* \"#utility.yul\":334:451   */\ntag_22:\n    /* \"#utility.yul\":443:444   */\n  0x00\n    /* \"#utility.yul\":440:441   */\n  dup1\n    /* \"#utility.yul\":433:445   */\n  revert\n    /* \"#utility.yul\":457:574   */\ntag_23:\n    /* \"#utility.yul\":566:567   */\n  0x00\n    /* \"#utility.yul\":563:564   */\n  dup1\n    /* \"#utility.yul\":556:568   */\n  revert\n    /* \"#utility.yul\":580:682   */\ntag_24:\n    /* \"#utility.yul\":621:627   */\n  0x00\n    /* \"#utility.yul\":672:674   */\n  0x1f\n    /* \"#utility.yul\":668:675   */\n  not\n    /* \"#utility.yul\":663:665   */\n  0x1f\n    /* \"#utility.yul\":656:661   */\n  dup4\n    /* \"#utility.yul\":652:666   */\n  add\n    /* \"#utility.yul\":648:676   */\n  and\n    /* \"#utility.yul\":638:676   */\n  swap1\n  pop\n    /* \"#utility.yul\":580:682   */\n  swap2\n  swap1\n  pop\n  jump\t// out\n    /* \"#utility.yul\":688:868   */\ntag_25:\n    /* \"#utility.yul\":736:813   */\n  0x4e487b7100000000000000000000000000000000000000000000000000000000\n    /* \"#utility.yul\":733:734   */\n  0x00\n    /* \"#utility.yul\":726:814   */\n  mstore\n    /* \"#utility.yul\":833:837   */\n  0x41\n    /* \"#utility.yul\":830:831   */\n  0x04\n    /* \"#utility.yul\":823:838   */\n  mstore\n    /* \"#utility.yul\":857:861   */\n  0x24\n    /* \"#utility.yul\":854:855   */\n  0x00\n    /* \"#utility.yul\":847:862   */\n  revert\n    /* \"#utility.yul\":874:1155   */\ntag_26:\n    /* \"#utility.yul\":957:984   */\n  tag_68\n    /* \"#utility.yul\":979:983   */\n  dup3\n    /* \"#utility.yul\":957:984   */\n  tag_24\n  jump\t// in\ntag_68:\n    /* \"#utility.yul\":949:955   */\n  dup2\n    /* \"#utility.yul\":945:985   */\n  add\n    /* \"#utility.yul\":1087:1093   */\n  dup2\n    /* \"#utility.yul\":1075:1085   */\n  dup2\n    /* \"#utility.yul\":1072:1094   */\n  lt\n    /* \"#utility.yul\":1051:1069   */\n  0xffffffffffffffff\n    /* \"#utility.yul\":1039:1049   */\n  dup3\n    /* \"#utility.yul\":1036:1070   */\n  gt\n    /* \"#utility.yul\":1033:1095   */\n  or\n    /* \"#utility.yul\":1030:1118   */\n  iszero\n  tag_69\n  jumpi\n    /* \"#utility.yul\":1098:1116   */\n  tag_70\n  tag_25\n  jump\t// in\ntag_70:\n    /* \"#utility.yul\":1030:1118   */\ntag_69:\n    /* \"#utility.yul\":1138:1148   */\n  dup1\n    /* \"#utility.yul\":1134:1136   */\n  0x40\n    /* \"#utility.yul\":1127:1149   */\n  mstore\n    /* \"#utility.yul\":917:1155   */\n  pop\n    /* \"#utility.yul\":874:1155   */\n  pop\n  pop\n  jump\t// out\n    /* \"#utility.yul\":1161:1290   */\ntag_27:\n    /* \"#utility.yul\":1195:1201   */\n  0x00\n    /* \"#utility.yul\":1222:1242   */\n  tag_72\n  tag_19\n  jump\t// in\ntag_72:\n    /* \"#utility.yul\":1212:1242   */\n  swap1\n  pop\n    /* \"#utility.yul\":1251:1284   */\n  tag_73\n    /* \"#utility.yul\":1279:1283   */\n  dup3\n    /* \"#utility.yul\":1271:1277   */\n  dup3\n    /* \"#utility.yul\":1251:1284   */\n  tag_26\n  jump\t// in\ntag_73:\n    /* \"#utility.yul\":1161:1290   */\n  swap2\n  swap1\n  pop\n  jump\t// out\n    /* \"#utility.yul\":1296:1604   */\ntag_28:\n    /* \"#utility.yul\":1358:1362   */\n  0x00\n    /* \"#utility.yul\":1448:1466   */\n  0xffffffffffffffff\n    /* \"#utility.yul\":1440:1446   */\n  dup3\n    /* \"#utility.yul\":1437:1467   */\n  gt\n    /* \"#utility.yul\":1434:1490   */\n  iszero\n  tag_75\n  jumpi\n    /* \"#utility.yul\":1470:1488   */\n  tag_76\n  tag_25\n  jump\t// in\ntag_76:\n    /* \"#utility.yul\":1434:1490   */\ntag_75:\n    /* \"#utility.yul\":1508:1537   */\n  tag_77\n    /* \"#utility.yul\":1530:1536   */\n  dup3\n    /* \"#utility.yul\":1508:1537   */\n  tag_24\n  jump\t// in\ntag_77:\n    /* \"#utility.yul\":1500:1537   */\n  swap1\n  pop\n    /* \"#utility.yul\":1592:1596   */\n  0x20\n    /* \"#utility.yul\":1586:1590   */\n  dup2\n    /* \"#utility.yul\":1582:1597   */\n  add\n    /* \"#utility.yul\":1574:1597   */\n  swap1\n  pop\n    /* \"#utility.yul\":1296:1604   */\n  swap2\n  swap1\n  pop\n  jump\t// out\n    /* \"#utility.yul\":1610:1749   */\ntag_29:\n    /* \"#utility.yul\":1699:1705   */\n  dup3\n    /* \"#utility.yul\":1694:1697   */\n  dup2\n    /* \"#utility.yul\":1689:1692   */\n  dup4\n    /* \"#utility.yul\":1683:1706   */\n  mcopy\n    /* \"#utility.yul\":1740:1741   */\n  0x00\n    /* \"#utility.yul\":1731:1737   */\n  dup4\n    /* \"#utility.yul\":1726:1729   */\n  dup4\n    /* \"#utility.yul\":1722:1738   */\n  add\n    /* \"#utility.yul\":1715:1742   */\n  mstore\n    /* \"#utility.yul\":1610:1749   */\n  pop\n  pop\n  pop\n  jump\t// out\n    /* \"#utility.yul\":1755:2189   */\ntag_30:\n    /* \"#utility.yul\":1844:1849   */\n  0x00\n    /* \"#utility.yul\":1869:1935   */\n  tag_80\n    /* \"#utility.yul\":1885:1934   */\n  tag_81\n    /* \"#utility.yul\":1927:1933   */\n  dup5\n    /* \"#utility.yul\":1885:1934   */\n  tag_28\n  jump\t// in\ntag_81:\n    /* \"#utility.yul\":1869:1935   */\n  tag_27\n  jump\t// in\ntag_80:\n    /* \"#utility.yul\":1860:1935   */\n  swap1\n  pop\n    /* \"#utility.yul\":1958:1964   */\n  dup3\n    /* \"#utility.yul\":1951:1956   */\n  dup2\n    /* \"#utility.yul\":1944:1965   */\n  mstore\n    /* \"#utility.yul\":1996:2000   */\n  0x20\n    /* \"#utility.yul\":1989:1994   */\n  dup2\n    /* \"#utility.yul\":1985:2001   */\n  add\n    /* \"#utility.yul\":2034:2037   */\n  dup5\n    /* \"#utility.yul\":2025:2031   */\n  dup5\n    /* \"#utility.yul\":2020:2023   */\n  dup5\n    /* \"#utility.yul\":2016:2032   */\n  add\n    /* \"#utility.yul\":2013:2038   */\n  gt\n    /* \"#utility.yul\":2010:2122   */\n  iszero\n  tag_82\n  jumpi\n    /* \"#utility.yul\":2041:2120   */\n  tag_83\n  tag_23\n  jump\t// in\ntag_83:\n    /* \"#utility.yul\":2010:2122   */\ntag_82:\n    /* \"#utility.yul\":2131:2183   */\n  tag_84\n    /* \"#utility.yul\":2176:2182   */\n  dup5\n    /* \"#utility.yul\":2171:2174   */\n  dup3\n    /* \"#utility.yul\":2166:2169   */\n  dup6\n    /* \"#utility.yul\":2131:2183   */\n  tag_29\n  jump\t// in\ntag_84:\n    /* \"#utility.yul\":1850:2189   */\n  pop\n    /* \"#utility.yul\":1755:2189   */\n  swap4\n  swap3\n  pop\n  pop\n  pop\n  jump\t// out\n    /* \"#utility.yul\":2209:2564   */\ntag_31:\n    /* \"#utility.yul\":2276:2281   */\n  0x00\n    /* \"#utility.yul\":2325:2328   */\n  dup3\n    /* \"#utility.yul\":2318:2322   */\n  0x1f\n    /* \"#utility.yul\":2310:2316   */\n  dup4\n    /* \"#utility.yul\":2306:2323   */\n  add\n    /* \"#utility.yul\":2302:2329   */\n  slt\n    /* \"#utility.yul\":2292:2414   */\n  tag_86\n  jumpi\n    /* \"#utility.yul\":2333:2412   */\n  tag_87\n  tag_22\n  jump\t// in\ntag_87:\n    /* \"#utility.yul\":2292:2414   */\ntag_86:\n    /* \"#utility.yul\":2443:2449   */\n  dup2\n    /* \"#utility.yul\":2437:2450   */\n  mload\n    /* \"#utility.yul\":2468:2558   */\n  tag_88\n    /* \"#utility.yul\":2554:2557   */\n  dup5\n    /* \"#utility.yul\":2546:2552   */\n  dup3\n    /* \"#utility.yul\":2539:2543   */\n  0x20\n    /* \"#utility.yul\":2531:2537   */\n  dup7\n    /* \"#utility.yul\":2527:2544   */\n  add\n    /* \"#utility.yul\":2468:2558   */\n  tag_30\n  jump\t// in\ntag_88:\n    /* \"#utility.yul\":2459:2558   */\n  swap2\n  pop\n    /* \"#utility.yul\":2282:2564   */\n  pop\n    /* \"#utility.yul\":2209:2564   */\n  swap3\n  swap2\n  pop\n  pop\n  jump\t// out\n    /* \"#utility.yul\":2570:2647   */\ntag_32:\n    /* \"#utility.yul\":2607:2614   */\n  0x00\n    /* \"#utility.yul\":2636:2641   */\n  dup2\n    /* \"#utility.yul\":2625:2641   */\n  swap1\n  pop\n    /* \"#utility.yul\":2570:2647   */\n  swap2\n  swap1\n  pop\n  jump\t// out\n    /* \"#utility.yul\":2653:2775   */\ntag_33:\n    /* \"#utility.yul\":2726:2750   */\n  tag_91\n    /* \"#utility.yul\":2744:2749   */\n  dup2\n    /* \"#utility.yul\":2726:2750   */\n  tag_32\n  jump\t// in\ntag_91:\n    /* \"#utility.yul\":2719:2724   */\n  dup2\n    /* \"#utility.yul\":2716:2751   */\n  eq\n    /* \"#utility.yul\":2706:2769   */\n  tag_92\n  jumpi\n    /* \"#utility.yul\":2765:2766   */\n  0x00\n    /* \"#utility.yul\":2762:2763   */\n  dup1\n    /* \"#utility.yul\":2755:2767   */\n  revert\n    /* \"#utility.yul\":2706:2769   */\ntag_92:\n    /* \"#utility.yul\":2653:2775   */\n  pop\n  jump\t// out\n    /* \"#utility.yul\":2781:2924   */\ntag_34:\n    /* \"#utility.yul\":2838:2843   */\n  0x00\n    /* \"#utility.yul\":2869:2875   */\n  dup2\n    /* \"#utility.yul\":2863:2876   */\n  mload\n    /* \"#utility.yul\":2854:2876   */\n  swap1\n  pop\n    /* \"#utility.yul\":2885:2918   */\n  tag_94\n    /* \"#utility.yul\":2912:2917   */\n  dup2\n    /* \"#utility.yul\":2885:2918   */\n  tag_33\n  jump\t// in\ntag_94:\n    /* \"#utility.yul\":2781:2924   */\n  swap3\n  swap2\n  pop\n  pop\n  jump\t// out\n    /* \"#utility.yul\":2930:3766   */\ntag_3:\n    /* \"#utility.yul\":3028:3034   */\n  0x00\n    /* \"#utility.yul\":3036:3042   */\n  dup1\n    /* \"#utility.yul\":3044:3050   */\n  0x00\n    /* \"#utility.yul\":3093:3095   */\n  0x60\n    /* \"#utility.yul\":3081:3090   */\n  dup5\n    /* \"#utility.yul\":3072:3079   */\n  dup7\n    /* \"#utility.yul\":3068:3091   */\n  sub\n    /* \"#utility.yul\":3064:3096   */\n  slt\n    /* \"#utility.yul\":3061:3180   */\n  iszero\n  tag_96\n  jumpi\n    /* \"#utility.yul\":3099:3178   */\n  tag_97\n  tag_20\n  jump\t// in\ntag_97:\n    /* \"#utility.yul\":3061:3180   */\ntag_96:\n    /* \"#utility.yul\":3240:3241   */\n  0x00\n    /* \"#utility.yul\":3229:3238   */\n  dup5\n    /* \"#utility.yul\":3225:3242   */\n  add\n    /* \"#utility.yul\":3219:3243   */\n  mload\n    /* \"#utility.yul\":3270:3288   */\n  0xffffffffffffffff\n    /* \"#utility.yul\":3262:3268   */\n  dup2\n    /* \"#utility.yul\":3259:3289   */\n  gt\n    /* \"#utility.yul\":3256:3373   */\n  iszero\n  tag_98\n  jumpi\n    /* \"#utility.yul\":3292:3371   */\n  tag_99\n  tag_21\n  jump\t// in\ntag_99:\n    /* \"#utility.yul\":3256:3373   */\ntag_98:\n    /* \"#utility.yul\":3397:3471   */\n  tag_100\n    /* \"#utility.yul\":3463:3470   */\n  dup7\n    /* \"#utility.yul\":3454:3460   */\n  dup3\n    /* \"#utility.yul\":3443:3452   */\n  dup8\n    /* \"#utility.yul\":3439:3461   */\n  add\n    /* \"#utility.yul\":3397:3471   */\n  tag_31\n  jump\t// in\ntag_100:\n    /* \"#utility.yul\":3387:3471   */\n  swap4\n  pop\n    /* \"#utility.yul\":3190:3481   */\n  pop\n    /* \"#utility.yul\":3520:3522   */\n  0x20\n    /* \"#utility.yul\":3546:3610   */\n  tag_101\n    /* \"#utility.yul\":3602:3609   */\n  dup7\n    /* \"#utility.yul\":3593:3599   */\n  dup3\n    /* \"#utility.yul\":3582:3591   */\n  dup8\n    /* \"#utility.yul\":3578:3600   */\n  add\n    /* \"#utility.yul\":3546:3610   */\n  tag_34\n  jump\t// in\ntag_101:\n    /* \"#utility.yul\":3536:3610   */\n  swap3\n  pop\n    /* \"#utility.yul\":3491:3620   */\n  pop\n    /* \"#utility.yul\":3659:3661   */\n  0x40\n    /* \"#utility.yul\":3685:3749   */\n  tag_102\n    /* \"#utility.yul\":3741:3748   */\n  dup7\n    /* \"#utility.yul\":3732:3738   */\n  dup3\n    /* \"#utility.yul\":3721:3730   */\n  dup8\n    /* \"#utility.yul\":3717:3739   */\n  add\n    /* \"#utility.yul\":3685:3749   */\n  tag_34\n  jump\t// in\ntag_102:\n    /* \"#utility.yul\":3675:3749   */\n  swap2\n  pop\n    /* \"#utility.yul\":3630:3759   */\n  pop\n    /* \"#utility.yul\":2930:3766   */\n  swap3\n  pop\n  swap3\n  pop\n  swap3\n  jump\t// out\n    /* \"#utility.yul\":3772:3941   */\ntag_35:\n    /* \"#utility.yul\":3856:3867   */\n  0x00\n    /* \"#utility.yul\":3890:3896   */\n  dup3\n    /* \"#utility.yul\":3885:3888   */\n  dup3\n    /* \"#utility.yul\":3878:3897   */\n  mstore\n    /* \"#utility.yul\":3930:3934   */\n  0x20\n    /* \"#utility.yul\":3925:3928   */\n  dup3\n    /* \"#utility.yul\":3921:3935   */\n  add\n    /* \"#utility.yul\":3906:3935   */\n  swap1\n  pop\n    /* \"#utility.yul\":3772:3941   */\n  swap3\n  swap2\n  pop\n  pop\n  jump\t// out\n    /* \"#utility.yul\":3947:4127   */\ntag_36:\n    /* \"#utility.yul\":4087:4119   */\n  0x476f616c206d7573742062652067726561746572207468616e207a65726f0000\n    /* \"#utility.yul\":4083:4084   */\n  0x00\n    /* \"#utility.yul\":4075:4081   */\n  dup3\n    /* \"#utility.yul\":4071:4085   */\n  add\n    /* \"#utility.yul\":4064:4120   */\n  mstore\n    /* \"#utility.yul\":3947:4127   */\n  pop\n  jump\t// out\n    /* \"#utility.yul\":4133:4499   */\ntag_37:\n    /* \"#utility.yul\":4275:4278   */\n  0x00\n    /* \"#utility.yul\":4296:4363   */\n  tag_106\n    /* \"#utility.yul\":4360:4362   */\n  0x1e\n    /* \"#utility.yul\":4355:4358   */\n  dup4\n    /* \"#utility.yul\":4296:4363   */\n  tag_35\n  jump\t// in\ntag_106:\n    /* \"#utility.yul\":4289:4363   */\n  swap2\n  pop\n    /* \"#utility.yul\":4372:4465   */\n  tag_107\n    /* \"#utility.yul\":4461:4464   */\n  dup3\n    /* \"#utility.yul\":4372:4465   */\n  tag_36\n  jump\t// in\ntag_107:\n    /* \"#utility.yul\":4490:4492   */\n  0x20\n    /* \"#utility.yul\":4485:4488   */\n  dup3\n    /* \"#utility.yul\":4481:4493   */\n  add\n    /* \"#utility.yul\":4474:4493   */\n  swap1\n  pop\n    /* \"#utility.yul\":4133:4499   */\n  swap2\n  swap1\n  pop\n  jump\t// out\n    /* \"#utility.yul\":4505:4924   */\ntag_8:\n    /* \"#utility.yul\":4671:4675   */\n  0x00\n    /* \"#utility.yul\":4709:4711   */\n  0x20\n    /* \"#utility.yul\":4698:4707   */\n  dup3\n    /* \"#utility.yul\":4694:4712   */\n  add\n    /* \"#utility.yul\":4686:4712   */\n  swap1\n  pop\n    /* \"#utility.yul\":4758:4767   */\n  dup2\n    /* \"#utility.yul\":4752:4756   */\n  dup2\n    /* \"#utility.yul\":4748:4768   */\n  sub\n    /* \"#utility.yul\":4744:4745   */\n  0x00\n    /* \"#utility.yul\":4733:4742   */\n  dup4\n    /* \"#utility.yul\":4729:4746   */\n  add\n    /* \"#utility.yul\":4722:4769   */\n  mstore\n    /* \"#utility.yul\":4786:4917   */\n  tag_109\n    /* \"#utility.yul\":4912:4916   */\n  dup2\n    /* \"#utility.yul\":4786:4917   */\n  tag_37\n  jump\t// in\ntag_109:\n    /* \"#utility.yul\":4778:4917   */\n  swap1\n  pop\n    /* \"#utility.yul\":4505:4924   */\n  swap2\n  swap1\n  pop\n  jump\t// out\n    /* \"#utility.yul\":4930:5153   */\ntag_38:\n    /* \"#utility.yul\":5070:5104   */\n  0x43616d706169676e206d7573742072756e20666f72206174206c656173742031\n    /* \"#utility.yul\":5066:5067   */\n  0x00\n    /* \"#utility.yul\":5058:5064   */\n  dup3\n    /* \"#utility.yul\":5054:5068   */\n  add\n    /* \"#utility.yul\":5047:5105   */\n  mstore\n    /* \"#utility.yul\":5139:5145   */\n  0x2064617900000000000000000000000000000000000000000000000000000000\n    /* \"#utility.yul\":5134:5136   */\n  0x20\n    /* \"#utility.yul\":5126:5132   */\n  dup3\n    /* \"#utility.yul\":5122:5137   */\n  add\n    /* \"#utility.yul\":5115:5146   */\n  mstore\n    /* \"#utility.yul\":4930:5153   */\n  pop\n  jump\t// out\n    /* \"#utility.yul\":5159:5525   */\ntag_39:\n    /* \"#utility.yul\":5301:5304   */\n  0x00\n    /* \"#utility.yul\":5322:5389   */\n  tag_112\n    /* \"#utility.yul\":5386:5388   */\n  0x24\n    /* \"#utility.yul\":5381:5384   */\n  dup4\n    /* \"#utility.yul\":5322:5389   */\n  tag_35\n  jump\t// in\ntag_112:\n    /* \"#utility.yul\":5315:5389   */\n  swap2\n  pop\n    /* \"#utility.yul\":5398:5491   */\n  tag_113\n    /* \"#utility.yul\":5487:5490   */\n  dup3\n    /* \"#utility.yul\":5398:5491   */\n  tag_38\n  jump\t// in\ntag_113:\n    /* \"#utility.yul\":5516:5518   */\n  0x40\n    /* \"#utility.yul\":5511:5514   */\n  dup3\n    /* \"#utility.yul\":5507:5519   */\n  add\n    /* \"#utility.yul\":5500:5519   */\n  swap1\n  pop\n    /* \"#utility.yul\":5159:5525   */\n  swap2\n  swap1\n  pop\n  jump\t// out\n    /* \"#utility.yul\":5531:5950   */\ntag_11:\n    /* \"#utility.yul\":5697:5701   */\n  0x00\n    /* \"#utility.yul\":5735:5737   */\n  0x20\n    /* \"#utility.yul\":5724:5733   */\n  dup3\n    /* \"#utility.yul\":5720:5738   */\n  add\n    /* \"#utility.yul\":5712:5738   */\n  swap1\n  pop\n    /* \"#utility.yul\":5784:5793   */\n  dup2\n    /* \"#utility.yul\":5778:5782   */\n  dup2\n    /* \"#utility.yul\":5774:5794   */\n  sub\n    /* \"#utility.yul\":5770:5771   */\n  0x00\n    /* \"#utility.yul\":5759:5768   */\n  dup4\n    /* \"#utility.yul\":5755:5772   */\n  add\n    /* \"#utility.yul\":5748:5795   */\n  mstore\n    /* \"#utility.yul\":5812:5943   */\n  tag_115\n    /* \"#utility.yul\":5938:5942   */\n  dup2\n    /* \"#utility.yul\":5812:5943   */\n  tag_39\n  jump\t// in\ntag_115:\n    /* \"#utility.yul\":5804:5943   */\n  swap1\n  pop\n    /* \"#utility.yul\":5531:5950   */\n  swap2\n  swap1\n  pop\n  jump\t// out\n    /* \"#utility.yul\":5956:6055   */\ntag_40:\n    /* \"#utility.yul\":6008:6014   */\n  0x00\n    /* \"#utility.yul\":6042:6047   */\n  dup2\n    /* \"#utility.yul\":6036:6048   */\n  mload\n    /* \"#utility.yul\":6026:6048   */\n  swap1\n  pop\n    /* \"#utility.yul\":5956:6055   */\n  swap2\n  swap1\n  pop\n  jump\t// out\n    /* \"#utility.yul\":6061:6241   */\ntag_41:\n    /* \"#utility.yul\":6109:6186   */\n  0x4e487b7100000000000000000000000000000000000000000000000000000000\n    /* \"#utility.yul\":6106:6107   */\n  0x00\n    /* \"#utility.yul\":6099:6187   */\n  mstore\n    /* \"#utility.yul\":6206:6210   */\n  0x22\n    /* \"#utility.yul\":6203:6204   */\n  0x04\n    /* \"#utility.yul\":6196:6211   */\n  mstore\n    /* \"#utility.yul\":6230:6234   */\n  0x24\n    /* \"#utility.yul\":6227:6228   */\n  0x00\n    /* \"#utility.yul\":6220:6235   */\n  revert\n    /* \"#utility.yul\":6247:6567   */\ntag_42:\n    /* \"#utility.yul\":6291:6297   */\n  0x00\n    /* \"#utility.yul\":6328:6329   */\n  0x02\n    /* \"#utility.yul\":6322:6326   */\n  dup3\n    /* \"#utility.yul\":6318:6330   */\n  div\n    /* \"#utility.yul\":6308:6330   */\n  swap1\n  pop\n    /* \"#utility.yul\":6375:6376   */\n  0x01\n    /* \"#utility.yul\":6369:6373   */\n  dup3\n    /* \"#utility.yul\":6365:6377   */\n  and\n    /* \"#utility.yul\":6396:6414   */\n  dup1\n    /* \"#utility.yul\":6386:6467   */\n  tag_119\n  jumpi\n    /* \"#utility.yul\":6452:6456   */\n  0x7f\n    /* \"#utility.yul\":6444:6450   */\n  dup3\n    /* \"#utility.yul\":6440:6457   */\n  and\n    /* \"#utility.yul\":6430:6457   */\n  swap2\n  pop\n    /* \"#utility.yul\":6386:6467   */\ntag_119:\n    /* \"#utility.yul\":6514:6516   */\n  0x20\n    /* \"#utility.yul\":6506:6512   */\n  dup3\n    /* \"#utility.yul\":6503:6517   */\n  lt\n    /* \"#utility.yul\":6483:6501   */\n  dup2\n    /* \"#utility.yul\":6480:6518   */\n  sub\n    /* \"#utility.yul\":6477:6561   */\n  tag_120\n  jumpi\n    /* \"#utility.yul\":6533:6551   */\n  tag_121\n  tag_41\n  jump\t// in\ntag_121:\n    /* \"#utility.yul\":6477:6561   */\ntag_120:\n    /* \"#utility.yul\":6298:6567   */\n  pop\n    /* \"#utility.yul\":6247:6567   */\n  swap2\n  swap1\n  pop\n  jump\t// out\n    /* \"#utility.yul\":6573:6714   */\ntag_43:\n    /* \"#utility.yul\":6622:6626   */\n  0x00\n    /* \"#utility.yul\":6645:6648   */\n  dup2\n    /* \"#utility.yul\":6637:6648   */\n  swap1\n  pop\n    /* \"#utility.yul\":6668:6671   */\n  dup2\n    /* \"#utility.yul\":6665:6666   */\n  0x00\n    /* \"#utility.yul\":6658:6672   */\n  mstore\n    /* \"#utility.yul\":6702:6706   */\n  0x20\n    /* \"#utility.yul\":6699:6700   */\n  0x00\n    /* \"#utility.yul\":6689:6707   */\n  keccak256\n    /* \"#utility.yul\":6681:6707   */\n  swap1\n  pop\n    /* \"#utility.yul\":6573:6714   */\n  swap2\n  swap1\n  pop\n  jump\t// out\n    /* \"#utility.yul\":6720:6813   */\ntag_44:\n    /* \"#utility.yul\":6757:6763   */\n  0x00\n    /* \"#utility.yul\":6804:6806   */\n  0x20\n    /* \"#utility.yul\":6799:6801   */\n  0x1f\n    /* \"#utility.yul\":6792:6797   */\n  dup4\n    /* \"#utility.yul\":6788:6802   */\n  add\n    /* \"#utility.yul\":6784:6807   */\n  div\n    /* \"#utility.yul\":6774:6807   */\n  swap1\n  pop\n    /* \"#utility.yul\":6720:6813   */\n  swap2\n  swap1\n  pop\n  jump\t// out\n    /* \"#utility.yul\":6819:6926   */\ntag_45:\n    /* \"#utility.yul\":6863:6871   */\n  0x00\n    /* \"#utility.yul\":6913:6918   */\n  dup3\n    /* \"#utility.yul\":6907:6911   */\n  dup3\n    /* \"#utility.yul\":6903:6919   */\n  shl\n    /* \"#utility.yul\":6882:6919   */\n  swap1\n  pop\n    /* \"#utility.yul\":6819:6926   */\n  swap3\n  swap2\n  pop\n  pop\n  jump\t// out\n    /* \"#utility.yul\":6932:7325   */\ntag_46:\n    /* \"#utility.yul\":7001:7007   */\n  0x00\n    /* \"#utility.yul\":7051:7052   */\n  0x08\n    /* \"#utility.yul\":7039:7049   */\n  dup4\n    /* \"#utility.yul\":7035:7053   */\n  mul\n    /* \"#utility.yul\":7074:7171   */\n  tag_126\n    /* \"#utility.yul\":7104:7170   */\n  0xffffffffffffffffffffffffffffffffffffffffffffffffffffffffffffffff\n    /* \"#utility.yul\":7093:7102   */\n  dup3\n    /* \"#utility.yul\":7074:7171   */\n  tag_45\n  jump\t// in\ntag_126:\n    /* \"#utility.yul\":7192:7231   */\n  tag_127\n    /* \"#utility.yul\":7222:7230   */\n  dup7\n    /* \"#utility.yul\":7211:7220   */\n  dup4\n    /* \"#utility.yul\":7192:7231   */\n  tag_45\n  jump\t// in\ntag_127:\n    /* \"#utility.yul\":7180:7231   */\n  swap6\n  pop\n    /* \"#utility.yul\":7264:7268   */\n  dup1\n    /* \"#utility.yul\":7260:7269   */\n  not\n    /* \"#utility.yul\":7253:7258   */\n  dup5\n    /* \"#utility.yul\":7249:7270   */\n  and\n    /* \"#utility.yul\":7240:7270   */\n  swap4\n  pop\n    /* \"#utility.yul\":7313:7317   */\n  dup1\n    /* \"#utility.yul\":7303:7311   */\n  dup7\n    /* \"#utility.yul\":7299:7318   */\n  and\n    /* \"#utility.yul\":7292:7297   */\n  dup5\n    /* \"#utility.yul\":7289:7319   */\n  or\n    /* \"#utility.yul\":7279:7319   */\n  swap3\n  pop\n    /* \"#utility.yul\":7008:7325   */\n  pop\n  pop\n    /* \"#utility.yul\":6932:7325   */\n  swap4\n  swap3\n  pop\n  pop\n  pop\n  jump\t// out\n    /* \"#utility.yul\":7331:7391   */\ntag_47:\n    /* \"#utility.yul\":7359:7362   */\n  0x00\n    /* \"#utility.yul\":7380:7385   */\n  dup2\n    /* \"#utility.yul\":7373:7385   */\n  swap1\n  pop\n    /* \"#utility.yul\":7331:7391   */\n  swap2\n  swap1\n  pop\n  jump\t// out\n    /* \"#utility.yul\":7397:7539   */\ntag_48:\n    /* \"#utility.yul\":7447:7456   */\n  0x00\n    /* \"#utility.yul\":7480:7533   */\n  tag_130\n    /* \"#utility.yul\":7498:7532   */\n  tag_131\n    /* \"#utility.yul\":7507:7531   */\n  tag_132\n    /* \"#utility.yul\":7525:7530   */\n  dup5\n    /* \"#utility.yul\":7507:7531   */\n  tag_32\n  jump\t// in\ntag_132:\n    /* \"#utility.yul\":7498:7532   */\n  tag_47\n  jump\t// in\ntag_131:\n    /* \"#utility.yul\":7480:7533   */\n  tag_32\n  jump\t// in\ntag_130:\n    /* \"#utility.yul\":7467:7533   */\n  swap1\n  pop\n    /* \"#utility.yul\":7397:7539   */\n  swap2\n  swap1\n  pop\n  jump\t// out\n    /* \"#utility.yul\":7545:7620   */\ntag_49:\n    /* \"#utility.yul\":7588:7591   */\n  0x00\n    /* \"#utility.yul\":7609:7614   */\n  dup2\n    /* \"#utility.yul\":7602:7614   */\n  swap1\n  pop\n    /* \"#utility.yul\":7545:7620   */\n  swap2\n  swap1\n  pop\n  jump\t// out\n    /* \"#utility.yul\":7626:7895   */\ntag_50:\n    /* \"#utility.yul\":7736:7775   */\n  tag_135\n    /* \"#utility.yul\":7767:7774   */\n  dup4\n    /* \"#utility.yul\":7736:7775   */\n  tag_48\n  jump\t// in\ntag_135:\n    /* \"#utility.yul\":7797:7888   */\n  tag_136\n    /* \"#utility.yul\":7846:7887   */\n  tag_137\n    /* \"#utility.yul\":7870:7886   */\n  dup3\n    /* \"#utility.yul\":7846:7887   */\n  tag_49\n  jump\t// in\ntag_137:\n    /* \"#utility.yul\":7838:7844   */\n  dup5\n    /* \"#utility.yul\":7831:7835   */\n  dup5\n    /* \"#utility.yul\":7825:7836   */\n  sload\n    /* \"#utility.yul\":7797:7888   */\n  tag_46\n  jump\t// in\ntag_136:\n    /* \"#utility.yul\":7791:7795   */\n  dup3\n    /* \"#utility.yul\":7784:7889   */\n  sstore\n    /* \"#utility.yul\":7702:7895   */\n  pop\n    /* \"#utility.yul\":7626:7895   */\n  pop\n  pop\n  pop\n  jump\t// out\n    /* \"#utility.yul\":7901:7974   */\ntag_51:\n    /* \"#utility.yul\":7946:7949   */\n  0x00\n    /* \"#utility.yul\":7901:7974   */\n  swap1\n  jump\t// out\n    /* \"#utility.yul\":7980:8169   */\ntag_52:\n    /* \"#utility.yul\":8057:8089   */\n  tag_140\n  tag_51\n  jump\t// in\ntag_140:\n    /* \"#utility.yul\":8098:8163   */\n  tag_141\n    /* \"#utility.yul\":8156:8162   */\n  dup2\n    /* \"#utility.yul\":8148:8154   */\n  dup5\n    /* \"#utility.yul\":8142:8146   */\n  dup5\n    /* \"#utility.yul\":8098:8163   */\n  tag_50\n  jump\t// in\ntag_141:\n    /* \"#utility.yul\":8033:8169   */\n  pop\n    /* \"#utility.yul\":7980:8169   */\n  pop\n  pop\n  jump\t// out\n    /* \"#utility.yul\":8175:8361   */\ntag_53:\n    /* \"#utility.yul\":8235:8355   */\ntag_143:\n    /* \"#utility.yul\":8252:8255   */\n  dup2\n    /* \"#utility.yul\":8245:8250   */\n  dup2\n    /* \"#utility.yul\":8242:8256   */\n  lt\n    /* \"#utility.yul\":8235:8355   */\n  iszero\n  tag_145\n  jumpi\n    /* \"#utility.yul\":8306:8345   */\n  tag_146\n    /* \"#utility.yul\":8343:8344   */\n  0x00\n    /* \"#utility.yul\":8336:8341   */\n  dup3\n    /* \"#utility.yul\":8306:8345   */\n  tag_52\n  jump\t// in\ntag_146:\n    /* \"#utility.yul\":8279:8280   */\n  0x01\n    /* \"#utility.yul\":8272:8277   */\n  dup2\n    /* \"#utility.yul\":8268:8281   */\n  add\n    /* \"#utility.yul\":8259:8281   */\n  swap1\n  pop\n    /* \"#utility.yul\":8235:8355   */\n  jump(tag_143)\ntag_145:\n    /* \"#utility.yul\":8175:8361   */\n  pop\n  pop\n  jump\t// out\n    /* \"#utility.yul\":8367:8910   */\ntag_54:\n    /* \"#utility.yul\":8468:8470   */\n  0x1f\n    /* \"#utility.yul\":8463:8466   */\n  dup3\n    /* \"#utility.yul\":8460:8471   */\n  gt\n    /* \"#utility.yul\":8457:8903   */\n  iszero\n  tag_148\n  jumpi\n    /* \"#utility.yul\":8502:8540   */\n  tag_149\n    /* \"#utility.yul\":8534:8539   */\n  dup2\n    /* \"#utility.yul\":8502:8540   */\n  tag_43\n  jump\t// in\ntag_149:\n    /* \"#utility.yul\":8586:8615   */\n  tag_150\n    /* \"#utility.yul\":8604:8614   */\n  dup5\n    /* \"#utility.yul\":8586:8615   */\n  tag_44\n  jump\t// in\ntag_150:\n    /* \"#utility.yul\":8576:8584   */\n  dup2\n    /* \"#utility.yul\":8572:8616   */\n  add\n    /* \"#utility.yul\":8769:8771   */\n  0x20\n    /* \"#utility.yul\":8757:8767   */\n  dup6\n    /* \"#utility.yul\":8754:8772   */\n  lt\n    /* \"#utility.yul\":8751:8800   */\n  iszero\n  tag_151\n  jumpi\n    /* \"#utility.yul\":8790:8798   */\n  dup2\n    /* \"#utility.yul\":8775:8798   */\n  swap1\n  pop\n    /* \"#utility.yul\":8751:8800   */\ntag_151:\n    /* \"#utility.yul\":8813:8893   */\n  tag_152\n    /* \"#utility.yul\":8869:8891   */\n  tag_153\n    /* \"#utility.yul\":8887:8890   */\n  dup6\n    /* \"#utility.yul\":8869:8891   */\n  tag_44\n  jump\t// in\ntag_153:\n    /* \"#utility.yul\":8859:8867   */\n  dup4\n    /* \"#utility.yul\":8855:8892   */\n  add\n    /* \"#utility.yul\":8842:8853   */\n  dup3\n    /* \"#utility.yul\":8813:8893   */\n  tag_53\n  jump\t// in\ntag_152:\n    /* \"#utility.yul\":8472:8903   */\n  pop\n  pop\n    /* \"#utility.yul\":8457:8903   */\ntag_148:\n    /* \"#utility.yul\":8367:8910   */\n  pop\n  pop\n  pop\n  jump\t// out\n    /* \"#utility.yul\":8916:9033   */\ntag_55:\n    /* \"#utility.yul\":8970:8978   */\n  0x00\n    /* \"#utility.yul\":9020:9025   */\n  dup3\n    /* \"#utility.yul\":9014:9018   */\n  dup3\n    /* \"#utility.yul\":9010:9026   */\n  shr\n    /* \"#utility.yul\":8989:9026   */\n  swap1\n  pop\n    /* \"#utility.yul\":8916:9033   */\n  swap3\n  swap2\n  pop\n  pop\n  jump\t// out\n    /* \"#utility.yul\":9039:9208   */\ntag_56:\n    /* \"#utility.yul\":9083:9089   */\n  0x00\n    /* \"#utility.yul\":9116:9167   */\n  tag_156\n    /* \"#utility.yul\":9164:9165   */\n  0x00\n    /* \"#utility.yul\":9160:9166   */\n  not\n    /* \"#utility.yul\":9152:9157   */\n  dup5\n    /* \"#utility.yul\":9149:9150   */\n  0x08\n    /* \"#utility.yul\":9145:9158   */\n  mul\n    /* \"#utility.yul\":9116:9167   */\n  tag_55\n  jump\t// in\ntag_156:\n    /* \"#utility.yul\":9112:9168   */\n  not\n    /* \"#utility.yul\":9197:9201   */\n  dup1\n    /* \"#utility.yul\":9191:9195   */\n  dup4\n    /* \"#utility.yul\":9187:9202   */\n  and\n    /* \"#utility.yul\":9177:9202   */\n  swap2\n  pop\n    /* \"#utility.yul\":9090:9208   */\n  pop\n    /* \"#utility.yul\":9039:9208   */\n  swap3\n  swap2\n  pop\n  pop\n  jump\t// out\n    /* \"#utility.yul\":9213:9508   */\ntag_57:\n    /* \"#utility.yul\":9289:9293   */\n  0x00\n    /* \"#utility.yul\":9435:9464   */\n  tag_158\n    /* \"#utility.yul\":9460:9463   */\n  dup4\n    /* \"#utility.yul\":9454:9458   */\n  dup4\n    /* \"#utility.yul\":9435:9464   */\n  tag_56\n  jump\t// in\ntag_158:\n    /* \"#utility.yul\":9427:9464   */\n  swap2\n  pop\n    /* \"#utility.yul\":9497:9500   */\n  dup3\n    /* \"#utility.yul\":9494:9495   */\n  0x02\n    /* \"#utility.yul\":9490:9501   */\n  mul\n    /* \"#utility.yul\":9484:9488   */\n  dup3\n    /* \"#utility.yul\":9481:9502   */\n  or\n    /* \"#utility.yul\":9473:9502   */\n  swap1\n  pop\n    /* \"#utility.yul\":9213:9508   */\n  swap3\n  swap2\n  pop\n  pop\n  jump\t// out\n    /* \"#utility.yul\":9513:10908   */\ntag_13:\n    /* \"#utility.yul\":9630:9667   */\n  tag_160\n    /* \"#utility.yul\":9663:9666   */\n  dup3\n    /* \"#utility.yul\":9630:9667   */\n  tag_40\n  jump\t// in\ntag_160:\n    /* \"#utility.yul\":9732:9750   */\n  0xffffffffffffffff\n    /* \"#utility.yul\":9724:9730   */\n  dup2\n    /* \"#utility.yul\":9721:9751   */\n  gt\n    /* \"#utility.yul\":9718:9774   */\n  iszero\n  tag_161\n  jumpi\n    /* \"#utility.yul\":9754:9772   */\n  tag_162\n  tag_25\n  jump\t// in\ntag_162:\n    /* \"#utility.yul\":9718:9774   */\ntag_161:\n    /* \"#utility.yul\":9798:9836   */\n  tag_163\n    /* \"#utility.yul\":9830:9834   */\n  dup3\n    /* \"#utility.yul\":9824:9835   */\n  sload\n    /* \"#utility.yul\":9798:9836   */\n  tag_42\n  jump\t// in\ntag_163:\n    /* \"#utility.yul\":9883:9950   */\n  tag_164\n    /* \"#utility.yul\":9943:9949   */\n  dup3\n    /* \"#utility.yul\":9935:9941   */\n  dup3\n    /* \"#utility.yul\":9929:9933   */\n  dup6\n    /* \"#utility.yul\":9883:9950   */\n  tag_54\n  jump\t// in\ntag_164:\n    /* \"#utility.yul\":9977:9978   */\n  0x00\n    /* \"#utility.yul\":10001:10005   */\n  0x20\n    /* \"#utility.yul\":9988:10005   */\n  swap1\n  pop\n    /* \"#utility.yul\":10033:10035   */\n  0x1f\n    /* \"#utility.yul\":10025:10031   */\n  dup4\n    /* \"#utility.yul\":10022:10036   */\n  gt\n    /* \"#utility.yul\":10050:10051   */\n  0x01\n    /* \"#utility.yul\":10045:10663   */\n  dup2\n  eq\n  tag_166\n  jumpi\n    /* \"#utility.yul\":10707:10708   */\n  0x00\n    /* \"#utility.yul\":10724:10730   */\n  dup5\n    /* \"#utility.yul\":10721:10798   */\n  iszero\n  tag_167\n  jumpi\n    /* \"#utility.yul\":10773:10782   */\n  dup3\n    /* \"#utility.yul\":10768:10771   */\n  dup8\n    /* \"#utility.yul\":10764:10783   */\n  add\n    /* \"#utility.yul\":10758:10784   */\n  mload\n    /* \"#utility.yul\":10749:10784   */\n  swap1\n  pop\n    /* \"#utility.yul\":10721:10798   */\ntag_167:\n    /* \"#utility.yul\":10824:10891   */\n  tag_168\n    /* \"#utility.yul\":10884:10890   */\n  dup6\n    /* \"#utility.yul\":10877:10882   */\n  dup3\n    /* \"#utility.yul\":10824:10891   */\n  tag_57\n  jump\t// in\ntag_168:\n    /* \"#utility.yul\":10818:10822   */\n  dup7\n    /* \"#utility.yul\":10811:10892   */\n  sstore\n    /* \"#utility.yul\":10680:10902   */\n  pop\n    /* \"#utility.yul\":10015:10902   */\n  jump(tag_165)\n    /* \"#utility.yul\":10045:10663   */\ntag_166:\n    /* \"#utility.yul\":10097:10101   */\n  0x1f\n    /* \"#utility.yul\":10093:10102   */\n  not\n    /* \"#utility.yul\":10085:10091   */\n  dup5\n    /* \"#utility.yul\":10081:10103   */\n  and\n    /* \"#utility.yul\":10131:10168   */\n  tag_169\n    /* \"#utility.yul\":10163:10167   */\n  dup7\n    /* \"#utility.yul\":10131:10168   */\n  tag_43\n  jump\t// in\ntag_169:\n    /* \"#utility.yul\":10190:10191   */\n  0x00\n    /* \"#utility.yul\":10204:10412   */\ntag_170:\n    /* \"#utility.yul\":10218:10225   */\n  dup3\n    /* \"#utility.yul\":10215:10216   */\n  dup2\n    /* \"#utility.yul\":10212:10226   */\n  lt\n    /* \"#utility.yul\":10204:10412   */\n  iszero\n  tag_172\n  jumpi\n    /* \"#utility.yul\":10297:10306   */\n  dup5\n    /* \"#utility.yul\":10292:10295   */\n  dup10\n    /* \"#utility.yul\":10288:10307   */\n  add\n    /* \"#utility.yul\":10282:10308   */\n  mload\n    /* \"#utility.yul\":10274:10280   */\n  dup3\n    /* \"#utility.yul\":10267:10309   */\n  sstore\n    /* \"#utility.yul\":10348:10349   */\n  0x01\n    /* \"#utility.yul\":10340:10346   */\n  dup3\n    /* \"#utility.yul\":10336:10350   */\n  add\n    /* \"#utility.yul\":10326:10350   */\n  swap2\n  pop\n    /* \"#utility.yul\":10395:10397   */\n  0x20\n    /* \"#utility.yul\":10384:10393   */\n  dup6\n    /* \"#utility.yul\":10380:10398   */\n  add\n    /* \"#utility.yul\":10367:10398   */\n  swap5\n  pop\n    /* \"#utility.yul\":10241:10245   */\n  0x20\n    /* \"#utility.yul\":10238:10239   */\n  dup2\n    /* \"#utility.yul\":10234:10246   */\n  add\n    /* \"#utility.yul\":10229:10246   */\n  swap1\n  pop\n    /* \"#utility.yul\":10204:10412   */\n  jump(tag_170)\ntag_172:\n    /* \"#utility.yul\":10440:10446   */\n  dup7\n    /* \"#utility.yul\":10431:10438   */\n  dup4\n    /* \"#utility.yul\":10428:10447   */\n  lt\n    /* \"#utility.yul\":10425:10604   */\n  iszero\n  tag_173\n  jumpi\n    /* \"#utility.yul\":10498:10507   */\n  dup5\n    /* \"#utility.yul\":10493:10496   */\n  dup10\n    /* \"#utility.yul\":10489:10508   */\n  add\n    /* \"#utility.yul\":10483:10509   */\n  mload\n    /* \"#utility.yul\":10541:10589   */\n  tag_174\n    /* \"#utility.yul\":10583:10587   */\n  0x1f\n    /* \"#utility.yul\":10575:10581   */\n  dup10\n    /* \"#utility.yul\":10571:10588   */\n  and\n    /* \"#utility.yul\":10560:10569   */\n  dup3\n    /* \"#utility.yul\":10541:10589   */\n  tag_56\n  jump\t// in\ntag_174:\n    /* \"#utility.yul\":10533:10539   */\n  dup4\n    /* \"#utility.yul\":10526:10590   */\n  sstore\n    /* \"#utility.yul\":10448:10604   */\n  pop\n    /* \"#utility.yul\":10425:10604   */\ntag_173:\n    /* \"#utility.yul\":10650:10651   */\n  0x01\n    /* \"#utility.yul\":10646:10647   */\n  0x02\n    /* \"#utility.yul\":10638:10644   */\n  dup9\n    /* \"#utility.yul\":10634:10648   */\n  mul\n    /* \"#utility.yul\":10630:10652   */\n  add\n    /* \"#utility.yul\":10624:10628   */\n  dup9\n    /* \"#utility.yul\":10617:10653   */\n  sstore\n    /* \"#utility.yul\":10052:10663   */\n  pop\n  pop\n  pop\n    /* \"#utility.yul\":10015:10902   */\ntag_165:\n  pop\n    /* \"#utility.yul\":9605:10908   */\n  pop\n  pop\n  pop\n    /* \"#utility.yul\":9513:10908   */\n  pop\n  pop\n  jump\t// out\n    /* \"#utility.yul\":10914:11094   */\ntag_58:\n    /* \"#utility.yul\":10962:11039   */\n  0x4e487b7100000000000000000000000000000000000000000000000000000000\n    /* \"#utility.yul\":10959:10960   */\n  0x00\n    /* \"#utility.yul\":10952:11040   */\n  mstore\n    /* \"#utility.yul\":11059:11063   */\n  0x11\n    /* \"#utility.yul\":11056:11057   */\n  0x04\n    /* \"#utility.yul\":11049:11064   */\n  mstore\n    /* \"#utility.yul\":11083:11087   */\n  0x24\n    /* \"#utility.yul\":11080:11081   */\n  0x00\n    /* \"#utility.yul\":11073:11088   */\n  revert\n    /* \"#utility.yul\":11100:11510   */\ntag_15:\n    /* \"#utility.yul\":11140:11147   */\n  0x00\n    /* \"#utility.yul\":11163:11183   */\n  tag_177\n    /* \"#utility.yul\":11181:11182   */\n  dup3\n    /* \"#utility.yul\":11163:11183   */\n  tag_32\n  jump\t// in\ntag_177:\n    /* \"#utility.yul\":11158:11183   */\n  swap2\n  pop\n    /* \"#utility.yul\":11197:11217   */\n  tag_178\n    /* \"#utility.yul\":11215:11216   */\n  dup4\n    /* \"#utility.yul\":11197:11217   */\n  tag_32\n  jump\t// in\ntag_178:\n    /* \"#utility.yul\":11192:11217   */\n  swap3\n  pop\n    /* \"#utility.yul\":11252:11253   */\n  dup3\n    /* \"#utility.yul\":11249:11250   */\n  dup3\n    /* \"#utility.yul\":11245:11254   */\n  mul\n    /* \"#utility.yul\":11274:11304   */\n  tag_179\n    /* \"#utility.yul\":11292:11303   */\n  dup2\n    /* \"#utility.yul\":11274:11304   */\n  tag_32\n  jump\t// in\ntag_179:\n    /* \"#utility.yul\":11263:11304   */\n  swap2\n  pop\n    /* \"#utility.yul\":11453:11454   */\n  dup3\n    /* \"#utility.yul\":11444:11451   */\n  dup3\n    /* \"#utility.yul\":11440:11455   */\n  div\n    /* \"#utility.yul\":11437:11438   */\n  dup5\n    /* \"#utility.yul\":11434:11456   */\n  eq\n    /* \"#utility.yul\":11414:11415   */\n  dup4\n    /* \"#utility.yul\":11407:11416   */\n  iszero\n    /* \"#utility.yul\":11387:11470   */\n  or\n    /* \"#utility.yul\":11364:11503   */\n  tag_180\n  jumpi\n    /* \"#utility.yul\":11483:11501   */\n  tag_181\n  tag_58\n  jump\t// in\ntag_181:\n    /* \"#utility.yul\":11364:11503   */\ntag_180:\n    /* \"#utility.yul\":11148:11510   */\n  pop\n    /* \"#utility.yul\":11100:11510   */\n  swap3\n  swap2\n  pop\n  pop\n  jump\t// out\n    /* \"#utility.yul\":11516:11707   */\ntag_17:\n    /* \"#utility.yul\":11556:11559   */\n  0x00\n    /* \"#utility.yul\":11575:11595   */\n  tag_183\n    /* \"#utility.yul\":11593:11594   */\n  dup3\n    /* \"#utility.yul\":11575:11595   */\n  tag_32\n  jump\t// in\ntag_183:\n    /* \"#utility.yul\":11570:11595   */\n  swap2\n  pop\n    /* \"#utility.yul\":11609:11629   */\n  tag_184\n    /* \"#utility.yul\":11627:11628   */\n  dup4\n    /* \"#utility.yul\":11609:11629   */\n  tag_32\n  jump\t// in\ntag_184:\n    /* \"#utility.yul\":11604:11629   */\n  swap3\n  pop\n    /* \"#utility.yul\":11652:11653   */\n  dup3\n    /* \"#utility.yul\":11649:11650   */\n  dup3\n    /* \"#utility.yul\":11645:11654   */\n  add\n    /* \"#utility.yul\":11638:11654   */\n  swap1\n  pop\n    /* \"#utility.yul\":11673:11676   */\n  dup1\n    /* \"#utility.yul\":11670:11671   */\n  dup3\n    /* \"#utility.yul\":11667:11677   */\n  gt\n    /* \"#utility.yul\":11664:11700   */\n  iszero\n  tag_185\n  jumpi\n    /* \"#utility.yul\":11680:11698   */\n  tag_186\n  tag_58\n  jump\t// in\ntag_186:\n    /* \"#utility.yul\":11664:11700   */\ntag_185:\n    /* \"#utility.yul\":11516:11707   */\n  swap3\n  swap2\n  pop\n  pop\n  jump\t// out\n    /* \"contracts/crowdfunding.sol\":59:2388  contract Campaign {... */\ntag_18:\n  dataSize(sub_0)\n  dup1\n  dataOffset(sub_0)\n  0x00\n  codecopy\n  0x00\n  return\nstop\n\nsub_0: assembly {\n        /* \"contracts/crowdfunding.sol\":59:2388  contract Campaign {... */\n      mstore(0x40, 0x80)\n      jumpi(tag_1, lt(calldatasize, 0x04))\n      shr(0xe0, calldataload(0x00))\n      dup1\n      0x7d3d6522\n      gt\n      tag_13\n      jumpi\n      dup1\n      0x7d3d6522\n      eq\n      tag_7\n      jumpi\n      dup1\n      0xac307773\n      eq\n      tag_8\n      jumpi\n      dup1\n      0xb2d5ae44\n      eq\n      tag_9\n      jumpi\n      dup1\n      0xc5c4744c\n      eq\n      tag_10\n      jumpi\n      dup1\n      0xd7bb99ba\n      eq\n      tag_11\n      jumpi\n      dup1\n      0xe8b89dd8\n      eq\n      tag_12\n      jumpi\n      jump(tag_1)\n    tag_13:\n      dup1\n      0x02d05d3f\n      eq\n      tag_2\n      jumpi\n      dup1\n      0x29dcb0cf\n      eq\n      tag_3\n      jumpi\n      dup1\n      0x40193883\n      eq\n      tag_4\n      jumpi\n      dup1\n      0x42e94c90\n      eq\n      tag_5\n      jumpi\n      dup1\n      0x4a79d50c\n      eq\n      tag_6\n      jumpi\n    tag_1:\n      0x00\n      dup1\n      revert\n        /* \"contracts/crowdfunding.sol\":83:113  address payable public creator */\n    tag_2:\n      callvalue\n      dup1\n      iszero\n      tag_14\n      jumpi\n      0x00\n      dup1\n      revert\n    tag_14:\n      pop\n      tag_15\n      tag_16\n      jump\t// in\n    tag_15:\n      mload(0x40)\n      tag_17\n      swap2\n      swap1\n      tag_18\n      jump\t// in\n    tag_17:\n      mload(0x40)\n      dup1\n      swap2\n      sub\n      swap1\n      return\n        /* \"contracts/crowdfunding.sol\":169:192  uint256 public deadline */\n    tag_3:\n      callvalue\n      dup1\n      iszero\n      tag_19\n      jumpi\n      0x00\n      dup1\n      revert\n    tag_19:\n      pop\n      tag_20\n      tag_21\n      jump\t// in\n    tag_20:\n      mload(0x40)\n      tag_22\n      swap2\n      swap1\n      tag_23\n      jump\t// in\n    tag_22:\n      mload(0x40)\n      dup1\n      swap2\n      sub\n      swap1\n      return\n        /* \"contracts/crowdfunding.sol\":144:163  uint256 public goal */\n    tag_4:\n      callvalue\n      dup1\n      iszero\n      tag_24\n      jumpi\n      0x00\n      dup1\n      revert\n    tag_24:\n      pop\n      tag_25\n      tag_26\n      jump\t// in\n    tag_25:\n      mload(0x40)\n      tag_27\n      swap2\n      swap1\n      tag_23\n      jump\t// in\n    tag_27:\n      mload(0x40)\n      dup1\n      swap2\n      sub\n      swap1\n      return\n        /* \"contracts/crowdfunding.sol\":321:369  mapping(address => uint256) public contributions */\n    tag_5:\n      callvalue\n      dup1\n      iszero\n      tag_28\n      jumpi\n      0x00\n      dup1\n      revert\n    tag_28:\n      pop\n      tag_29\n      0x04\n      dup1\n      calldatasize\n      sub\n      dup2\n      add\n      swap1\n      tag_30\n      swap2\n      swap1\n      tag_31\n      jump\t// in\n    tag_30:\n      tag_32\n      jump\t// in\n    tag_29:\n      mload(0x40)\n      tag_33\n      swap2\n      swap1\n      tag_23\n      jump\t// in\n    tag_33:\n      mload(0x40)\n      dup1\n      swap2\n      sub\n      swap1\n      return\n        /* \"contracts/crowdfunding.sol\":119:138  string public title */\n    tag_6:\n      callvalue\n      dup1\n      iszero\n      tag_34\n      jumpi\n      0x00\n      dup1\n      revert\n    tag_34:\n      pop\n      tag_35\n      tag_36\n      jump\t// in\n    tag_35:\n      mload(0x40)\n      tag_37\n      swap2\n      swap1\n      tag_38\n      jump\t// in\n    tag_37:\n      mload(0x40)\n      dup1\n      swap2\n      sub\n      swap1\n      return\n        /* \"contracts/crowdfunding.sol\":2182:2275  function goalReached() public view returns (bool) {... */\n    tag_7:\n      callvalue\n      dup1\n      iszero\n      tag_39\n      jumpi\n      0x00\n      dup1\n      revert\n    tag_39:\n      pop\n      tag_40\n      tag_41\n      jump\t// in\n    tag_40:\n      mload(0x40)\n      tag_42\n      swap2\n      swap1\n      tag_43\n      jump\t// in\n    tag_42:\n      mload(0x40)\n      dup1\n      swap2\n      sub\n      swap1\n      return\n        /* \"contracts/crowdfunding.sol\":1279:1727  function claimFunds() public {... */\n    tag_8:\n      callvalue\n      dup1\n      iszero\n      tag_44\n      jumpi\n      0x00\n      dup1\n      revert\n    tag_44:\n      pop\n      tag_45\n      tag_46\n      jump\t// in\n    tag_45:\n      stop\n        /* \"contracts/crowdfunding.sol\":1733:2176  function getRefund() public {... */\n    tag_9:\n      callvalue\n      dup1\n      iszero\n      tag_47\n      jumpi\n      0x00\n      dup1\n      revert\n    tag_47:\n      pop\n      tag_48\n      tag_49\n      jump\t// in\n    tag_48:\n      stop\n        /* \"contracts/crowdfunding.sol\":239:265  uint256 public totalRaised */\n    tag_10:\n      callvalue\n      dup1\n      iszero\n      tag_50\n      jumpi\n      0x00\n      dup1\n      revert\n    tag_50:\n      pop\n      tag_51\n      tag_52\n      jump\t// in\n    tag_51:\n      mload(0x40)\n      tag_53\n      swap2\n      swap1\n      tag_23\n      jump\t// in\n    tag_53:\n      mload(0x40)\n      dup1\n      swap2\n      sub\n      swap1\n      return\n        /* \"contracts/crowdfunding.sol\":1030:1273  function contribute() public payable {... */\n    tag_11:\n      tag_54\n      tag_55\n      jump\t// in\n    tag_54:\n      stop\n        /* \"contracts/crowdfunding.sol\":2281:2385  function campaignActive() public view returns (bool) {... */\n    tag_12:\n      callvalue\n      dup1\n      iszero\n      tag_56\n      jumpi\n      0x00\n      dup1\n      revert\n    tag_56:\n      pop\n      tag_57\n      tag_58\n      jump\t// in\n    tag_57:\n      mload(0x40)\n      tag_59\n      swap2\n      swap1\n      tag_43\n      jump\t// in\n    tag_59:\n      mload(0x40)\n      dup1\n      swap2\n      sub\n      swap1\n      return\n        /* \"contracts/crowdfunding.sol\":83:113  address payable public creator */\n    tag_16:\n      0x00\n      dup1\n      sload\n      swap1\n      0x0100\n      exp\n      swap1\n      div\n      0xffffffffffffffffffffffffffffffffffffffff\n      and\n      dup2\n      jump\t// out\n        /* \"contracts/crowdfunding.sol\":169:192  uint256 public deadline */\n    tag_21:\n      sload(0x03)\n      dup2\n      jump\t// out\n        /* \"contracts/crowdfunding.sol\":144:163  uint256 public goal */\n    tag_26:\n      sload(0x02)\n      dup2\n      jump\t// out\n        /* \"contracts/crowdfunding.sol\":321:369  mapping(address => uint256) public contributions */\n    tag_32:\n      mstore(0x20, 0x05)\n      dup1\n      0x00\n      mstore\n      keccak256(0x00, 0x40)\n      0x00\n      swap2\n      pop\n      swap1\n      pop\n      sload\n      dup2\n      jump\t// out\n        /* \"contracts/crowdfunding.sol\":119:138  string public title */\n    tag_36:\n      0x01\n      dup1\n      sload\n      tag_60\n      swap1\n      tag_61\n      jump\t// in\n    tag_60:\n      dup1\n      0x1f\n      add\n      0x20\n      dup1\n      swap2\n      div\n      mul\n      0x20\n      add\n      mload(0x40)\n      swap1\n      dup2\n      add\n      0x40\n      mstore\n      dup1\n      swap3\n      swap2\n      swap1\n      dup2\n      dup2\n      mstore\n      0x20\n      add\n      dup3\n      dup1\n      sload\n      tag_62\n      swap1\n      tag_61\n      jump\t// in\n    tag_62:\n      dup1\n      iszero\n      tag_63\n      jumpi\n      dup1\n      0x1f\n      lt\n      tag_64\n      jumpi\n      0x0100\n      dup1\n      dup4\n      sload\n      div\n      mul\n      dup4\n      mstore\n      swap2\n      0x20\n      add\n      swap2\n      jump(tag_63)\n    tag_64:\n      dup3\n      add\n      swap2\n      swap1\n      0x00\n      mstore\n      keccak256(0x00, 0x20)\n      swap1\n    tag_65:\n      dup2\n      sload\n      dup2\n      mstore\n      swap1\n      0x01\n      add\n      swap1\n      0x20\n      add\n      dup1\n      dup4\n      gt\n      tag_65\n      jumpi\n      dup3\n      swap1\n      sub\n      0x1f\n      and\n      dup3\n      add\n      swap2\n    tag_63:\n      pop\n      pop\n      pop\n      pop\n      pop\n      dup2\n      jump\t// out\n        /* \"contracts/crowdfunding.sol\":2182:2275  function goalReached() public view returns (bool) {... */\n    tag_41:\n        /* \"contracts/crowdfunding.sol\":2226:2230  bool */\n      0x00\n        /* \"contracts/crowdfunding.sol\":2264:2268  goal */\n      sload(0x02)\n        /* \"contracts/crowdfunding.sol\":2249:2260  totalRaised */\n      sload(0x04)\n        /* \"contracts/crowdfunding.sol\":2249:2268  totalRaised >= goal */\n      lt\n      iszero\n        /* \"contracts/crowdfunding.sol\":2242:2268  return totalRaised >= goal */\n      swap1\n      pop\n        /* \"contracts/crowdfunding.sol\":2182:2275  function goalReached() public view returns (bool) {... */\n      swap1\n      jump\t// out\n        /* \"contracts/crowdfunding.sol\":1279:1727  function claimFunds() public {... */\n    tag_46:\n        /* \"contracts/crowdfunding.sol\":1340:1347  creator */\n      0x00\n      dup1\n      sload\n      swap1\n      0x0100\n      exp\n      swap1\n      div\n      0xffffffffffffffffffffffffffffffffffffffff\n      and\n        /* \"contracts/crowdfunding.sol\":1326:1347  msg.sender == creator */\n      0xffffffffffffffffffffffffffffffffffffffff\n      and\n        /* \"contracts/crowdfunding.sol\":1326:1336  msg.sender */\n      caller\n        /* \"contracts/crowdfunding.sol\":1326:1347  msg.sender == creator */\n      0xffffffffffffffffffffffffffffffffffffffff\n      and\n      eq\n        /* \"contracts/crowdfunding.sol\":1318:1374  require(msg.sender == creator, \"Only creator can claim\") */\n      tag_68\n      jumpi\n      mload(0x40)\n      0x08c379a000000000000000000000000000000000000000000000000000000000\n      dup2\n      mstore\n      0x04\n      add\n      tag_69\n      swap1\n      tag_70\n      jump\t// in\n    tag_69:\n      mload(0x40)\n      dup1\n      swap2\n      sub\n      swap1\n      revert\n    tag_68:\n        /* \"contracts/crowdfunding.sol\":1410:1418  deadline */\n      sload(0x03)\n        /* \"contracts/crowdfunding.sol\":1392:1407  block.timestamp */\n      timestamp\n        /* \"contracts/crowdfunding.sol\":1392:1418  block.timestamp > deadline */\n      gt\n        /* \"contracts/crowdfunding.sol\":1384:1441  require(block.timestamp > deadline, \"Campaign not ended\") */\n      tag_71\n      jumpi\n      mload(0x40)\n      0x08c379a000000000000000000000000000000000000000000000000000000000\n      dup2\n      mstore\n      0x04\n      add\n      tag_72\n      swap1\n      tag_73\n      jump\t// in\n    tag_72:\n      mload(0x40)\n      dup1\n      swap2\n      sub\n      swap1\n      revert\n    tag_71:\n        /* \"contracts/crowdfunding.sol\":1459:1472  goalReached() */\n      tag_74\n        /* \"contracts/crowdfunding.sol\":1459:1470  goalReached */\n      tag_41\n        /* \"contracts/crowdfunding.sol\":1459:1472  goalReached() */\n      jump\t// in\n    tag_74:\n        /* \"contracts/crowdfunding.sol\":1451:1493  require(goalReached(), \"Goal not reached\") */\n      tag_75\n      jumpi\n      mload(0x40)\n      0x08c379a000000000000000000000000000000000000000000000000000000000\n      dup2\n      mstore\n      0x04\n      add\n      tag_76\n      swap1\n      tag_77\n      jump\t// in\n    tag_76:\n      mload(0x40)\n      dup1\n      swap2\n      sub\n      swap1\n      revert\n    tag_75:\n        /* \"contracts/crowdfunding.sol\":1535:1536  0 */\n      0x00\n        /* \"contracts/crowdfunding.sol\":1511:1532  address(this).balance */\n      selfbalance\n        /* \"contracts/crowdfunding.sol\":1511:1536  address(this).balance > 0 */\n      gt\n        /* \"contracts/crowdfunding.sol\":1503:1558  require(address(this).balance > 0, \"No funds to claim\") */\n      tag_78\n      jumpi\n      mload(0x40)\n      0x08c379a000000000000000000000000000000000000000000000000000000000\n      dup2\n      mstore\n      0x04\n      add\n      tag_79\n      swap1\n      tag_80\n      jump\t// in\n    tag_79:\n      mload(0x40)\n      dup1\n      swap2\n      sub\n      swap1\n      revert\n    tag_78:\n        /* \"contracts/crowdfunding.sol\":1577:1591  uint256 amount */\n      0x00\n        /* \"contracts/crowdfunding.sol\":1594:1615  address(this).balance */\n      selfbalance\n        /* \"contracts/crowdfunding.sol\":1577:1615  uint256 amount = address(this).balance */\n      swap1\n      pop\n        /* \"contracts/crowdfunding.sol\":1626:1638  bool success */\n      0x00\n        /* \"contracts/crowdfunding.sol\":1644:1651  creator */\n      dup1\n      0x00\n      swap1\n      sload\n      swap1\n      0x0100\n      exp\n      swap1\n      div\n      0xffffffffffffffffffffffffffffffffffffffff\n      and\n        /* \"contracts/crowdfunding.sol\":1644:1656  creator.call */\n      0xffffffffffffffffffffffffffffffffffffffff\n      and\n        /* \"contracts/crowdfunding.sol\":1664:1670  amount */\n      dup3\n        /* \"contracts/crowdfunding.sol\":1644:1675  creator.call{value: amount}(\"\") */\n      mload(0x40)\n      tag_81\n      swap1\n      tag_82\n      jump\t// in\n    tag_81:\n      0x00\n      mload(0x40)\n      dup1\n      dup4\n      sub\n      dup2\n      dup6\n      dup8\n      gas\n      call\n      swap3\n      pop\n      pop\n      pop\n      returndatasize\n      dup1\n      0x00\n      dup2\n      eq\n      tag_85\n      jumpi\n      mload(0x40)\n      swap2\n      pop\n      and(add(returndatasize, 0x3f), not(0x1f))\n      dup3\n      add\n      0x40\n      mstore\n      returndatasize\n      dup3\n      mstore\n      returndatasize\n      0x00\n      0x20\n      dup5\n      add\n      returndatacopy\n      jump(tag_84)\n    tag_85:\n      0x60\n      swap2\n      pop\n    tag_84:\n      pop\n        /* \"contracts/crowdfunding.sol\":1625:1675  (bool success, ) = creator.call{value: amount}(\"\") */\n      pop\n      swap1\n      pop\n        /* \"contracts/crowdfunding.sol\":1693:1700  success */\n      dup1\n        /* \"contracts/crowdfunding.sol\":1685:1720  require(success, \"Transfer failed\") */\n      tag_86\n      jumpi\n      mload(0x40)\n      0x08c379a000000000000000000000000000000000000000000000000000000000\n      dup2\n      mstore\n      0x04\n      add\n      tag_87\n      swap1\n      tag_88\n      jump\t// in\n    tag_87:\n      mload(0x40)\n      dup1\n      swap2\n      sub\n      swap1\n      revert\n    tag_86:\n        /* \"contracts/crowdfunding.sol\":1308:1727  {... */\n      pop\n      pop\n        /* \"contracts/crowdfunding.sol\":1279:1727  function claimFunds() public {... */\n      jump\t// out\n        /* \"contracts/crowdfunding.sol\":1733:2176  function getRefund() public {... */\n    tag_49:\n        /* \"contracts/crowdfunding.sol\":1797:1805  deadline */\n      sload(0x03)\n        /* \"contracts/crowdfunding.sol\":1779:1794  block.timestamp */\n      timestamp\n        /* \"contracts/crowdfunding.sol\":1779:1805  block.timestamp > deadline */\n      gt\n        /* \"contracts/crowdfunding.sol\":1771:1828  require(block.timestamp > deadline, \"Campaign not ended\") */\n      tag_90\n      jumpi\n      mload(0x40)\n      0x08c379a000000000000000000000000000000000000000000000000000000000\n      dup2\n      mstore\n      0x04\n      add\n      tag_91\n      swap1\n      tag_73\n      jump\t// in\n    tag_91:\n      mload(0x40)\n      dup1\n      swap2\n      sub\n      swap1\n      revert\n    tag_90:\n        /* \"contracts/crowdfunding.sol\":1847:1860  goalReached() */\n      tag_92\n        /* \"contracts/crowdfunding.sol\":1847:1858  goalReached */\n      tag_41\n        /* \"contracts/crowdfunding.sol\":1847:1860  goalReached() */\n      jump\t// in\n    tag_92:\n        /* \"contracts/crowdfunding.sol\":1846:1860  !goalReached() */\n      iszero\n        /* \"contracts/crowdfunding.sol\":1838:1881  require(!goalReached(), \"Goal was reached\") */\n      tag_93\n      jumpi\n      mload(0x40)\n      0x08c379a000000000000000000000000000000000000000000000000000000000\n      dup2\n      mstore\n      0x04\n      add\n      tag_94\n      swap1\n      tag_95\n      jump\t// in\n    tag_94:\n      mload(0x40)\n      dup1\n      swap2\n      sub\n      swap1\n      revert\n    tag_93:\n        /* \"contracts/crowdfunding.sol\":1927:1928  0 */\n      0x00\n        /* \"contracts/crowdfunding.sol\":1899:1912  contributions */\n      0x05\n        /* \"contracts/crowdfunding.sol\":1899:1924  contributions[msg.sender] */\n      0x00\n        /* \"contracts/crowdfunding.sol\":1913:1923  msg.sender */\n      caller\n        /* \"contracts/crowdfunding.sol\":1899:1924  contributions[msg.sender] */\n      0xffffffffffffffffffffffffffffffffffffffff\n      and\n      0xffffffffffffffffffffffffffffffffffffffff\n      and\n      dup2\n      mstore\n      0x20\n      add\n      swap1\n      dup2\n      mstore\n      0x20\n      add\n      0x00\n      keccak256\n      sload\n        /* \"contracts/crowdfunding.sol\":1899:1928  contributions[msg.sender] > 0 */\n      gt\n        /* \"contracts/crowdfunding.sol\":1891:1954  require(contributions[msg.sender] > 0, \"No contribution found\") */\n      tag_96\n      jumpi\n      mload(0x40)\n      0x08c379a000000000000000000000000000000000000000000000000000000000\n      dup2\n      mstore\n      0x04\n      add\n      tag_97\n      swap1\n      tag_98\n      jump\t// in\n    tag_97:\n      mload(0x40)\n      dup1\n      swap2\n      sub\n      swap1\n      revert\n    tag_96:\n        /* \"contracts/crowdfunding.sol\":1973:1987  uint256 amount */\n      0x00\n        /* \"contracts/crowdfunding.sol\":1990:2003  contributions */\n      0x05\n        /* \"contracts/crowdfunding.sol\":1990:2015  contributions[msg.sender] */\n      0x00\n        /* \"contracts/crowdfunding.sol\":2004:2014  msg.sender */\n      caller\n        /* \"contracts/crowdfunding.sol\":1990:2015  contributions[msg.sender] */\n      0xffffffffffffffffffffffffffffffffffffffff\n      and\n      0xffffffffffffffffffffffffffffffffffffffff\n      and\n      dup2\n      mstore\n      0x20\n      add\n      swap1\n      dup2\n      mstore\n      0x20\n      add\n      0x00\n      keccak256\n      sload\n        /* \"contracts/crowdfunding.sol\":1973:2015  uint256 amount = contributions[msg.sender] */\n      swap1\n      pop\n        /* \"contracts/crowdfunding.sol\":2053:2054  0 */\n      0x00\n        /* \"contracts/crowdfunding.sol\":2025:2038  contributions */\n      0x05\n        /* \"contracts/crowdfunding.sol\":2025:2050  contributions[msg.sender] */\n      0x00\n        /* \"contracts/crowdfunding.sol\":2039:2049  msg.sender */\n      caller\n        /* \"contracts/crowdfunding.sol\":2025:2050  contributions[msg.sender] */\n      0xffffffffffffffffffffffffffffffffffffffff\n      and\n      0xffffffffffffffffffffffffffffffffffffffff\n      and\n      dup2\n      mstore\n      0x20\n      add\n      swap1\n      dup2\n      mstore\n      0x20\n      add\n      0x00\n      keccak256\n        /* \"contracts/crowdfunding.sol\":2025:2054  contributions[msg.sender] = 0 */\n      dup2\n      swap1\n      sstore\n      pop\n        /* \"contracts/crowdfunding.sol\":2065:2077  bool success */\n      0x00\n        /* \"contracts/crowdfunding.sol\":2091:2101  msg.sender */\n      caller\n        /* \"contracts/crowdfunding.sol\":2083:2107  payable(msg.sender).call */\n      0xffffffffffffffffffffffffffffffffffffffff\n      and\n        /* \"contracts/crowdfunding.sol\":2115:2121  amount */\n      dup3\n        /* \"contracts/crowdfunding.sol\":2083:2126  payable(msg.sender).call{value: amount}(\"\") */\n      mload(0x40)\n      tag_99\n      swap1\n      tag_82\n      jump\t// in\n    tag_99:\n      0x00\n      mload(0x40)\n      dup1\n      dup4\n      sub\n      dup2\n      dup6\n      dup8\n      gas\n      call\n      swap3\n      pop\n      pop\n      pop\n      returndatasize\n      dup1\n      0x00\n      dup2\n      eq\n      tag_102\n      jumpi\n      mload(0x40)\n      swap2\n      pop\n      and(add(returndatasize, 0x3f), not(0x1f))\n      dup3\n      add\n      0x40\n      mstore\n      returndatasize\n      dup3\n      mstore\n      returndatasize\n      0x00\n      0x20\n      dup5\n      add\n      returndatacopy\n      jump(tag_101)\n    tag_102:\n      0x60\n      swap2\n      pop\n    tag_101:\n      pop\n        /* \"contracts/crowdfunding.sol\":2064:2126  (bool success, ) = payable(msg.sender).call{value: amount}(\"\") */\n      pop\n      swap1\n      pop\n        /* \"contracts/crowdfunding.sol\":2144:2151  success */\n      dup1\n        /* \"contracts/crowdfunding.sol\":2136:2169  require(success, \"Refund failed\") */\n      tag_103\n      jumpi\n      mload(0x40)\n      0x08c379a000000000000000000000000000000000000000000000000000000000\n      dup2\n      mstore\n      0x04\n      add\n      tag_104\n      swap1\n      tag_105\n      jump\t// in\n    tag_104:\n      mload(0x40)\n      dup1\n      swap2\n      sub\n      swap1\n      revert\n    tag_103:\n        /* \"contracts/crowdfunding.sol\":1761:2176  {... */\n      pop\n      pop\n        /* \"contracts/crowdfunding.sol\":1733:2176  function getRefund() public {... */\n      jump\t// out\n        /* \"contracts/crowdfunding.sol\":239:265  uint256 public totalRaised */\n    tag_52:\n      sload(0x04)\n      dup2\n      jump\t// out\n        /* \"contracts/crowdfunding.sol\":1030:1273  function contribute() public payable {... */\n    tag_55:\n        /* \"contracts/crowdfunding.sol\":1086:1102  campaignActive() */\n      tag_107\n        /* \"contracts/crowdfunding.sol\":1086:1100  campaignActive */\n      tag_58\n        /* \"contracts/crowdfunding.sol\":1086:1102  campaignActive() */\n      jump\t// in\n    tag_107:\n        /* \"contracts/crowdfunding.sol\":1085:1102  !campaignActive() */\n      iszero\n        /* \"contracts/crowdfunding.sol\":1077:1126  require(!campaignActive(), \"Campaign not active\") */\n      tag_108\n      jumpi\n      mload(0x40)\n      0x08c379a000000000000000000000000000000000000000000000000000000000\n      dup2\n      mstore\n      0x04\n      add\n      tag_109\n      swap1\n      tag_110\n      jump\t// in\n    tag_109:\n      mload(0x40)\n      dup1\n      swap2\n      sub\n      swap1\n      revert\n    tag_108:\n        /* \"contracts/crowdfunding.sol\":1165:1174  msg.value */\n      callvalue\n        /* \"contracts/crowdfunding.sol\":1136:1149  contributions */\n      0x05\n        /* \"contracts/crowdfunding.sol\":1136:1161  contributions[msg.sender] */\n      0x00\n        /* \"contracts/crowdfunding.sol\":1150:1160  msg.sender */\n      caller\n        /* \"contracts/crowdfunding.sol\":1136:1161  contributions[msg.sender] */\n      0xffffffffffffffffffffffffffffffffffffffff\n      and\n      0xffffffffffffffffffffffffffffffffffffffff\n      and\n      dup2\n      mstore\n      0x20\n      add\n      swap1\n      dup2\n      mstore\n      0x20\n      add\n      0x00\n      keccak256\n      0x00\n        /* \"contracts/crowdfunding.sol\":1136:1174  contributions[msg.sender] += msg.value */\n      dup3\n      dup3\n      sload\n      tag_111\n      swap2\n      swap1\n      tag_112\n      jump\t// in\n    tag_111:\n      swap3\n      pop\n      pop\n      dup2\n      swap1\n      sstore\n      pop\n        /* \"contracts/crowdfunding.sol\":1199:1208  msg.value */\n      callvalue\n        /* \"contracts/crowdfunding.sol\":1184:1195  totalRaised */\n      0x04\n      0x00\n        /* \"contracts/crowdfunding.sol\":1184:1208  totalRaised += msg.value */\n      dup3\n      dup3\n      sload\n      tag_113\n      swap2\n      swap1\n      tag_112\n      jump\t// in\n    tag_113:\n      swap3\n      pop\n      pop\n      dup2\n      swap1\n      sstore\n      pop\n        /* \"contracts/crowdfunding.sol\":1223:1266  ContributionReceived(msg.sender, msg.value) */\n      0x1bb460ccaaf70fbacfec17a376f8acbd278c1405590ffcc8ebe4b88daf4f64ad\n        /* \"contracts/crowdfunding.sol\":1244:1254  msg.sender */\n      caller\n        /* \"contracts/crowdfunding.sol\":1256:1265  msg.value */\n      callvalue\n        /* \"contracts/crowdfunding.sol\":1223:1266  ContributionReceived(msg.sender, msg.value) */\n      mload(0x40)\n      tag_114\n      swap3\n      swap2\n      swap1\n      tag_115\n      jump\t// in\n    tag_114:\n      mload(0x40)\n      dup1\n      swap2\n      sub\n      swap1\n      log1\n        /* \"contracts/crowdfunding.sol\":1030:1273  function contribute() public payable {... */\n      jump\t// out\n        /* \"contracts/crowdfunding.sol\":2281:2385  function campaignActive() public view returns (bool) {... */\n    tag_58:\n        /* \"contracts/crowdfunding.sol\":2328:2332  bool */\n      0x00\n        /* \"contracts/crowdfunding.sol\":2370:2378  deadline */\n      sload(0x03)\n        /* \"contracts/crowdfunding.sol\":2351:2366  block.timestamp */\n      timestamp\n        /* \"contracts/crowdfunding.sol\":2351:2378  block.timestamp <= deadline */\n      gt\n      iszero\n        /* \"contracts/crowdfunding.sol\":2344:2378  return block.timestamp <= deadline */\n      swap1\n      pop\n        /* \"contracts/crowdfunding.sol\":2281:2385  function campaignActive() public view returns (bool) {... */\n      swap1\n      jump\t// out\n        /* \"#utility.yul\":7:133   */\n    tag_117:\n        /* \"#utility.yul\":44:51   */\n      0x00\n        /* \"#utility.yul\":84:126   */\n      0xffffffffffffffffffffffffffffffffffffffff\n        /* \"#utility.yul\":77:82   */\n      dup3\n        /* \"#utility.yul\":73:127   */\n      and\n        /* \"#utility.yul\":62:127   */\n      swap1\n      pop\n        /* \"#utility.yul\":7:133   */\n      swap2\n      swap1\n      pop\n      jump\t// out\n        /* \"#utility.yul\":139:243   */\n    tag_118:\n        /* \"#utility.yul\":184:191   */\n      0x00\n        /* \"#utility.yul\":213:237   */\n      tag_162\n        /* \"#utility.yul\":231:236   */\n      dup3\n        /* \"#utility.yul\":213:237   */\n      tag_117\n      jump\t// in\n    tag_162:\n        /* \"#utility.yul\":202:237   */\n      swap1\n      pop\n        /* \"#utility.yul\":139:243   */\n      swap2\n      swap1\n      pop\n      jump\t// out\n        /* \"#utility.yul\":249:391   */\n    tag_119:\n        /* \"#utility.yul\":352:384   */\n      tag_164\n        /* \"#utility.yul\":378:383   */\n      dup2\n        /* \"#utility.yul\":352:384   */\n      tag_118\n      jump\t// in\n    tag_164:\n        /* \"#utility.yul\":347:350   */\n      dup3\n        /* \"#utility.yul\":340:385   */\n      mstore\n        /* \"#utility.yul\":249:391   */\n      pop\n      pop\n      jump\t// out\n        /* \"#utility.yul\":397:651   */\n    tag_18:\n        /* \"#utility.yul\":506:510   */\n      0x00\n        /* \"#utility.yul\":544:546   */\n      0x20\n        /* \"#utility.yul\":533:542   */\n      dup3\n        /* \"#utility.yul\":529:547   */\n      add\n        /* \"#utility.yul\":521:547   */\n      swap1\n      pop\n        /* \"#utility.yul\":557:644   */\n      tag_166\n        /* \"#utility.yul\":641:642   */\n      0x00\n        /* \"#utility.yul\":630:639   */\n      dup4\n        /* \"#utility.yul\":626:643   */\n      add\n        /* \"#utility.yul\":617:623   */\n      dup5\n        /* \"#utility.yul\":557:644   */\n      tag_119\n      jump\t// in\n    tag_166:\n        /* \"#utility.yul\":397:651   */\n      swap3\n      swap2\n      pop\n      pop\n      jump\t// out\n        /* \"#utility.yul\":657:734   */\n    tag_120:\n        /* \"#utility.yul\":694:701   */\n      0x00\n        /* \"#utility.yul\":723:728   */\n      dup2\n        /* \"#utility.yul\":712:728   */\n      swap1\n      pop\n        /* \"#utility.yul\":657:734   */\n      swap2\n      swap1\n      pop\n      jump\t// out\n        /* \"#utility.yul\":740:858   */\n    tag_121:\n        /* \"#utility.yul\":827:851   */\n      tag_169\n        /* \"#utility.yul\":845:850   */\n      dup2\n        /* \"#utility.yul\":827:851   */\n      tag_120\n      jump\t// in\n    tag_169:\n        /* \"#utility.yul\":822:825   */\n      dup3\n        /* \"#utility.yul\":815:852   */\n      mstore\n        /* \"#utility.yul\":740:858   */\n      pop\n      pop\n      jump\t// out\n        /* \"#utility.yul\":864:1086   */\n    tag_23:\n        /* \"#utility.yul\":957:961   */\n      0x00\n        /* \"#utility.yul\":995:997   */\n      0x20\n        /* \"#utility.yul\":984:993   */\n      dup3\n        /* \"#utility.yul\":980:998   */\n      add\n        /* \"#utility.yul\":972:998   */\n      swap1\n      pop\n        /* \"#utility.yul\":1008:1079   */\n      tag_171\n        /* \"#utility.yul\":1076:1077   */\n      0x00\n        /* \"#utility.yul\":1065:1074   */\n      dup4\n        /* \"#utility.yul\":1061:1078   */\n      add\n        /* \"#utility.yul\":1052:1058   */\n      dup5\n        /* \"#utility.yul\":1008:1079   */\n      tag_121\n      jump\t// in\n    tag_171:\n        /* \"#utility.yul\":864:1086   */\n      swap3\n      swap2\n      pop\n      pop\n      jump\t// out\n        /* \"#utility.yul\":1173:1290   */\n    tag_123:\n        /* \"#utility.yul\":1282:1283   */\n      0x00\n        /* \"#utility.yul\":1279:1280   */\n      dup1\n        /* \"#utility.yul\":1272:1284   */\n      revert\n        /* \"#utility.yul\":1419:1515   */\n    tag_125:\n        /* \"#utility.yul\":1456:1463   */\n      0x00\n        /* \"#utility.yul\":1485:1509   */\n      tag_176\n        /* \"#utility.yul\":1503:1508   */\n      dup3\n        /* \"#utility.yul\":1485:1509   */\n      tag_117\n      jump\t// in\n    tag_176:\n        /* \"#utility.yul\":1474:1509   */\n      swap1\n      pop\n        /* \"#utility.yul\":1419:1515   */\n      swap2\n      swap1\n      pop\n      jump\t// out\n        /* \"#utility.yul\":1521:1643   */\n    tag_126:\n        /* \"#utility.yul\":1594:1618   */\n      tag_178\n        /* \"#utility.yul\":1612:1617   */\n      dup2\n        /* \"#utility.yul\":1594:1618   */\n      tag_125\n      jump\t// in\n    tag_178:\n        /* \"#utility.yul\":1587:1592   */\n      dup2\n        /* \"#utility.yul\":1584:1619   */\n      eq\n        /* \"#utility.yul\":1574:1637   */\n      tag_179\n      jumpi\n        /* \"#utility.yul\":1633:1634   */\n      0x00\n        /* \"#utility.yul\":1630:1631   */\n      dup1\n        /* \"#utility.yul\":1623:1635   */\n      revert\n        /* \"#utility.yul\":1574:1637   */\n    tag_179:\n        /* \"#utility.yul\":1521:1643   */\n      pop\n      jump\t// out\n        /* \"#utility.yul\":1649:1788   */\n    tag_127:\n        /* \"#utility.yul\":1695:1700   */\n      0x00\n        /* \"#utility.yul\":1733:1739   */\n      dup2\n        /* \"#utility.yul\":1720:1740   */\n      calldataload\n        /* \"#utility.yul\":1711:1740   */\n      swap1\n      pop\n        /* \"#utility.yul\":1749:1782   */\n      tag_181\n        /* \"#utility.yul\":1776:1781   */\n      dup2\n        /* \"#utility.yul\":1749:1782   */\n      tag_126\n      jump\t// in\n    tag_181:\n        /* \"#utility.yul\":1649:1788   */\n      swap3\n      swap2\n      pop\n      pop\n      jump\t// out\n        /* \"#utility.yul\":1794:2123   */\n    tag_31:\n        /* \"#utility.yul\":1853:1859   */\n      0x00\n        /* \"#utility.yul\":1902:1904   */\n      0x20\n        /* \"#utility.yul\":1890:1899   */\n      dup3\n        /* \"#utility.yul\":1881:1888   */\n      dup5\n        /* \"#utility.yul\":1877:1900   */\n      sub\n        /* \"#utility.yul\":1873:1905   */\n      slt\n        /* \"#utility.yul\":1870:1989   */\n      iszero\n      tag_183\n      jumpi\n        /* \"#utility.yul\":1908:1987   */\n      tag_184\n      tag_123\n      jump\t// in\n    tag_184:\n        /* \"#utility.yul\":1870:1989   */\n    tag_183:\n        /* \"#utility.yul\":2028:2029   */\n      0x00\n        /* \"#utility.yul\":2053:2106   */\n      tag_185\n        /* \"#utility.yul\":2098:2105   */\n      dup5\n        /* \"#utility.yul\":2089:2095   */\n      dup3\n        /* \"#utility.yul\":2078:2087   */\n      dup6\n        /* \"#utility.yul\":2074:2096   */\n      add\n        /* \"#utility.yul\":2053:2106   */\n      tag_127\n      jump\t// in\n    tag_185:\n        /* \"#utility.yul\":2043:2106   */\n      swap2\n      pop\n        /* \"#utility.yul\":1999:2116   */\n      pop\n        /* \"#utility.yul\":1794:2123   */\n      swap3\n      swap2\n      pop\n      pop\n      jump\t// out\n        /* \"#utility.yul\":2129:2228   */\n    tag_128:\n        /* \"#utility.yul\":2181:2187   */\n      0x00\n        /* \"#utility.yul\":2215:2220   */\n      dup2\n        /* \"#utility.yul\":2209:2221   */\n      mload\n        /* \"#utility.yul\":2199:2221   */\n      swap1\n      pop\n        /* \"#utility.yul\":2129:2228   */\n      swap2\n      swap1\n      pop\n      jump\t// out\n        /* \"#utility.yul\":2234:2403   */\n    tag_129:\n        /* \"#utility.yul\":2318:2329   */\n      0x00\n        /* \"#utility.yul\":2352:2358   */\n      dup3\n        /* \"#utility.yul\":2347:2350   */\n      dup3\n        /* \"#utility.yul\":2340:2359   */\n      mstore\n        /* \"#utility.yul\":2392:2396   */\n      0x20\n        /* \"#utility.yul\":2387:2390   */\n      dup3\n        /* \"#utility.yul\":2383:2397   */\n      add\n        /* \"#utility.yul\":2368:2397   */\n      swap1\n      pop\n        /* \"#utility.yul\":2234:2403   */\n      swap3\n      swap2\n      pop\n      pop\n      jump\t// out\n        /* \"#utility.yul\":2409:2548   */\n    tag_130:\n        /* \"#utility.yul\":2498:2504   */\n      dup3\n        /* \"#utility.yul\":2493:2496   */\n      dup2\n        /* \"#utility.yul\":2488:2491   */\n      dup4\n        /* \"#utility.yul\":2482:2505   */\n      mcopy\n        /* \"#utility.yul\":2539:2540   */\n      0x00\n        /* \"#utility.yul\":2530:2536   */\n      dup4\n        /* \"#utility.yul\":2525:2528   */\n      dup4\n        /* \"#utility.yul\":2521:2537   */\n      add\n        /* \"#utility.yul\":2514:2541   */\n      mstore\n        /* \"#utility.yul\":2409:2548   */\n      pop\n      pop\n      pop\n      jump\t// out\n        /* \"#utility.yul\":2554:2656   */\n    tag_131:\n        /* \"#utility.yul\":2595:2601   */\n      0x00\n        /* \"#utility.yul\":2646:2648   */\n      0x1f\n        /* \"#utility.yul\":2642:2649   */\n      not\n        /* \"#utility.yul\":2637:2639   */\n      0x1f\n        /* \"#utility.yul\":2630:2635   */\n      dup4\n        /* \"#utility.yul\":2626:2640   */\n      add\n        /* \"#utility.yul\":2622:2650   */\n      and\n        /* \"#utility.yul\":2612:2650   */\n      swap1\n      pop\n        /* \"#utility.yul\":2554:2656   */\n      swap2\n      swap1\n      pop\n      jump\t// out\n        /* \"#utility.yul\":2662:3039   */\n    tag_132:\n        /* \"#utility.yul\":2750:2753   */\n      0x00\n        /* \"#utility.yul\":2778:2817   */\n      tag_191\n        /* \"#utility.yul\":2811:2816   */\n      dup3\n        /* \"#utility.yul\":2778:2817   */\n      tag_128\n      jump\t// in\n    tag_191:\n        /* \"#utility.yul\":2833:2904   */\n      tag_192\n        /* \"#utility.yul\":2897:2903   */\n      dup2\n        /* \"#utility.yul\":2892:2895   */\n      dup6\n        /* \"#utility.yul\":2833:2904   */\n      tag_129\n      jump\t// in\n    tag_192:\n        /* \"#utility.yul\":2826:2904   */\n      swap4\n      pop\n        /* \"#utility.yul\":2913:2978   */\n      tag_193\n        /* \"#utility.yul\":2971:2977   */\n      dup2\n        /* \"#utility.yul\":2966:2969   */\n      dup6\n        /* \"#utility.yul\":2959:2963   */\n      0x20\n        /* \"#utility.yul\":2952:2957   */\n      dup7\n        /* \"#utility.yul\":2948:2964   */\n      add\n        /* \"#utility.yul\":2913:2978   */\n      tag_130\n      jump\t// in\n    tag_193:\n        /* \"#utility.yul\":3003:3032   */\n      tag_194\n        /* \"#utility.yul\":3025:3031   */\n      dup2\n        /* \"#utility.yul\":3003:3032   */\n      tag_131\n      jump\t// in\n    tag_194:\n        /* \"#utility.yul\":2998:3001   */\n      dup5\n        /* \"#utility.yul\":2994:3033   */\n      add\n        /* \"#utility.yul\":2987:3033   */\n      swap2\n      pop\n        /* \"#utility.yul\":2754:3039   */\n      pop\n        /* \"#utility.yul\":2662:3039   */\n      swap3\n      swap2\n      pop\n      pop\n      jump\t// out\n        /* \"#utility.yul\":3045:3358   */\n    tag_38:\n        /* \"#utility.yul\":3158:3162   */\n      0x00\n        /* \"#utility.yul\":3196:3198   */\n      0x20\n        /* \"#utility.yul\":3185:3194   */\n      dup3\n        /* \"#utility.yul\":3181:3199   */\n      add\n        /* \"#utility.yul\":3173:3199   */\n      swap1\n      pop\n        /* \"#utility.yul\":3245:3254   */\n      dup2\n        /* \"#utility.yul\":3239:3243   */\n      dup2\n        /* \"#utility.yul\":3235:3255   */\n      sub\n        /* \"#utility.yul\":3231:3232   */\n      0x00\n        /* \"#utility.yul\":3220:3229   */\n      dup4\n        /* \"#utility.yul\":3216:3233   */\n      add\n        /* \"#utility.yul\":3209:3256   */\n      mstore\n        /* \"#utility.yul\":3273:3351   */\n      tag_196\n        /* \"#utility.yul\":3346:3350   */\n      dup2\n        /* \"#utility.yul\":3337:3343   */\n      dup5\n        /* \"#utility.yul\":3273:3351   */\n      tag_132\n      jump\t// in\n    tag_196:\n        /* \"#utility.yul\":3265:3351   */\n      swap1\n      pop\n        /* \"#utility.yul\":3045:3358   */\n      swap3\n      swap2\n      pop\n      pop\n      jump\t// out\n        /* \"#utility.yul\":3364:3454   */\n    tag_133:\n        /* \"#utility.yul\":3398:3405   */\n      0x00\n        /* \"#utility.yul\":3441:3446   */\n      dup2\n        /* \"#utility.yul\":3434:3447   */\n      iszero\n        /* \"#utility.yul\":3427:3448   */\n      iszero\n        /* \"#utility.yul\":3416:3448   */\n      swap1\n      pop\n        /* \"#utility.yul\":3364:3454   */\n      swap2\n      swap1\n      pop\n      jump\t// out\n        /* \"#utility.yul\":3460:3569   */\n    tag_134:\n        /* \"#utility.yul\":3541:3562   */\n      tag_199\n        /* \"#utility.yul\":3556:3561   */\n      dup2\n        /* \"#utility.yul\":3541:3562   */\n      tag_133\n      jump\t// in\n    tag_199:\n        /* \"#utility.yul\":3536:3539   */\n      dup3\n        /* \"#utility.yul\":3529:3563   */\n      mstore\n        /* \"#utility.yul\":3460:3569   */\n      pop\n      pop\n      jump\t// out\n        /* \"#utility.yul\":3575:3785   */\n    tag_43:\n        /* \"#utility.yul\":3662:3666   */\n      0x00\n        /* \"#utility.yul\":3700:3702   */\n      0x20\n        /* \"#utility.yul\":3689:3698   */\n      dup3\n        /* \"#utility.yul\":3685:3703   */\n      add\n        /* \"#utility.yul\":3677:3703   */\n      swap1\n      pop\n        /* \"#utility.yul\":3713:3778   */\n      tag_201\n        /* \"#utility.yul\":3775:3776   */\n      0x00\n        /* \"#utility.yul\":3764:3773   */\n      dup4\n        /* \"#utility.yul\":3760:3777   */\n      add\n        /* \"#utility.yul\":3751:3757   */\n      dup5\n        /* \"#utility.yul\":3713:3778   */\n      tag_134\n      jump\t// in\n    tag_201:\n        /* \"#utility.yul\":3575:3785   */\n      swap3\n      swap2\n      pop\n      pop\n      jump\t// out\n        /* \"#utility.yul\":3791:3971   */\n    tag_135:\n        /* \"#utility.yul\":3839:3916   */\n      0x4e487b7100000000000000000000000000000000000000000000000000000000\n        /* \"#utility.yul\":3836:3837   */\n      0x00\n        /* \"#utility.yul\":3829:3917   */\n      mstore\n        /* \"#utility.yul\":3936:3940   */\n      0x22\n        /* \"#utility.yul\":3933:3934   */\n      0x04\n        /* \"#utility.yul\":3926:3941   */\n      mstore\n        /* \"#utility.yul\":3960:3964   */\n      0x24\n        /* \"#utility.yul\":3957:3958   */\n      0x00\n        /* \"#utility.yul\":3950:3965   */\n      revert\n        /* \"#utility.yul\":3977:4297   */\n    tag_61:\n        /* \"#utility.yul\":4021:4027   */\n      0x00\n        /* \"#utility.yul\":4058:4059   */\n      0x02\n        /* \"#utility.yul\":4052:4056   */\n      dup3\n        /* \"#utility.yul\":4048:4060   */\n      div\n        /* \"#utility.yul\":4038:4060   */\n      swap1\n      pop\n        /* \"#utility.yul\":4105:4106   */\n      0x01\n        /* \"#utility.yul\":4099:4103   */\n      dup3\n        /* \"#utility.yul\":4095:4107   */\n      and\n        /* \"#utility.yul\":4126:4144   */\n      dup1\n        /* \"#utility.yul\":4116:4197   */\n      tag_204\n      jumpi\n        /* \"#utility.yul\":4182:4186   */\n      0x7f\n        /* \"#utility.yul\":4174:4180   */\n      dup3\n        /* \"#utility.yul\":4170:4187   */\n      and\n        /* \"#utility.yul\":4160:4187   */\n      swap2\n      pop\n        /* \"#utility.yul\":4116:4197   */\n    tag_204:\n        /* \"#utility.yul\":4244:4246   */\n      0x20\n        /* \"#utility.yul\":4236:4242   */\n      dup3\n        /* \"#utility.yul\":4233:4247   */\n      lt\n        /* \"#utility.yul\":4213:4231   */\n      dup2\n        /* \"#utility.yul\":4210:4248   */\n      sub\n        /* \"#utility.yul\":4207:4291   */\n      tag_205\n      jumpi\n        /* \"#utility.yul\":4263:4281   */\n      tag_206\n      tag_135\n      jump\t// in\n    tag_206:\n        /* \"#utility.yul\":4207:4291   */\n    tag_205:\n        /* \"#utility.yul\":4028:4297   */\n      pop\n        /* \"#utility.yul\":3977:4297   */\n      swap2\n      swap1\n      pop\n      jump\t// out\n        /* \"#utility.yul\":4303:4475   */\n    tag_136:\n        /* \"#utility.yul\":4443:4467   */\n      0x4f6e6c792063726561746f722063616e20636c61696d00000000000000000000\n        /* \"#utility.yul\":4439:4440   */\n      0x00\n        /* \"#utility.yul\":4431:4437   */\n      dup3\n        /* \"#utility.yul\":4427:4441   */\n      add\n        /* \"#utility.yul\":4420:4468   */\n      mstore\n        /* \"#utility.yul\":4303:4475   */\n      pop\n      jump\t// out\n        /* \"#utility.yul\":4481:4847   */\n    tag_137:\n        /* \"#utility.yul\":4623:4626   */\n      0x00\n        /* \"#utility.yul\":4644:4711   */\n      tag_209\n        /* \"#utility.yul\":4708:4710   */\n      0x16\n        /* \"#utility.yul\":4703:4706   */\n      dup4\n        /* \"#utility.yul\":4644:4711   */\n      tag_129\n      jump\t// in\n    tag_209:\n        /* \"#utility.yul\":4637:4711   */\n      swap2\n      pop\n        /* \"#utility.yul\":4720:4813   */\n      tag_210\n        /* \"#utility.yul\":4809:4812   */\n      dup3\n        /* \"#utility.yul\":4720:4813   */\n      tag_136\n      jump\t// in\n    tag_210:\n        /* \"#utility.yul\":4838:4840   */\n      0x20\n        /* \"#utility.yul\":4833:4836   */\n      dup3\n        /* \"#utility.yul\":4829:4841   */\n      add\n        /* \"#utility.yul\":4822:4841   */\n      swap1\n      pop\n        /* \"#utility.yul\":4481:4847   */\n      swap2\n      swap1\n      pop\n      jump\t// out\n        /* \"#utility.yul\":4853:5272   */\n    tag_70:\n        /* \"#utility.yul\":5019:5023   */\n      0x00\n        /* \"#utility.yul\":5057:5059   */\n      0x20\n        /* \"#utility.yul\":5046:5055   */\n      dup3\n        /* \"#utility.yul\":5042:5060   */\n      add\n        /* \"#utility.yul\":5034:5060   */\n      swap1\n      pop\n        /* \"#utility.yul\":5106:5115   */\n      dup2\n        /* \"#utility.yul\":5100:5104   */\n      dup2\n        /* \"#utility.yul\":5096:5116   */\n      sub\n        /* \"#utility.yul\":5092:5093   */\n      0x00\n        /* \"#utility.yul\":5081:5090   */\n      dup4\n        /* \"#utility.yul\":5077:5094   */\n      add\n        /* \"#utility.yul\":5070:5117   */\n      mstore\n        /* \"#utility.yul\":5134:5265   */\n      tag_212\n        /* \"#utility.yul\":5260:5264   */\n      dup2\n        /* \"#utility.yul\":5134:5265   */\n      tag_137\n      jump\t// in\n    tag_212:\n        /* \"#utility.yul\":5126:5265   */\n      swap1\n      pop\n        /* \"#utility.yul\":4853:5272   */\n      swap2\n      swap1\n      pop\n      jump\t// out\n        /* \"#utility.yul\":5278:5446   */\n    tag_138:\n        /* \"#utility.yul\":5418:5438   */\n      0x43616d706169676e206e6f7420656e6465640000000000000000000000000000\n        /* \"#utility.yul\":5414:5415   */\n      0x00\n        /* \"#utility.yul\":5406:5412   */\n      dup3\n        /* \"#utility.yul\":5402:5416   */\n      add\n        /* \"#utility.yul\":5395:5439   */\n      mstore\n        /* \"#utility.yul\":5278:5446   */\n      pop\n      jump\t// out\n        /* \"#utility.yul\":5452:5818   */\n    tag_139:\n        /* \"#utility.yul\":5594:5597   */\n      0x00\n        /* \"#utility.yul\":5615:5682   */\n      tag_215\n        /* \"#utility.yul\":5679:5681   */\n      0x12\n        /* \"#utility.yul\":5674:5677   */\n      dup4\n        /* \"#utility.yul\":5615:5682   */\n      tag_129\n      jump\t// in\n    tag_215:\n        /* \"#utility.yul\":5608:5682   */\n      swap2\n      pop\n        /* \"#utility.yul\":5691:5784   */\n      tag_216\n        /* \"#utility.yul\":5780:5783   */\n      dup3\n        /* \"#utility.yul\":5691:5784   */\n      tag_138\n      jump\t// in\n    tag_216:\n        /* \"#utility.yul\":5809:5811   */\n      0x20\n        /* \"#utility.yul\":5804:5807   */\n      dup3\n        /* \"#utility.yul\":5800:5812   */\n      add\n        /* \"#utility.yul\":5793:5812   */\n      swap1\n      pop\n        /* \"#utility.yul\":5452:5818   */\n      swap2\n      swap1\n      pop\n      jump\t// out\n        /* \"#utility.yul\":5824:6243   */\n    tag_73:\n        /* \"#utility.yul\":5990:5994   */\n      0x00\n        /* \"#utility.yul\":6028:6030   */\n      0x20\n        /* \"#utility.yul\":6017:6026   */\n      dup3\n        /* \"#utility.yul\":6013:6031   */\n      add\n        /* \"#utility.yul\":6005:6031   */\n      swap1\n      pop\n        /* \"#utility.yul\":6077:6086   */\n      dup2\n        /* \"#utility.yul\":6071:6075   */\n      dup2\n        /* \"#utility.yul\":6067:6087   */\n      sub\n        /* \"#utility.yul\":6063:6064   */\n      0x00\n        /* \"#utility.yul\":6052:6061   */\n      dup4\n        /* \"#utility.yul\":6048:6065   */\n      add\n        /* \"#utility.yul\":6041:6088   */\n      mstore\n        /* \"#utility.yul\":6105:6236   */\n      tag_218\n        /* \"#utility.yul\":6231:6235   */\n      dup2\n        /* \"#utility.yul\":6105:6236   */\n      tag_139\n      jump\t// in\n    tag_218:\n        /* \"#utility.yul\":6097:6236   */\n      swap1\n      pop\n        /* \"#utility.yul\":5824:6243   */\n      swap2\n      swap1\n      pop\n      jump\t// out\n        /* \"#utility.yul\":6249:6415   */\n    tag_140:\n        /* \"#utility.yul\":6389:6407   */\n      0x476f616c206e6f74207265616368656400000000000000000000000000000000\n        /* \"#utility.yul\":6385:6386   */\n      0x00\n        /* \"#utility.yul\":6377:6383   */\n      dup3\n        /* \"#utility.yul\":6373:6387   */\n      add\n        /* \"#utility.yul\":6366:6408   */\n      mstore\n        /* \"#utility.yul\":6249:6415   */\n      pop\n      jump\t// out\n        /* \"#utility.yul\":6421:6787   */\n    tag_141:\n        /* \"#utility.yul\":6563:6566   */\n      0x00\n        /* \"#utility.yul\":6584:6651   */\n      tag_221\n        /* \"#utility.yul\":6648:6650   */\n      0x10\n        /* \"#utility.yul\":6643:6646   */\n      dup4\n        /* \"#utility.yul\":6584:6651   */\n      tag_129\n      jump\t// in\n    tag_221:\n        /* \"#utility.yul\":6577:6651   */\n      swap2\n      pop\n        /* \"#utility.yul\":6660:6753   */\n      tag_222\n        /* \"#utility.yul\":6749:6752   */\n      dup3\n        /* \"#utility.yul\":6660:6753   */\n      tag_140\n      jump\t// in\n    tag_222:\n        /* \"#utility.yul\":6778:6780   */\n      0x20\n        /* \"#utility.yul\":6773:6776   */\n      dup3\n        /* \"#utility.yul\":6769:6781   */\n      add\n        /* \"#utility.yul\":6762:6781   */\n      swap1\n      pop\n        /* \"#utility.yul\":6421:6787   */\n      swap2\n      swap1\n      pop\n      jump\t// out\n        /* \"#utility.yul\":6793:7212   */\n    tag_77:\n        /* \"#utility.yul\":6959:6963   */\n      0x00\n        /* \"#utility.yul\":6997:6999   */\n      0x20\n        /* \"#utility.yul\":6986:6995   */\n      dup3\n        /* \"#utility.yul\":6982:7000   */\n      add\n        /* \"#utility.yul\":6974:7000   */\n      swap1\n      pop\n        /* \"#utility.yul\":7046:7055   */\n      dup2\n        /* \"#utility.yul\":7040:7044   */\n      dup2\n        /* \"#utility.yul\":7036:7056   */\n      sub\n        /* \"#utility.yul\":7032:7033   */\n      0x00\n        /* \"#utility.yul\":7021:7030   */\n      dup4\n        /* \"#utility.yul\":7017:7034   */\n      add\n        /* \"#utility.yul\":7010:7057   */\n      mstore\n        /* \"#utility.yul\":7074:7205   */\n      tag_224\n        /* \"#utility.yul\":7200:7204   */\n      dup2\n        /* \"#utility.yul\":7074:7205   */\n      tag_141\n      jump\t// in\n    tag_224:\n        /* \"#utility.yul\":7066:7205   */\n      swap1\n      pop\n        /* \"#utility.yul\":6793:7212   */\n      swap2\n      swap1\n      pop\n      jump\t// out\n        /* \"#utility.yul\":7218:7385   */\n    tag_142:\n        /* \"#utility.yul\":7358:7377   */\n      0x4e6f2066756e647320746f20636c61696d000000000000000000000000000000\n        /* \"#utility.yul\":7354:7355   */\n      0x00\n        /* \"#utility.yul\":7346:7352   */\n      dup3\n        /* \"#utility.yul\":7342:7356   */\n      add\n        /* \"#utility.yul\":7335:7378   */\n      mstore\n        /* \"#utility.yul\":7218:7385   */\n      pop\n      jump\t// out\n        /* \"#utility.yul\":7391:7757   */\n    tag_143:\n        /* \"#utility.yul\":7533:7536   */\n      0x00\n        /* \"#utility.yul\":7554:7621   */\n      tag_227\n        /* \"#utility.yul\":7618:7620   */\n      0x11\n        /* \"#utility.yul\":7613:7616   */\n      dup4\n        /* \"#utility.yul\":7554:7621   */\n      tag_129\n      jump\t// in\n    tag_227:\n        /* \"#utility.yul\":7547:7621   */\n      swap2\n      pop\n        /* \"#utility.yul\":7630:7723   */\n      tag_228\n        /* \"#utility.yul\":7719:7722   */\n      dup3\n        /* \"#utility.yul\":7630:7723   */\n      tag_142\n      jump\t// in\n    tag_228:\n        /* \"#utility.yul\":7748:7750   */\n      0x20\n        /* \"#utility.yul\":7743:7746   */\n      dup3\n        /* \"#utility.yul\":7739:7751   */\n      add\n        /* \"#utility.yul\":7732:7751   */\n      swap1\n      pop\n        /* \"#utility.yul\":7391:7757   */\n      swap2\n      swap1\n      pop\n      jump\t// out\n        /* \"#utility.yul\":7763:8182   */\n    tag_80:\n        /* \"#utility.yul\":7929:7933   */\n      0x00\n        /* \"#utility.yul\":7967:7969   */\n      0x20\n        /* \"#utility.yul\":7956:7965   */\n      dup3\n        /* \"#utility.yul\":7952:7970   */\n      add\n        /* \"#utility.yul\":7944:7970   */\n      swap1\n      pop\n        /* \"#utility.yul\":8016:8025   */\n      dup2\n        /* \"#utility.yul\":8010:8014   */\n      dup2\n        /* \"#utility.yul\":8006:8026   */\n      sub\n        /* \"#utility.yul\":8002:8003   */\n      0x00\n        /* \"#utility.yul\":7991:8000   */\n      dup4\n        /* \"#utility.yul\":7987:8004   */\n      add\n        /* \"#utility.yul\":7980:8027   */\n      mstore\n        /* \"#utility.yul\":8044:8175   */\n      tag_230\n        /* \"#utility.yul\":8170:8174   */\n      dup2\n        /* \"#utility.yul\":8044:8175   */\n      tag_143\n      jump\t// in\n    tag_230:\n        /* \"#utility.yul\":8036:8175   */\n      swap1\n      pop\n        /* \"#utility.yul\":7763:8182   */\n      swap2\n      swap1\n      pop\n      jump\t// out\n        /* \"#utility.yul\":8188:8335   */\n    tag_144:\n        /* \"#utility.yul\":8289:8300   */\n      0x00\n        /* \"#utility.yul\":8326:8329   */\n      dup2\n        /* \"#utility.yul\":8311:8329   */\n      swap1\n      pop\n        /* \"#utility.yul\":8188:8335   */\n      swap3\n      swap2\n      pop\n      pop\n      jump\t// out\n        /* \"#utility.yul\":8341:8455   */\n    tag_145:\n      pop\n      jump\t// out\n        /* \"#utility.yul\":8461:8859   */\n    tag_146:\n        /* \"#utility.yul\":8620:8623   */\n      0x00\n        /* \"#utility.yul\":8641:8724   */\n      tag_234\n        /* \"#utility.yul\":8722:8723   */\n      0x00\n        /* \"#utility.yul\":8717:8720   */\n      dup4\n        /* \"#utility.yul\":8641:8724   */\n      tag_144\n      jump\t// in\n    tag_234:\n        /* \"#utility.yul\":8634:8724   */\n      swap2\n      pop\n        /* \"#utility.yul\":8733:8826   */\n      tag_235\n        /* \"#utility.yul\":8822:8825   */\n      dup3\n        /* \"#utility.yul\":8733:8826   */\n      tag_145\n      jump\t// in\n    tag_235:\n        /* \"#utility.yul\":8851:8852   */\n      0x00\n        /* \"#utility.yul\":8846:8849   */\n      dup3\n        /* \"#utility.yul\":8842:8853   */\n      add\n        /* \"#utility.yul\":8835:8853   */\n      swap1\n      pop\n        /* \"#utility.yul\":8461:8859   */\n      swap2\n      swap1\n      pop\n      jump\t// out\n        /* \"#utility.yul\":8865:9244   */\n    tag_82:\n        /* \"#utility.yul\":9049:9052   */\n      0x00\n        /* \"#utility.yul\":9071:9218   */\n      tag_237\n        /* \"#utility.yul\":9214:9217   */\n      dup3\n        /* \"#utility.yul\":9071:9218   */\n      tag_146\n      jump\t// in\n    tag_237:\n        /* \"#utility.yul\":9064:9218   */\n      swap2\n      pop\n        /* \"#utility.yul\":9235:9238   */\n      dup2\n        /* \"#utility.yul\":9228:9238   */\n      swap1\n      pop\n        /* \"#utility.yul\":8865:9244   */\n      swap2\n      swap1\n      pop\n      jump\t// out\n        /* \"#utility.yul\":9250:9415   */\n    tag_147:\n        /* \"#utility.yul\":9390:9407   */\n      0x5472616e73666572206661696c65640000000000000000000000000000000000\n        /* \"#utility.yul\":9386:9387   */\n      0x00\n        /* \"#utility.yul\":9378:9384   */\n      dup3\n        /* \"#utility.yul\":9374:9388   */\n      add\n        /* \"#utility.yul\":9367:9408   */\n      mstore\n        /* \"#utility.yul\":9250:9415   */\n      pop\n      jump\t// out\n        /* \"#utility.yul\":9421:9787   */\n    tag_148:\n        /* \"#utility.yul\":9563:9566   */\n      0x00\n        /* \"#utility.yul\":9584:9651   */\n      tag_240\n        /* \"#utility.yul\":9648:9650   */\n      0x0f\n        /* \"#utility.yul\":9643:9646   */\n      dup4\n        /* \"#utility.yul\":9584:9651   */\n      tag_129\n      jump\t// in\n    tag_240:\n        /* \"#utility.yul\":9577:9651   */\n      swap2\n      pop\n        /* \"#utility.yul\":9660:9753   */\n      tag_241\n        /* \"#utility.yul\":9749:9752   */\n      dup3\n        /* \"#utility.yul\":9660:9753   */\n      tag_147\n      jump\t// in\n    tag_241:\n        /* \"#utility.yul\":9778:9780   */\n      0x20\n        /* \"#utility.yul\":9773:9776   */\n      dup3\n        /* \"#utility.yul\":9769:9781   */\n      add\n        /* \"#utility.yul\":9762:9781   */\n      swap1\n      pop\n        /* \"#utility.yul\":9421:9787   */\n      swap2\n      swap1\n      pop\n      jump\t// out\n        /* \"#utility.yul\":9793:10212   */\n    tag_88:\n        /* \"#utility.yul\":9959:9963   */\n      0x00\n        /* \"#utility.yul\":9997:9999   */\n      0x20\n        /* \"#utility.yul\":9986:9995   */\n      dup3\n        /* \"#utility.yul\":9982:10000   */\n      add\n        /* \"#utility.yul\":9974:10000   */\n      swap1\n      pop\n        /* \"#utility.yul\":10046:10055   */\n      dup2\n        /* \"#utility.yul\":10040:10044   */\n      dup2\n        /* \"#utility.yul\":10036:10056   */\n      sub\n        /* \"#utility.yul\":10032:10033   */\n      0x00\n        /* \"#utility.yul\":10021:10030   */\n      dup4\n        /* \"#utility.yul\":10017:10034   */\n      add\n        /* \"#utility.yul\":10010:10057   */\n      mstore\n        /* \"#utility.yul\":10074:10205   */\n      tag_243\n        /* \"#utility.yul\":10200:10204   */\n      dup2\n        /* \"#utility.yul\":10074:10205   */\n      tag_148\n      jump\t// in\n    tag_243:\n        /* \"#utility.yul\":10066:10205   */\n      swap1\n      pop\n        /* \"#utility.yul\":9793:10212   */\n      swap2\n      swap1\n      pop\n      jump\t// out\n        /* \"#utility.yul\":10218:10384   */\n    tag_149:\n        /* \"#utility.yul\":10358:10376   */\n      0x476f616c20776173207265616368656400000000000000000000000000000000\n        /* \"#utility.yul\":10354:10355   */\n      0x00\n        /* \"#utility.yul\":10346:10352   */\n      dup3\n        /* \"#utility.yul\":10342:10356   */\n      add\n        /* \"#utility.yul\":10335:10377   */\n      mstore\n        /* \"#utility.yul\":10218:10384   */\n      pop\n      jump\t// out\n        /* \"#utility.yul\":10390:10756   */\n    tag_150:\n        /* \"#utility.yul\":10532:10535   */\n      0x00\n        /* \"#utility.yul\":10553:10620   */\n      tag_246\n        /* \"#utility.yul\":10617:10619   */\n      0x10\n        /* \"#utility.yul\":10612:10615   */\n      dup4\n        /* \"#utility.yul\":10553:10620   */\n      tag_129\n      jump\t// in\n    tag_246:\n        /* \"#utility.yul\":10546:10620   */\n      swap2\n      pop\n        /* \"#utility.yul\":10629:10722   */\n      tag_247\n        /* \"#utility.yul\":10718:10721   */\n      dup3\n        /* \"#utility.yul\":10629:10722   */\n      tag_149\n      jump\t// in\n    tag_247:\n        /* \"#utility.yul\":10747:10749   */\n      0x20\n        /* \"#utility.yul\":10742:10745   */\n      dup3\n        /* \"#utility.yul\":10738:10750   */\n      add\n        /* \"#utility.yul\":10731:10750   */\n      swap1\n      pop\n        /* \"#utility.yul\":10390:10756   */\n      swap2\n      swap1\n      pop\n      jump\t// out\n        /* \"#utility.yul\":10762:11181   */\n    tag_95:\n        /* \"#utility.yul\":10928:10932   */\n      0x00\n        /* \"#utility.yul\":10966:10968   */\n      0x20\n        /* \"#utility.yul\":10955:10964   */\n      dup3\n        /* \"#utility.yul\":10951:10969   */\n      add\n        /* \"#utility.yul\":10943:10969   */\n      swap1\n      pop\n        /* \"#utility.yul\":11015:11024   */\n      dup2\n        /* \"#utility.yul\":11009:11013   */\n      dup2\n        /* \"#utility.yul\":11005:11025   */\n      sub\n        /* \"#utility.yul\":11001:11002   */\n      0x00\n        /* \"#utility.yul\":10990:10999   */\n      dup4\n        /* \"#utility.yul\":10986:11003   */\n      add\n        /* \"#utility.yul\":10979:11026   */\n      mstore\n        /* \"#utility.yul\":11043:11174   */\n      tag_249\n        /* \"#utility.yul\":11169:11173   */\n      dup2\n        /* \"#utility.yul\":11043:11174   */\n      tag_150\n      jump\t// in\n    tag_249:\n        /* \"#utility.yul\":11035:11174   */\n      swap1\n      pop\n        /* \"#utility.yul\":10762:11181   */\n      swap2\n      swap1\n      pop\n      jump\t// out\n        /* \"#utility.yul\":11187:11358   */\n    tag_151:\n        /* \"#utility.yul\":11327:11350   */\n      0x4e6f20636f6e747269627574696f6e20666f756e640000000000000000000000\n        /* \"#utility.yul\":11323:11324   */\n      0x00\n        /* \"#utility.yul\":11315:11321   */\n      dup3\n        /* \"#utility.yul\":11311:11325   */\n      add\n        /* \"#utility.yul\":11304:11351   */\n      mstore\n        /* \"#utility.yul\":11187:11358   */\n      pop\n      jump\t// out\n        /* \"#utility.yul\":11364:11730   */\n    tag_152:\n        /* \"#utility.yul\":11506:11509   */\n      0x00\n        /* \"#utility.yul\":11527:11594   */\n      tag_252\n        /* \"#utility.yul\":11591:11593   */\n      0x15\n        /* \"#utility.yul\":11586:11589   */\n      dup4\n        /* \"#utility.yul\":11527:11594   */\n      tag_129\n      jump\t// in\n    tag_252:\n        /* \"#utility.yul\":11520:11594   */\n      swap2\n      pop\n        /* \"#utility.yul\":11603:11696   */\n      tag_253\n        /* \"#utility.yul\":11692:11695   */\n      dup3\n        /* \"#utility.yul\":11603:11696   */\n      tag_151\n      jump\t// in\n    tag_253:\n        /* \"#utility.yul\":11721:11723   */\n      0x20\n        /* \"#utility.yul\":11716:11719   */\n      dup3\n        /* \"#utility.yul\":11712:11724   */\n      add\n        /* \"#utility.yul\":11705:11724   */\n      swap1\n      pop\n        /* \"#utility.yul\":11364:11730   */\n      swap2\n      swap1\n      pop\n      jump\t// out\n        /* \"#utility.yul\":11736:12155   */\n    tag_98:\n        /* \"#utility.yul\":11902:11906   */\n      0x00\n        /* \"#utility.yul\":11940:11942   */\n      0x20\n        /* \"#utility.yul\":11929:11938   */\n      dup3\n        /* \"#utility.yul\":11925:11943   */\n      add\n        /* \"#utility.yul\":11917:11943   */\n      swap1\n      pop\n        /* \"#utility.yul\":11989:11998   */\n      dup2\n        /* \"#utility.yul\":11983:11987   */\n      dup2\n        /* \"#utility.yul\":11979:11999   */\n      sub\n        /* \"#utility.yul\":11975:11976   */\n      0x00\n        /* \"#utility.yul\":11964:11973   */\n      dup4\n        /* \"#utility.yul\":11960:11977   */\n      add\n        /* \"#utility.yul\":11953:12000   */\n      mstore\n        /* \"#utility.yul\":12017:12148   */\n      tag_255\n        /* \"#utility.yul\":12143:12147   */\n      dup2\n        /* \"#utility.yul\":12017:12148   */\n      tag_152\n      jump\t// in\n    tag_255:\n        /* \"#utility.yul\":12009:12148   */\n      swap1\n      pop\n        /* \"#utility.yul\":11736:12155   */\n      swap2\n      swap1\n      pop\n      jump\t// out\n        /* \"#utility.yul\":12161:12324   */\n    tag_153:\n        /* \"#utility.yul\":12301:12316   */\n      0x526566756e64206661696c656400000000000000000000000000000000000000\n        /* \"#utility.yul\":12297:12298   */\n      0x00\n        /* \"#utility.yul\":12289:12295   */\n      dup3\n        /* \"#utility.yul\":12285:12299   */\n      add\n        /* \"#utility.yul\":12278:12317   */\n      mstore\n        /* \"#utility.yul\":12161:12324   */\n      pop\n      jump\t// out\n        /* \"#utility.yul\":12330:12696   */\n    tag_154:\n        /* \"#utility.yul\":12472:12475   */\n      0x00\n        /* \"#utility.yul\":12493:12560   */\n      tag_258\n        /* \"#utility.yul\":12557:12559   */\n      0x0d\n        /* \"#utility.yul\":12552:12555   */\n      dup4\n        /* \"#utility.yul\":12493:12560   */\n      tag_129\n      jump\t// in\n    tag_258:\n        /* \"#utility.yul\":12486:12560   */\n      swap2\n      pop\n        /* \"#utility.yul\":12569:12662   */\n      tag_259\n        /* \"#utility.yul\":12658:12661   */\n      dup3\n        /* \"#utility.yul\":12569:12662   */\n      tag_153\n      jump\t// in\n    tag_259:\n        /* \"#utility.yul\":12687:12689   */\n      0x20\n        /* \"#utility.yul\":12682:12685   */\n      dup3\n        /* \"#utility.yul\":12678:12690   */\n      add\n        /* \"#utility.yul\":12671:12690   */\n      swap1\n      pop\n        /* \"#utility.yul\":12330:12696   */\n      swap2\n      swap1\n      pop\n      jump\t// out\n        /* \"#utility.yul\":12702:13121   */\n    tag_105:\n        /* \"#utility.yul\":12868:12872   */\n      0x00\n        /* \"#utility.yul\":12906:12908   */\n      0x20\n        /* \"#utility.yul\":12895:12904   */\n      dup3\n        /* \"#utility.yul\":12891:12909   */\n      add\n        /* \"#utility.yul\":12883:12909   */\n      swap1\n      pop\n        /* \"#utility.yul\":12955:12964   */\n      dup2\n        /* \"#utility.yul\":12949:12953   */\n      dup2\n        /* \"#utility.yul\":12945:12965   */\n      sub\n        /* \"#utility.yul\":12941:12942   */\n      0x00\n        /* \"#utility.yul\":12930:12939   */\n      dup4\n        /* \"#utility.yul\":12926:12943   */\n      add\n        /* \"#utility.yul\":12919:12966   */\n      mstore\n        /* \"#utility.yul\":12983:13114   */\n      tag_261\n        /* \"#utility.yul\":13109:13113   */\n      dup2\n        /* \"#utility.yul\":12983:13114   */\n      tag_154\n      jump\t// in\n    tag_261:\n        /* \"#utility.yul\":12975:13114   */\n      swap1\n      pop\n        /* \"#utility.yul\":12702:13121   */\n      swap2\n      swap1\n      pop\n      jump\t// out\n        /* \"#utility.yul\":13127:13296   */\n    tag_155:\n        /* \"#utility.yul\":13267:13288   */\n      0x43616d706169676e206e6f742061637469766500000000000000000000000000\n        /* \"#utility.yul\":13263:13264   */\n      0x00\n        /* \"#utility.yul\":13255:13261   */\n      dup3\n        /* \"#utility.yul\":13251:13265   */\n      add\n        /* \"#utility.yul\":13244:13289   */\n      mstore\n        /* \"#utility.yul\":13127:13296   */\n      pop\n      jump\t// out\n        /* \"#utility.yul\":13302:13668   */\n    tag_156:\n        /* \"#utility.yul\":13444:13447   */\n      0x00\n        /* \"#utility.yul\":13465:13532   */\n      tag_264\n        /* \"#utility.yul\":13529:13531   */\n      0x13\n        /* \"#utility.yul\":13524:13527   */\n      dup4\n        /* \"#utility.yul\":13465:13532   */\n      tag_129\n      jump\t// in\n    tag_264:\n        /* \"#utility.yul\":13458:13532   */\n      swap2\n      pop\n        /* \"#utility.yul\":13541:13634   */\n      tag_265\n        /* \"#utility.yul\":13630:13633   */\n      dup3\n        /* \"#utility.yul\":13541:13634   */\n      tag_155\n      jump\t// in\n    tag_265:\n        /* \"#utility.yul\":13659:13661   */\n      0x20\n        /* \"#utility.yul\":13654:13657   */\n      dup3\n        /* \"#utility.yul\":13650:13662   */\n      add\n        /* \"#utility.yul\":13643:13662   */\n      swap1\n      pop\n        /* \"#utility.yul\":13302:13668   */\n      swap2\n      swap1\n      pop\n      jump\t// out\n        /* \"#utility.yul\":13674:14093   */\n    tag_110:\n        /* \"#utility.yul\":13840:13844   */\n      0x00\n        /* \"#utility.yul\":13878:13880   */\n      0x20\n        /* \"#utility.yul\":13867:13876   */\n      dup3\n        /* \"#utility.yul\":13863:13881   */\n      add\n        /* \"#utility.yul\":13855:13881   */\n      swap1\n      pop\n        /* \"#utility.yul\":13927:13936   */\n      dup2\n        /* \"#utility.yul\":13921:13925   */\n      dup2\n        /* \"#utility.yul\":13917:13937   */\n      sub\n        /* \"#utility.yul\":13913:13914   */\n      0x00\n        /* \"#utility.yul\":13902:13911   */\n      dup4\n        /* \"#utility.yul\":13898:13915   */\n      add\n        /* \"#utility.yul\":13891:13938   */\n      mstore\n        /* \"#utility.yul\":13955:14086   */\n      tag_267\n        /* \"#utility.yul\":14081:14085   */\n      dup2\n        /* \"#utility.yul\":13955:14086   */\n      tag_156\n      jump\t// in\n    tag_267:\n        /* \"#utility.yul\":13947:14086   */\n      swap1\n      pop\n        /* \"#utility.yul\":13674:14093   */\n      swap2\n      swap1\n      pop\n      jump\t// out\n        /* \"#utility.yul\":14099:14279   */\n    tag_157:\n        /* \"#utility.yul\":14147:14224   */\n      0x4e487b7100000000000000000000000000000000000000000000000000000000\n        /* \"#utility.yul\":14144:14145   */\n      0x00\n        /* \"#utility.yul\":14137:14225   */\n      mstore\n        /* \"#utility.yul\":14244:14248   */\n      0x11\n        /* \"#utility.yul\":14241:14242   */\n      0x04\n        /* \"#utility.yul\":14234:14249   */\n      mstore\n        /* \"#utility.yul\":14268:14272   */\n      0x24\n        /* \"#utility.yul\":14265:14266   */\n      0x00\n        /* \"#utility.yul\":14258:14273   */\n      revert\n        /* \"#utility.yul\":14285:14476   */\n    tag_112:\n        /* \"#utility.yul\":14325:14328   */\n      0x00\n        /* \"#utility.yul\":14344:14364   */\n      tag_270\n        /* \"#utility.yul\":14362:14363   */\n      dup3\n        /* \"#utility.yul\":14344:14364   */\n      tag_120\n      jump\t// in\n    tag_270:\n        /* \"#utility.yul\":14339:14364   */\n      swap2\n      pop\n        /* \"#utility.yul\":14378:14398   */\n      tag_271\n        /* \"#utility.yul\":14396:14397   */\n      dup4\n        /* \"#utility.yul\":14378:14398   */\n      tag_120\n      jump\t// in\n    tag_271:\n        /* \"#utility.yul\":14373:14398   */\n      swap3\n      pop\n        /* \"#utility.yul\":14421:14422   */\n      dup3\n        /* \"#utility.yul\":14418:14419   */\n      dup3\n        /* \"#utility.yul\":14414:14423   */\n      add\n        /* \"#utility.yul\":14407:14423   */\n      swap1\n      pop\n        /* \"#utility.yul\":14442:14445   */\n      dup1\n        /* \"#utility.yul\":14439:14440   */\n      dup3\n        /* \"#utility.yul\":14436:14446   */\n      gt\n        /* \"#utility.yul\":14433:14469   */\n      iszero\n      tag_272\n      jumpi\n        /* \"#utility.yul\":14449:14467   */\n      tag_273\n      tag_157\n      jump\t// in\n    tag_273:\n        /* \"#utility.yul\":14433:14469   */\n    tag_272:\n        /* \"#utility.yul\":14285:14476   */\n      swap3\n      swap2\n      pop\n      pop\n      jump\t// out\n        /* \"#utility.yul\":14482:14600   */\n    tag_158:\n        /* \"#utility.yul\":14569:14593   */\n      tag_275\n        /* \"#utility.yul\":14587:14592   */\n      dup2\n        /* \"#utility.yul\":14569:14593   */\n      tag_125\n      jump\t// in\n    tag_275:\n        /* \"#utility.yul\":14564:14567   */\n      dup3\n        /* \"#utility.yul\":14557:14594   */\n      mstore\n        /* \"#utility.yul\":14482:14600   */\n      pop\n      pop\n      jump\t// out\n        /* \"#utility.yul\":14606:14938   */\n    tag_115:\n        /* \"#utility.yul\":14727:14731   */\n      0x00\n        /* \"#utility.yul\":14765:14767   */\n      0x40\n        /* \"#utility.yul\":14754:14763   */\n      dup3\n        /* \"#utility.yul\":14750:14768   */\n      add\n        /* \"#utility.yul\":14742:14768   */\n      swap1\n      pop\n        /* \"#utility.yul\":14778:14849   */\n      tag_277\n        /* \"#utility.yul\":14846:14847   */\n      0x00\n        /* \"#utility.yul\":14835:14844   */\n      dup4\n        /* \"#utility.yul\":14831:14848   */\n      add\n        /* \"#utility.yul\":14822:14828   */\n      dup6\n        /* \"#utility.yul\":14778:14849   */\n      tag_158\n      jump\t// in\n    tag_277:\n        /* \"#utility.yul\":14859:14931   */\n      tag_278\n        /* \"#utility.yul\":14927:14929   */\n      0x20\n        /* \"#utility.yul\":14916:14925   */\n      dup4\n        /* \"#utility.yul\":14912:14930   */\n      add\n        /* \"#utility.yul\":14903:14909   */\n      dup5\n        /* \"#utility.yul\":14859:14931   */\n      tag_121\n      jump\t// in\n    tag_278:\n        /* \"#utility.yul\":14606:14938   */\n      swap4\n      swap3\n      pop\n      pop\n      pop\n      jump\t// out\n\n    auxdata: 0xa26469706673582212209a40770e126eeddaecad2aafa326198b127b4dc829b06afe1bb1bea24b91573164736f6c634300081a0033\n}\n",
				"bytecode": {
					"linkReferences": {},
					"object": "608060405234801561000f575f80fd5b506040516116f03803806116f0833981810160405281019061003191906102bc565b5f8211610073576040517f08c379a000000000000000000000000000000000000000000000000000000000815260040161006a90610382565b60405180910390fd5b60018110156100b7576040517f08c379a00000000000000000000000000000000000000000000000000000000081526004016100ae90610410565b60405180910390fd5b335f806101000a81548173ffffffffffffffffffffffffffffffffffffffff021916908373ffffffffffffffffffffffffffffffffffffffff16021790555082600190816101059190610632565b5081600281905550620151808161011c919061072e565b42610127919061076f565b6003819055505f6004819055505050506107a2565b5f604051905090565b5f80fd5b5f80fd5b5f80fd5b5f80fd5b5f601f19601f8301169050919050565b7f4e487b71000000000000000000000000000000000000000000000000000000005f52604160045260245ffd5b61019b82610155565b810181811067ffffffffffffffff821117156101ba576101b9610165565b5b80604052505050565b5f6101cc61013c565b90506101d88282610192565b919050565b5f67ffffffffffffffff8211156101f7576101f6610165565b5b61020082610155565b9050602081019050919050565b8281835e5f83830152505050565b5f61022d610228846101dd565b6101c3565b90508281526020810184848401111561024957610248610151565b5b61025484828561020d565b509392505050565b5f82601f8301126102705761026f61014d565b5b815161028084826020860161021b565b91505092915050565b5f819050919050565b61029b81610289565b81146102a5575f80fd5b50565b5f815190506102b681610292565b92915050565b5f805f606084860312156102d3576102d2610145565b5b5f84015167ffffffffffffffff8111156102f0576102ef610149565b5b6102fc8682870161025c565b935050602061030d868287016102a8565b925050604061031e868287016102a8565b9150509250925092565b5f82825260208201905092915050565b7f476f616c206d7573742062652067726561746572207468616e207a65726f00005f82015250565b5f61036c601e83610328565b915061037782610338565b602082019050919050565b5f6020820190508181035f83015261039981610360565b9050919050565b7f43616d706169676e206d7573742072756e20666f72206174206c6561737420315f8201527f2064617900000000000000000000000000000000000000000000000000000000602082015250565b5f6103fa602483610328565b9150610405826103a0565b604082019050919050565b5f6020820190508181035f830152610427816103ee565b9050919050565b5f81519050919050565b7f4e487b71000000000000000000000000000000000000000000000000000000005f52602260045260245ffd5b5f600282049050600182168061047c57607f821691505b60208210810361048f5761048e610438565b5b50919050565b5f819050815f5260205f209050919050565b5f6020601f8301049050919050565b5f82821b905092915050565b5f600883026104f17fffffffffffffffffffffffffffffffffffffffffffffffffffffffffffffffff826104b6565b6104fb86836104b6565b95508019841693508086168417925050509392505050565b5f819050919050565b5f61053661053161052c84610289565b610513565b610289565b9050919050565b5f819050919050565b61054f8361051c565b61056361055b8261053d565b8484546104c2565b825550505050565b5f90565b61057761056b565b610582818484610546565b505050565b5b818110156105a55761059a5f8261056f565b600181019050610588565b5050565b601f8211156105ea576105bb81610495565b6105c4846104a7565b810160208510156105d3578190505b6105e76105df856104a7565b830182610587565b50505b505050565b5f82821c905092915050565b5f61060a5f19846008026105ef565b1980831691505092915050565b5f61062283836105fb565b9150826002028217905092915050565b61063b8261042e565b67ffffffffffffffff81111561065457610653610165565b5b61065e8254610465565b6106698282856105a9565b5f60209050601f83116001811461069a575f8415610688578287015190505b6106928582610617565b8655506106f9565b601f1984166106a886610495565b5f5b828110156106cf578489015182556001820191506020850194506020810190506106aa565b868310156106ec57848901516106e8601f8916826105fb565b8355505b6001600288020188555050505b505050505050565b7f4e487b71000000000000000000000000000000000000000000000000000000005f52601160045260245ffd5b5f61073882610289565b915061074383610289565b925082820261075181610289565b9150828204841483151761076857610767610701565b5b5092915050565b5f61077982610289565b915061078483610289565b925082820190508082111561079c5761079b610701565b5b92915050565b610f41806107af5f395ff3fe60806040526004361061009b575f3560e01c80637d3d6522116100635780637d3d652214610183578063ac307773146101ad578063b2d5ae44146101c3578063c5c4744c146101d9578063d7bb99ba14610203578063e8b89dd81461020d5761009b565b806302d05d3f1461009f57806329dcb0cf146100c957806340193883146100f357806342e94c901461011d5780634a79d50c14610159575b5f80fd5b3480156100aa575f80fd5b506100b3610237565b6040516100c091906108b8565b60405180910390f35b3480156100d4575f80fd5b506100dd61025a565b6040516100ea91906108e9565b60405180910390f35b3480156100fe575f80fd5b50610107610260565b60405161011491906108e9565b60405180910390f35b348015610128575f80fd5b50610143600480360381019061013e9190610941565b610266565b60405161015091906108e9565b60405180910390f35b348015610164575f80fd5b5061016d61027b565b60405161017a91906109dc565b60405180910390f35b34801561018e575f80fd5b50610197610307565b6040516101a49190610a16565b60405180910390f35b3480156101b8575f80fd5b506101c1610315565b005b3480156101ce575f80fd5b506101d761053f565b005b3480156101e4575f80fd5b506101ed610779565b6040516101fa91906108e9565b60405180910390f35b61020b61077f565b005b348015610218575f80fd5b5061022161086d565b60405161022e9190610a16565b60405180910390f35b5f8054906101000a900473ffffffffffffffffffffffffffffffffffffffff1681565b60035481565b60025481565b6005602052805f5260405f205f915090505481565b6001805461028890610a5c565b80601f01602080910402602001604051908101604052809291908181526020018280546102b490610a5c565b80156102ff5780601f106102d6576101008083540402835291602001916102ff565b820191905f5260205f20905b8154815290600101906020018083116102e257829003601f168201915b505050505081565b5f6002546004541015905090565b5f8054906101000a900473ffffffffffffffffffffffffffffffffffffffff1673ffffffffffffffffffffffffffffffffffffffff163373ffffffffffffffffffffffffffffffffffffffff16146103a2576040517f08c379a000000000000000000000000000000000000000000000000000000000815260040161039990610ad6565b60405180910390fd5b60035442116103e6576040517f08c379a00000000000000000000000000000000000000000000000000000000081526004016103dd90610b3e565b60405180910390fd5b6103ee610307565b61042d576040517f08c379a000000000000000000000000000000000000000000000000000000000815260040161042490610ba6565b60405180910390fd5b5f471161046f576040517f08c379a000000000000000000000000000000000000000000000000000000000815260040161046690610c0e565b60405180910390fd5b5f4790505f805f9054906101000a900473ffffffffffffffffffffffffffffffffffffffff1673ffffffffffffffffffffffffffffffffffffffff16826040516104b890610c59565b5f6040518083038185875af1925050503d805f81146104f2576040519150601f19603f3d011682016040523d82523d5f602084013e6104f7565b606091505b505090508061053b576040517f08c379a000000000000000000000000000000000000000000000000000000000815260040161053290610cb7565b60405180910390fd5b5050565b6003544211610583576040517f08c379a000000000000000000000000000000000000000000000000000000000815260040161057a90610b3e565b60405180910390fd5b61058b610307565b156105cb576040517f08c379a00000000000000000000000000000000000000000000000000000000081526004016105c290610d1f565b60405180910390fd5b5f60055f3373ffffffffffffffffffffffffffffffffffffffff1673ffffffffffffffffffffffffffffffffffffffff1681526020019081526020015f20541161064a576040517f08c379a000000000000000000000000000000000000000000000000000000000815260040161064190610d87565b60405180910390fd5b5f60055f3373ffffffffffffffffffffffffffffffffffffffff1673ffffffffffffffffffffffffffffffffffffffff1681526020019081526020015f205490505f60055f3373ffffffffffffffffffffffffffffffffffffffff1673ffffffffffffffffffffffffffffffffffffffff1681526020019081526020015f20819055505f3373ffffffffffffffffffffffffffffffffffffffff16826040516106f290610c59565b5f6040518083038185875af1925050503d805f811461072c576040519150601f19603f3d011682016040523d82523d5f602084013e610731565b606091505b5050905080610775576040517f08c379a000000000000000000000000000000000000000000000000000000000815260040161076c90610def565b60405180910390fd5b5050565b60045481565b61078761086d565b156107c7576040517f08c379a00000000000000000000000000000000000000000000000000000000081526004016107be90610e57565b60405180910390fd5b3460055f3373ffffffffffffffffffffffffffffffffffffffff1673ffffffffffffffffffffffffffffffffffffffff1681526020019081526020015f205f8282546108139190610ea2565b925050819055503460045f82825461082b9190610ea2565b925050819055507f1bb460ccaaf70fbacfec17a376f8acbd278c1405590ffcc8ebe4b88daf4f64ad3334604051610863929190610ee4565b60405180910390a1565b5f600354421115905090565b5f73ffffffffffffffffffffffffffffffffffffffff82169050919050565b5f6108a282610879565b9050919050565b6108b281610898565b82525050565b5f6020820190506108cb5f8301846108a9565b92915050565b5f819050919050565b6108e3816108d1565b82525050565b5f6020820190506108fc5f8301846108da565b92915050565b5f80fd5b5f61091082610879565b9050919050565b61092081610906565b811461092a575f80fd5b50565b5f8135905061093b81610917565b92915050565b5f6020828403121561095657610955610902565b5b5f6109638482850161092d565b91505092915050565b5f81519050919050565b5f82825260208201905092915050565b8281835e5f83830152505050565b5f601f19601f8301169050919050565b5f6109ae8261096c565b6109b88185610976565b93506109c8818560208601610986565b6109d181610994565b840191505092915050565b5f6020820190508181035f8301526109f481846109a4565b905092915050565b5f8115159050919050565b610a10816109fc565b82525050565b5f602082019050610a295f830184610a07565b92915050565b7f4e487b71000000000000000000000000000000000000000000000000000000005f52602260045260245ffd5b5f6002820490506001821680610a7357607f821691505b602082108103610a8657610a85610a2f565b5b50919050565b7f4f6e6c792063726561746f722063616e20636c61696d000000000000000000005f82015250565b5f610ac0601683610976565b9150610acb82610a8c565b602082019050919050565b5f6020820190508181035f830152610aed81610ab4565b9050919050565b7f43616d706169676e206e6f7420656e64656400000000000000000000000000005f82015250565b5f610b28601283610976565b9150610b3382610af4565b602082019050919050565b5f6020820190508181035f830152610b5581610b1c565b9050919050565b7f476f616c206e6f742072656163686564000000000000000000000000000000005f82015250565b5f610b90601083610976565b9150610b9b82610b5c565b602082019050919050565b5f6020820190508181035f830152610bbd81610b84565b9050919050565b7f4e6f2066756e647320746f20636c61696d0000000000000000000000000000005f82015250565b5f610bf8601183610976565b9150610c0382610bc4565b602082019050919050565b5f6020820190508181035f830152610c2581610bec565b9050919050565b5f81905092915050565b50565b5f610c445f83610c2c565b9150610c4f82610c36565b5f82019050919050565b5f610c6382610c39565b9150819050919050565b7f5472616e73666572206661696c656400000000000000000000000000000000005f82015250565b5f610ca1600f83610976565b9150610cac82610c6d565b602082019050919050565b5f6020820190508181035f830152610cce81610c95565b9050919050565b7f476f616c207761732072656163686564000000000000000000000000000000005f82015250565b5f610d09601083610976565b9150610d1482610cd5565b602082019050919050565b5f6020820190508181035f830152610d3681610cfd565b9050919050565b7f4e6f20636f6e747269627574696f6e20666f756e6400000000000000000000005f82015250565b5f610d71601583610976565b9150610d7c82610d3d565b602082019050919050565b5f6020820190508181035f830152610d9e81610d65565b9050919050565b7f526566756e64206661696c6564000000000000000000000000000000000000005f82015250565b5f610dd9600d83610976565b9150610de482610da5565b602082019050919050565b5f6020820190508181035f830152610e0681610dcd565b9050919050565b7f43616d706169676e206e6f7420616374697665000000000000000000000000005f82015250565b5f610e41601383610976565b9150610e4c82610e0d565b602082019050919050565b5f6020820190508181035f830152610e6e81610e35565b9050919050565b7f4e487b71000000000000000000000000000000000000000000000000000000005f52601160045260245ffd5b5f610eac826108d1565b9150610eb7836108d1565b9250828201905080821115610ecf57610ece610e75565b5b92915050565b610ede81610906565b82525050565b5f604082019050610ef75f830185610ed5565b610f0460208301846108da565b939250505056fea26469706673582212209a40770e126eeddaecad2aafa326198b127b4dc829b06afe1bb1bea24b91573164736f6c634300081a0033",
					"opcodes": "PUSH1 0x80 PUSH1 0x40 MSTORE CALLVALUE DUP1 ISZERO PUSH2 0xF JUMPI PUSH0 DUP1 REVERT JUMPDEST POP PUSH1 0x40 MLOAD PUSH2 0x16F0 CODESIZE SUB DUP1 PUSH2 0x16F0 DUP4 CODECOPY DUP2 DUP2 ADD PUSH1 0x40 MSTORE DUP2 ADD SWAP1 PUSH2 0x31 SWAP2 SWAP1 PUSH2 0x2BC JUMP JUMPDEST PUSH0 DUP3 GT PUSH2 0x73 JUMPI PUSH1 0x40 MLOAD PUSH32 0x8C379A000000000000000000000000000000000000000000000000000000000 DUP2 MSTORE PUSH1 0x4 ADD PUSH2 0x6A SWAP1 PUSH2 0x382 JUMP JUMPDEST PUSH1 0x40 MLOAD DUP1 SWAP2 SUB SWAP1 REVERT JUMPDEST PUSH1 0x1 DUP2 LT ISZERO PUSH2 0xB7 JUMPI PUSH1 0x40 MLOAD PUSH32 0x8C379A000000000000000000000000000000000000000000000000000000000 DUP2 MSTORE PUSH1 0x4 ADD PUSH2 0xAE SWAP1 PUSH2 0x410 JUMP JUMPDEST PUSH1 0x40 MLOAD DUP1 SWAP2 SUB SWAP1 REVERT JUMPDEST CALLER PUSH0 DUP1 PUSH2 0x100 EXP DUP2 SLOAD DUP2 PUSH20 0xFFFFFFFFFFFFFFFFFFFFFFFFFFFFFFFFFFFFFFFF MUL NOT AND SWAP1 DUP4 PUSH20 0xFFFFFFFFFFFFFFFFFFFFFFFFFFFFFFFFFFFFFFFF AND MUL OR SWAP1 SSTORE POP DUP3 PUSH1 0x1 SWAP1 DUP2 PUSH2 0x105 SWAP2 SWAP1 PUSH2 0x632 JUMP JUMPDEST POP DUP2 PUSH1 0x2 DUP2 SWAP1 SSTORE POP PUSH3 0x15180 DUP2 PUSH2 0x11C SWAP2 SWAP1 PUSH2 0x72E JUMP JUMPDEST TIMESTAMP PUSH2 0x127 SWAP2 SWAP1 PUSH2 0x76F JUMP JUMPDEST PUSH1 0x3 DUP2 SWAP1 SSTORE POP PUSH0 PUSH1 0x4 DUP2 SWAP1 SSTORE POP POP POP POP PUSH2 0x7A2 JUMP JUMPDEST PUSH0 PUSH1 0x40 MLOAD SWAP1 POP SWAP1 JUMP JUMPDEST PUSH0 DUP1 REVERT JUMPDEST PUSH0 DUP1 REVERT JUMPDEST PUSH0 DUP1 REVERT JUMPDEST PUSH0 DUP1 REVERT JUMPDEST PUSH0 PUSH1 0x1F NOT PUSH1 0x1F DUP4 ADD AND SWAP1 POP SWAP2 SWAP1 POP JUMP JUMPDEST PUSH32 0x4E487B7100000000000000000000000000000000000000000000000000000000 PUSH0 MSTORE PUSH1 0x41 PUSH1 0x4 MSTORE PUSH1 0x24 PUSH0 REVERT JUMPDEST PUSH2 0x19B DUP3 PUSH2 0x155 JUMP JUMPDEST DUP2 ADD DUP2 DUP2 LT PUSH8 0xFFFFFFFFFFFFFFFF DUP3 GT OR ISZERO PUSH2 0x1BA JUMPI PUSH2 0x1B9 PUSH2 0x165 JUMP JUMPDEST JUMPDEST DUP1 PUSH1 0x40 MSTORE POP POP POP JUMP JUMPDEST PUSH0 PUSH2 0x1CC PUSH2 0x13C JUMP JUMPDEST SWAP1 POP PUSH2 0x1D8 DUP3 DUP3 PUSH2 0x192 JUMP JUMPDEST SWAP2 SWAP1 POP JUMP JUMPDEST PUSH0 PUSH8 0xFFFFFFFFFFFFFFFF DUP3 GT ISZERO PUSH2 0x1F7 JUMPI PUSH2 0x1F6 PUSH2 0x165 JUMP JUMPDEST JUMPDEST PUSH2 0x200 DUP3 PUSH2 0x155 JUMP JUMPDEST SWAP1 POP PUSH1 0x20 DUP2 ADD SWAP1 POP SWAP2 SWAP1 POP JUMP JUMPDEST DUP3 DUP2 DUP4 MCOPY PUSH0 DUP4 DUP4 ADD MSTORE POP POP POP JUMP JUMPDEST PUSH0 PUSH2 0x22D PUSH2 0x228 DUP5 PUSH2 0x1DD JUMP JUMPDEST PUSH2 0x1C3 JUMP JUMPDEST SWAP1 POP DUP3 DUP2 MSTORE PUSH1 0x20 DUP2 ADD DUP5 DUP5 DUP5 ADD GT ISZERO PUSH2 0x249 JUMPI PUSH2 0x248 PUSH2 0x151 JUMP JUMPDEST JUMPDEST PUSH2 0x254 DUP5 DUP3 DUP6 PUSH2 0x20D JUMP JUMPDEST POP SWAP4 SWAP3 POP POP POP JUMP JUMPDEST PUSH0 DUP3 PUSH1 0x1F DUP4 ADD SLT PUSH2 0x270 JUMPI PUSH2 0x26F PUSH2 0x14D JUMP JUMPDEST JUMPDEST DUP2 MLOAD PUSH2 0x280 DUP5 DUP3 PUSH1 0x20 DUP7 ADD PUSH2 0x21B JUMP JUMPDEST SWAP2 POP POP SWAP3 SWAP2 POP POP JUMP JUMPDEST PUSH0 DUP2 SWAP1 POP SWAP2 SWAP1 POP JUMP JUMPDEST PUSH2 0x29B DUP2 PUSH2 0x289 JUMP JUMPDEST DUP2 EQ PUSH2 0x2A5 JUMPI PUSH0 DUP1 REVERT JUMPDEST POP JUMP JUMPDEST PUSH0 DUP2 MLOAD SWAP1 POP PUSH2 0x2B6 DUP2 PUSH2 0x292 JUMP JUMPDEST SWAP3 SWAP2 POP POP JUMP JUMPDEST PUSH0 DUP1 PUSH0 PUSH1 0x60 DUP5 DUP7 SUB SLT ISZERO PUSH2 0x2D3 JUMPI PUSH2 0x2D2 PUSH2 0x145 JUMP JUMPDEST JUMPDEST PUSH0 DUP5 ADD MLOAD PUSH8 0xFFFFFFFFFFFFFFFF DUP2 GT ISZERO PUSH2 0x2F0 JUMPI PUSH2 0x2EF PUSH2 0x149 JUMP JUMPDEST JUMPDEST PUSH2 0x2FC DUP7 DUP3 DUP8 ADD PUSH2 0x25C JUMP JUMPDEST SWAP4 POP POP PUSH1 0x20 PUSH2 0x30D DUP7 DUP3 DUP8 ADD PUSH2 0x2A8 JUMP JUMPDEST SWAP3 POP POP PUSH1 0x40 PUSH2 0x31E DUP7 DUP3 DUP8 ADD PUSH2 0x2A8 JUMP JUMPDEST SWAP2 POP POP SWAP3 POP SWAP3 POP SWAP3 JUMP JUMPDEST PUSH0 DUP3 DUP3 MSTORE PUSH1 0x20 DUP3 ADD SWAP1 POP SWAP3 SWAP2 POP POP JUMP JUMPDEST PUSH32 0x476F616C206D7573742062652067726561746572207468616E207A65726F0000 PUSH0 DUP3 ADD MSTORE POP JUMP JUMPDEST PUSH0 PUSH2 0x36C PUSH1 0x1E DUP4 PUSH2 0x328 JUMP JUMPDEST SWAP2 POP PUSH2 0x377 DUP3 PUSH2 0x338 JUMP JUMPDEST PUSH1 0x20 DUP3 ADD SWAP1 POP SWAP2 SWAP1 POP JUMP JUMPDEST PUSH0 PUSH1 0x20 DUP3 ADD SWAP1 POP DUP2 DUP2 SUB PUSH0 DUP4 ADD MSTORE PUSH2 0x399 DUP2 PUSH2 0x360 JUMP JUMPDEST SWAP1 POP SWAP2 SWAP1 POP JUMP JUMPDEST PUSH32 0x43616D706169676E206D7573742072756E20666F72206174206C656173742031 PUSH0 DUP3 ADD MSTORE PUSH32 0x2064617900000000000000000000000000000000000000000000000000000000 PUSH1 0x20 DUP3 ADD MSTORE POP JUMP JUMPDEST PUSH0 PUSH2 0x3FA PUSH1 0x24 DUP4 PUSH2 0x328 JUMP JUMPDEST SWAP2 POP PUSH2 0x405 DUP3 PUSH2 0x3A0 JUMP JUMPDEST PUSH1 0x40 DUP3 ADD SWAP1 POP SWAP2 SWAP1 POP JUMP JUMPDEST PUSH0 PUSH1 0x20 DUP3 ADD SWAP1 POP DUP2 DUP2 SUB PUSH0 DUP4 ADD MSTORE PUSH2 0x427 DUP2 PUSH2 0x3EE JUMP JUMPDEST SWAP1 POP SWAP2 SWAP1 POP JUMP JUMPDEST PUSH0 DUP2 MLOAD SWAP1 POP SWAP2 SWAP1 POP JUMP JUMPDEST PUSH32 0x4E487B7100000000000000000000000000000000000000000000000000000000 PUSH0 MSTORE PUSH1 0x22 PUSH1 0x4 MSTORE PUSH1 0x24 PUSH0 REVERT JUMPDEST PUSH0 PUSH1 0x2 DUP3 DIV SWAP1 POP PUSH1 0x1 DUP3 AND DUP1 PUSH2 0x47C JUMPI PUSH1 0x7F DUP3 AND SWAP2 POP JUMPDEST PUSH1 0x20 DUP3 LT DUP2 SUB PUSH2 0x48F JUMPI PUSH2 0x48E PUSH2 0x438 JUMP JUMPDEST JUMPDEST POP SWAP2 SWAP1 POP JUMP JUMPDEST PUSH0 DUP2 SWAP1 POP DUP2 PUSH0 MSTORE PUSH1 0x20 PUSH0 KECCAK256 SWAP1 POP SWAP2 SWAP1 POP JUMP JUMPDEST PUSH0 PUSH1 0x20 PUSH1 0x1F DUP4 ADD DIV SWAP1 POP SWAP2 SWAP1 POP JUMP JUMPDEST PUSH0 DUP3 DUP3 SHL SWAP1 POP SWAP3 SWAP2 POP POP JUMP JUMPDEST PUSH0 PUSH1 0x8 DUP4 MUL PUSH2 0x4F1 PUSH32 0xFFFFFFFFFFFFFFFFFFFFFFFFFFFFFFFFFFFFFFFFFFFFFFFFFFFFFFFFFFFFFFFF DUP3 PUSH2 0x4B6 JUMP JUMPDEST PUSH2 0x4FB DUP7 DUP4 PUSH2 0x4B6 JUMP JUMPDEST SWAP6 POP DUP1 NOT DUP5 AND SWAP4 POP DUP1 DUP7 AND DUP5 OR SWAP3 POP POP POP SWAP4 SWAP3 POP POP POP JUMP JUMPDEST PUSH0 DUP2 SWAP1 POP SWAP2 SWAP1 POP JUMP JUMPDEST PUSH0 PUSH2 0x536 PUSH2 0x531 PUSH2 0x52C DUP5 PUSH2 0x289 JUMP JUMPDEST PUSH2 0x513 JUMP JUMPDEST PUSH2 0x289 JUMP JUMPDEST SWAP1 POP SWAP2 SWAP1 POP JUMP JUMPDEST PUSH0 DUP2 SWAP1 POP SWAP2 SWAP1 POP JUMP JUMPDEST PUSH2 0x54F DUP4 PUSH2 0x51C JUMP JUMPDEST PUSH2 0x563 PUSH2 0x55B DUP3 PUSH2 0x53D JUMP JUMPDEST DUP5 DUP5 SLOAD PUSH2 0x4C2 JUMP JUMPDEST DUP3 SSTORE POP POP POP POP JUMP JUMPDEST PUSH0 SWAP1 JUMP JUMPDEST PUSH2 0x577 PUSH2 0x56B JUMP JUMPDEST PUSH2 0x582 DUP2 DUP5 DUP5 PUSH2 0x546 JUMP JUMPDEST POP POP POP JUMP JUMPDEST JUMPDEST DUP2 DUP2 LT ISZERO PUSH2 0x5A5 JUMPI PUSH2 0x59A PUSH0 DUP3 PUSH2 0x56F JUMP JUMPDEST PUSH1 0x1 DUP2 ADD SWAP1 POP PUSH2 0x588 JUMP JUMPDEST POP POP JUMP JUMPDEST PUSH1 0x1F DUP3 GT ISZERO PUSH2 0x5EA JUMPI PUSH2 0x5BB DUP2 PUSH2 0x495 JUMP JUMPDEST PUSH2 0x5C4 DUP5 PUSH2 0x4A7 JUMP JUMPDEST DUP2 ADD PUSH1 0x20 DUP6 LT ISZERO PUSH2 0x5D3 JUMPI DUP2 SWAP1 POP JUMPDEST PUSH2 0x5E7 PUSH2 0x5DF DUP6 PUSH2 0x4A7 JUMP JUMPDEST DUP4 ADD DUP3 PUSH2 0x587 JUMP JUMPDEST POP POP JUMPDEST POP POP POP JUMP JUMPDEST PUSH0 DUP3 DUP3 SHR SWAP1 POP SWAP3 SWAP2 POP POP JUMP JUMPDEST PUSH0 PUSH2 0x60A PUSH0 NOT DUP5 PUSH1 0x8 MUL PUSH2 0x5EF JUMP JUMPDEST NOT DUP1 DUP4 AND SWAP2 POP POP SWAP3 SWAP2 POP POP JUMP JUMPDEST PUSH0 PUSH2 0x622 DUP4 DUP4 PUSH2 0x5FB JUMP JUMPDEST SWAP2 POP DUP3 PUSH1 0x2 MUL DUP3 OR SWAP1 POP SWAP3 SWAP2 POP POP JUMP JUMPDEST PUSH2 0x63B DUP3 PUSH2 0x42E JUMP JUMPDEST PUSH8 0xFFFFFFFFFFFFFFFF DUP2 GT ISZERO PUSH2 0x654 JUMPI PUSH2 0x653 PUSH2 0x165 JUMP JUMPDEST JUMPDEST PUSH2 0x65E DUP3 SLOAD PUSH2 0x465 JUMP JUMPDEST PUSH2 0x669 DUP3 DUP3 DUP6 PUSH2 0x5A9 JUMP JUMPDEST PUSH0 PUSH1 0x20 SWAP1 POP PUSH1 0x1F DUP4 GT PUSH1 0x1 DUP2 EQ PUSH2 0x69A JUMPI PUSH0 DUP5 ISZERO PUSH2 0x688 JUMPI DUP3 DUP8 ADD MLOAD SWAP1 POP JUMPDEST PUSH2 0x692 DUP6 DUP3 PUSH2 0x617 JUMP JUMPDEST DUP7 SSTORE POP PUSH2 0x6F9 JUMP JUMPDEST PUSH1 0x1F NOT DUP5 AND PUSH2 0x6A8 DUP7 PUSH2 0x495 JUMP JUMPDEST PUSH0 JUMPDEST DUP3 DUP2 LT ISZERO PUSH2 0x6CF JUMPI DUP5 DUP10 ADD MLOAD DUP3 SSTORE PUSH1 0x1 DUP3 ADD SWAP2 POP PUSH1 0x20 DUP6 ADD SWAP5 POP PUSH1 0x20 DUP2 ADD SWAP1 POP PUSH2 0x6AA JUMP JUMPDEST DUP7 DUP4 LT ISZERO PUSH2 0x6EC JUMPI DUP5 DUP10 ADD MLOAD PUSH2 0x6E8 PUSH1 0x1F DUP10 AND DUP3 PUSH2 0x5FB JUMP JUMPDEST DUP4 SSTORE POP JUMPDEST PUSH1 0x1 PUSH1 0x2 DUP9 MUL ADD DUP9 SSTORE POP POP POP JUMPDEST POP POP POP POP POP POP JUMP JUMPDEST PUSH32 0x4E487B7100000000000000000000000000000000000000000000000000000000 PUSH0 MSTORE PUSH1 0x11 PUSH1 0x4 MSTORE PUSH1 0x24 PUSH0 REVERT JUMPDEST PUSH0 PUSH2 0x738 DUP3 PUSH2 0x289 JUMP JUMPDEST SWAP2 POP PUSH2 0x743 DUP4 PUSH2 0x289 JUMP JUMPDEST SWAP3 POP DUP3 DUP3 MUL PUSH2 0x751 DUP2 PUSH2 0x289 JUMP JUMPDEST SWAP2 POP DUP3 DUP3 DIV DUP5 EQ DUP4 ISZERO OR PUSH2 0x768 JUMPI PUSH2 0x767 PUSH2 0x701 JUMP JUMPDEST JUMPDEST POP SWAP3 SWAP2 POP POP JUMP JUMPDEST PUSH0 PUSH2 0x779 DUP3 PUSH2 0x289 JUMP JUMPDEST SWAP2 POP PUSH2 0x784 DUP4 PUSH2 0x289 JUMP JUMPDEST SWAP3 POP DUP3 DUP3 ADD SWAP1 POP DUP1 DUP3 GT ISZERO PUSH2 0x79C JUMPI PUSH2 0x79B PUSH2 0x701 JUMP JUMPDEST JUMPDEST SWAP3 SWAP2 POP POP JUMP JUMPDEST PUSH2 0xF41 DUP1 PUSH2 0x7AF PUSH0 CODECOPY PUSH0 RETURN INVALID PUSH1 0x80 PUSH1 0x40 MSTORE PUSH1 0x4 CALLDATASIZE LT PUSH2 0x9B JUMPI PUSH0 CALLDATALOAD PUSH1 0xE0 SHR DUP1 PUSH4 0x7D3D6522 GT PUSH2 0x63 JUMPI DUP1 PUSH4 0x7D3D6522 EQ PUSH2 0x183 JUMPI DUP1 PUSH4 0xAC307773 EQ PUSH2 0x1AD JUMPI DUP1 PUSH4 0xB2D5AE44 EQ PUSH2 0x1C3 JUMPI DUP1 PUSH4 0xC5C4744C EQ PUSH2 0x1D9 JUMPI DUP1 PUSH4 0xD7BB99BA EQ PUSH2 0x203 JUMPI DUP1 PUSH4 0xE8B89DD8 EQ PUSH2 0x20D JUMPI PUSH2 0x9B JUMP JUMPDEST DUP1 PUSH4 0x2D05D3F EQ PUSH2 0x9F JUMPI DUP1 PUSH4 0x29DCB0CF EQ PUSH2 0xC9 JUMPI DUP1 PUSH4 0x40193883 EQ PUSH2 0xF3 JUMPI DUP1 PUSH4 0x42E94C90 EQ PUSH2 0x11D JUMPI DUP1 PUSH4 0x4A79D50C EQ PUSH2 0x159 JUMPI JUMPDEST PUSH0 DUP1 REVERT JUMPDEST CALLVALUE DUP1 ISZERO PUSH2 0xAA JUMPI PUSH0 DUP1 REVERT JUMPDEST POP PUSH2 0xB3 PUSH2 0x237 JUMP JUMPDEST PUSH1 0x40 MLOAD PUSH2 0xC0 SWAP2 SWAP1 PUSH2 0x8B8 JUMP JUMPDEST PUSH1 0x40 MLOAD DUP1 SWAP2 SUB SWAP1 RETURN JUMPDEST CALLVALUE DUP1 ISZERO PUSH2 0xD4 JUMPI PUSH0 DUP1 REVERT JUMPDEST POP PUSH2 0xDD PUSH2 0x25A JUMP JUMPDEST PUSH1 0x40 MLOAD PUSH2 0xEA SWAP2 SWAP1 PUSH2 0x8E9 JUMP JUMPDEST PUSH1 0x40 MLOAD DUP1 SWAP2 SUB SWAP1 RETURN JUMPDEST CALLVALUE DUP1 ISZERO PUSH2 0xFE JUMPI PUSH0 DUP1 REVERT JUMPDEST POP PUSH2 0x107 PUSH2 0x260 JUMP JUMPDEST PUSH1 0x40 MLOAD PUSH2 0x114 SWAP2 SWAP1 PUSH2 0x8E9 JUMP JUMPDEST PUSH1 0x40 MLOAD DUP1 SWAP2 SUB SWAP1 RETURN JUMPDEST CALLVALUE DUP1 ISZERO PUSH2 0x128 JUMPI PUSH0 DUP1 REVERT JUMPDEST POP PUSH2 0x143 PUSH1 0x4 DUP1 CALLDATASIZE SUB DUP2 ADD SWAP1 PUSH2 0x13E SWAP2 SWAP1 PUSH2 0x941 JUMP JUMPDEST PUSH2 0x266 JUMP JUMPDEST PUSH1 0x40 MLOAD PUSH2 0x150 SWAP2 SWAP1 PUSH2 0x8E9 JUMP JUMPDEST PUSH1 0x40 MLOAD DUP1 SWAP2 SUB SWAP1 RETURN JUMPDEST CALLVALUE DUP1 ISZERO PUSH2 0x164 JUMPI PUSH0 DUP1 REVERT JUMPDEST POP PUSH2 0x16D PUSH2 0x27B JUMP JUMPDEST PUSH1 0x40 MLOAD PUSH2 0x17A SWAP2 SWAP1 PUSH2 0x9DC JUMP JUMPDEST PUSH1 0x40 MLOAD DUP1 SWAP2 SUB SWAP1 RETURN JUMPDEST CALLVALUE DUP1 ISZERO PUSH2 0x18E JUMPI PUSH0 DUP1 REVERT JUMPDEST POP PUSH2 0x197 PUSH2 0x307 JUMP JUMPDEST PUSH1 0x40 MLOAD PUSH2 0x1A4 SWAP2 SWAP1 PUSH2 0xA16 JUMP JUMPDEST PUSH1 0x40 MLOAD DUP1 SWAP2 SUB SWAP1 RETURN JUMPDEST CALLVALUE DUP1 ISZERO PUSH2 0x1B8 JUMPI PUSH0 DUP1 REVERT JUMPDEST POP PUSH2 0x1C1 PUSH2 0x315 JUMP JUMPDEST STOP JUMPDEST CALLVALUE DUP1 ISZERO PUSH2 0x1CE JUMPI PUSH0 DUP1 REVERT JUMPDEST POP PUSH2 0x1D7 PUSH2 0x53F JUMP JUMPDEST STOP JUMPDEST CALLVALUE DUP1 ISZERO PUSH2 0x1E4 JUMPI PUSH0 DUP1 REVERT JUMPDEST POP PUSH2 0x1ED PUSH2 0x779 JUMP JUMPDEST PUSH1 0x40 MLOAD PUSH2 0x1FA SWAP2 SWAP1 PUSH2 0x8E9 JUMP JUMPDEST PUSH1 0x40 MLOAD DUP1 SWAP2 SUB SWAP1 RETURN JUMPDEST PUSH2 0x20B PUSH2 0x77F JUMP JUMPDEST STOP JUMPDEST CALLVALUE DUP1 ISZERO PUSH2 0x218 JUMPI PUSH0 DUP1 REVERT JUMPDEST POP PUSH2 0x221 PUSH2 0x86D JUMP JUMPDEST PUSH1 0x40 MLOAD PUSH2 0x22E SWAP2 SWAP1 PUSH2 0xA16 JUMP JUMPDEST PUSH1 0x40 MLOAD DUP1 SWAP2 SUB SWAP1 RETURN JUMPDEST PUSH0 DUP1 SLOAD SWAP1 PUSH2 0x100 EXP SWAP1 DIV PUSH20 0xFFFFFFFFFFFFFFFFFFFFFFFFFFFFFFFFFFFFFFFF AND DUP2 JUMP JUMPDEST PUSH1 0x3 SLOAD DUP2 JUMP JUMPDEST PUSH1 0x2 SLOAD DUP2 JUMP JUMPDEST PUSH1 0x5 PUSH1 0x20 MSTORE DUP1 PUSH0 MSTORE PUSH1 0x40 PUSH0 KECCAK256 PUSH0 SWAP2 POP SWAP1 POP SLOAD DUP2 JUMP JUMPDEST PUSH1 0x1 DUP1 SLOAD PUSH2 0x288 SWAP1 PUSH2 0xA5C JUMP JUMPDEST DUP1 PUSH1 0x1F ADD PUSH1 0x20 DUP1 SWAP2 DIV MUL PUSH1 0x20 ADD PUSH1 0x40 MLOAD SWAP1 DUP2 ADD PUSH1 0x40 MSTORE DUP1 SWAP3 SWAP2 SWAP1 DUP2 DUP2 MSTORE PUSH1 0x20 ADD DUP3 DUP1 SLOAD PUSH2 0x2B4 SWAP1 PUSH2 0xA5C JUMP JUMPDEST DUP1 ISZERO PUSH2 0x2FF JUMPI DUP1 PUSH1 0x1F LT PUSH2 0x2D6 JUMPI PUSH2 0x100 DUP1 DUP4 SLOAD DIV MUL DUP4 MSTORE SWAP2 PUSH1 0x20 ADD SWAP2 PUSH2 0x2FF JUMP JUMPDEST DUP3 ADD SWAP2 SWAP1 PUSH0 MSTORE PUSH1 0x20 PUSH0 KECCAK256 SWAP1 JUMPDEST DUP2 SLOAD DUP2 MSTORE SWAP1 PUSH1 0x1 ADD SWAP1 PUSH1 0x20 ADD DUP1 DUP4 GT PUSH2 0x2E2 JUMPI DUP3 SWAP1 SUB PUSH1 0x1F AND DUP3 ADD SWAP2 JUMPDEST POP POP POP POP POP DUP2 JUMP JUMPDEST PUSH0 PUSH1 0x2 SLOAD PUSH1 0x4 SLOAD LT ISZERO SWAP1 POP SWAP1 JUMP JUMPDEST PUSH0 DUP1 SLOAD SWAP1 PUSH2 0x100 EXP SWAP1 DIV PUSH20 0xFFFFFFFFFFFFFFFFFFFFFFFFFFFFFFFFFFFFFFFF AND PUSH20 0xFFFFFFFFFFFFFFFFFFFFFFFFFFFFFFFFFFFFFFFF AND CALLER PUSH20 0xFFFFFFFFFFFFFFFFFFFFFFFFFFFFFFFFFFFFFFFF AND EQ PUSH2 0x3A2 JUMPI PUSH1 0x40 MLOAD PUSH32 0x8C379A000000000000000000000000000000000000000000000000000000000 DUP2 MSTORE PUSH1 0x4 ADD PUSH2 0x399 SWAP1 PUSH2 0xAD6 JUMP JUMPDEST PUSH1 0x40 MLOAD DUP1 SWAP2 SUB SWAP1 REVERT JUMPDEST PUSH1 0x3 SLOAD TIMESTAMP GT PUSH2 0x3E6 JUMPI PUSH1 0x40 MLOAD PUSH32 0x8C379A000000000000000000000000000000000000000000000000000000000 DUP2 MSTORE PUSH1 0x4 ADD PUSH2 0x3DD SWAP1 PUSH2 0xB3E JUMP JUMPDEST PUSH1 0x40 MLOAD DUP1 SWAP2 SUB SWAP1 REVERT JUMPDEST PUSH2 0x3EE PUSH2 0x307 JUMP JUMPDEST PUSH2 0x42D JUMPI PUSH1 0x40 MLOAD PUSH32 0x8C379A000000000000000000000000000000000000000000000000000000000 DUP2 MSTORE PUSH1 0x4 ADD PUSH2 0x424 SWAP1 PUSH2 0xBA6 JUMP JUMPDEST PUSH1 0x40 MLOAD DUP1 SWAP2 SUB SWAP1 REVERT JUMPDEST PUSH0 SELFBALANCE GT PUSH2 0x46F JUMPI PUSH1 0x40 MLOAD PUSH32 0x8C379A000000000000000000000000000000000000000000000000000000000 DUP2 MSTORE PUSH1 0x4 ADD PUSH2 0x466 SWAP1 PUSH2 0xC0E JUMP JUMPDEST PUSH1 0x40 MLOAD DUP1 SWAP2 SUB SWAP1 REVERT JUMPDEST PUSH0 SELFBALANCE SWAP1 POP PUSH0 DUP1 PUSH0 SWAP1 SLOAD SWAP1 PUSH2 0x100 EXP SWAP1 DIV PUSH20 0xFFFFFFFFFFFFFFFFFFFFFFFFFFFFFFFFFFFFFFFF AND PUSH20 0xFFFFFFFFFFFFFFFFFFFFFFFFFFFFFFFFFFFFFFFF AND DUP3 PUSH1 0x40 MLOAD PUSH2 0x4B8 SWAP1 PUSH2 0xC59 JUMP JUMPDEST PUSH0 PUSH1 0x40 MLOAD DUP1 DUP4 SUB DUP2 DUP6 DUP8 GAS CALL SWAP3 POP POP POP RETURNDATASIZE DUP1 PUSH0 DUP2 EQ PUSH2 0x4F2 JUMPI PUSH1 0x40 MLOAD SWAP2 POP PUSH1 0x1F NOT PUSH1 0x3F RETURNDATASIZE ADD AND DUP3 ADD PUSH1 0x40 MSTORE RETURNDATASIZE DUP3 MSTORE RETURNDATASIZE PUSH0 PUSH1 0x20 DUP5 ADD RETURNDATACOPY PUSH2 0x4F7 JUMP JUMPDEST PUSH1 0x60 SWAP2 POP JUMPDEST POP POP SWAP1 POP DUP1 PUSH2 0x53B JUMPI PUSH1 0x40 MLOAD PUSH32 0x8C379A000000000000000000000000000000000000000000000000000000000 DUP2 MSTORE PUSH1 0x4 ADD PUSH2 0x532 SWAP1 PUSH2 0xCB7 JUMP JUMPDEST PUSH1 0x40 MLOAD DUP1 SWAP2 SUB SWAP1 REVERT JUMPDEST POP POP JUMP JUMPDEST PUSH1 0x3 SLOAD TIMESTAMP GT PUSH2 0x583 JUMPI PUSH1 0x40 MLOAD PUSH32 0x8C379A000000000000000000000000000000000000000000000000000000000 DUP2 MSTORE PUSH1 0x4 ADD PUSH2 0x57A SWAP1 PUSH2 0xB3E JUMP JUMPDEST PUSH1 0x40 MLOAD DUP1 SWAP2 SUB SWAP1 REVERT JUMPDEST PUSH2 0x58B PUSH2 0x307 JUMP JUMPDEST ISZERO PUSH2 0x5CB JUMPI PUSH1 0x40 MLOAD PUSH32 0x8C379A000000000000000000000000000000000000000000000000000000000 DUP2 MSTORE PUSH1 0x4 ADD PUSH2 0x5C2 SWAP1 PUSH2 0xD1F JUMP JUMPDEST PUSH1 0x40 MLOAD DUP1 SWAP2 SUB SWAP1 REVERT JUMPDEST PUSH0 PUSH1 0x5 PUSH0 CALLER PUSH20 0xFFFFFFFFFFFFFFFFFFFFFFFFFFFFFFFFFFFFFFFF AND PUSH20 0xFFFFFFFFFFFFFFFFFFFFFFFFFFFFFFFFFFFFFFFF AND DUP2 MSTORE PUSH1 0x20 ADD SWAP1 DUP2 MSTORE PUSH1 0x20 ADD PUSH0 KECCAK256 SLOAD GT PUSH2 0x64A JUMPI PUSH1 0x40 MLOAD PUSH32 0x8C379A000000000000000000000000000000000000000000000000000000000 DUP2 MSTORE PUSH1 0x4 ADD PUSH2 0x641 SWAP1 PUSH2 0xD87 JUMP JUMPDEST PUSH1 0x40 MLOAD DUP1 SWAP2 SUB SWAP1 REVERT JUMPDEST PUSH0 PUSH1 0x5 PUSH0 CALLER PUSH20 0xFFFFFFFFFFFFFFFFFFFFFFFFFFFFFFFFFFFFFFFF AND PUSH20 0xFFFFFFFFFFFFFFFFFFFFFFFFFFFFFFFFFFFFFFFF AND DUP2 MSTORE PUSH1 0x20 ADD SWAP1 DUP2 MSTORE PUSH1 0x20 ADD PUSH0 KECCAK256 SLOAD SWAP1 POP PUSH0 PUSH1 0x5 PUSH0 CALLER PUSH20 0xFFFFFFFFFFFFFFFFFFFFFFFFFFFFFFFFFFFFFFFF AND PUSH20 0xFFFFFFFFFFFFFFFFFFFFFFFFFFFFFFFFFFFFFFFF AND DUP2 MSTORE PUSH1 0x20 ADD SWAP1 DUP2 MSTORE PUSH1 0x20 ADD PUSH0 KECCAK256 DUP2 SWAP1 SSTORE POP PUSH0 CALLER PUSH20 0xFFFFFFFFFFFFFFFFFFFFFFFFFFFFFFFFFFFFFFFF AND DUP3 PUSH1 0x40 MLOAD PUSH2 0x6F2 SWAP1 PUSH2 0xC59 JUMP JUMPDEST PUSH0 PUSH1 0x40 MLOAD DUP1 DUP4 SUB DUP2 DUP6 DUP8 GAS CALL SWAP3 POP POP POP RETURNDATASIZE DUP1 PUSH0 DUP2 EQ PUSH2 0x72C JUMPI PUSH1 0x40 MLOAD SWAP2 POP PUSH1 0x1F NOT PUSH1 0x3F RETURNDATASIZE ADD AND DUP3 ADD PUSH1 0x40 MSTORE RETURNDATASIZE DUP3 MSTORE RETURNDATASIZE PUSH0 PUSH1 0x20 DUP5 ADD RETURNDATACOPY PUSH2 0x731 JUMP JUMPDEST PUSH1 0x60 SWAP2 POP JUMPDEST POP POP SWAP1 POP DUP1 PUSH2 0x775 JUMPI PUSH1 0x40 MLOAD PUSH32 0x8C379A000000000000000000000000000000000000000000000000000000000 DUP2 MSTORE PUSH1 0x4 ADD PUSH2 0x76C SWAP1 PUSH2 0xDEF JUMP JUMPDEST PUSH1 0x40 MLOAD DUP1 SWAP2 SUB SWAP1 REVERT JUMPDEST POP POP JUMP JUMPDEST PUSH1 0x4 SLOAD DUP2 JUMP JUMPDEST PUSH2 0x787 PUSH2 0x86D JUMP JUMPDEST ISZERO PUSH2 0x7C7 JUMPI PUSH1 0x40 MLOAD PUSH32 0x8C379A000000000000000000000000000000000000000000000000000000000 DUP2 MSTORE PUSH1 0x4 ADD PUSH2 0x7BE SWAP1 PUSH2 0xE57 JUMP JUMPDEST PUSH1 0x40 MLOAD DUP1 SWAP2 SUB SWAP1 REVERT JUMPDEST CALLVALUE PUSH1 0x5 PUSH0 CALLER PUSH20 0xFFFFFFFFFFFFFFFFFFFFFFFFFFFFFFFFFFFFFFFF AND PUSH20 0xFFFFFFFFFFFFFFFFFFFFFFFFFFFFFFFFFFFFFFFF AND DUP2 MSTORE PUSH1 0x20 ADD SWAP1 DUP2 MSTORE PUSH1 0x20 ADD PUSH0 KECCAK256 PUSH0 DUP3 DUP3 SLOAD PUSH2 0x813 SWAP2 SWAP1 PUSH2 0xEA2 JUMP JUMPDEST SWAP3 POP POP DUP2 SWAP1 SSTORE POP CALLVALUE PUSH1 0x4 PUSH0 DUP3 DUP3 SLOAD PUSH2 0x82B SWAP2 SWAP1 PUSH2 0xEA2 JUMP JUMPDEST SWAP3 POP POP DUP2 SWAP1 SSTORE POP PUSH32 0x1BB460CCAAF70FBACFEC17A376F8ACBD278C1405590FFCC8EBE4B88DAF4F64AD CALLER CALLVALUE PUSH1 0x40 MLOAD PUSH2 0x863 SWAP3 SWAP2 SWAP1 PUSH2 0xEE4 JUMP JUMPDEST PUSH1 0x40 MLOAD DUP1 SWAP2 SUB SWAP1 LOG1 JUMP JUMPDEST PUSH0 PUSH1 0x3 SLOAD TIMESTAMP GT ISZERO SWAP1 POP SWAP1 JUMP JUMPDEST PUSH0 PUSH20 0xFFFFFFFFFFFFFFFFFFFFFFFFFFFFFFFFFFFFFFFF DUP3 AND SWAP1 POP SWAP2 SWAP1 POP JUMP JUMPDEST PUSH0 PUSH2 0x8A2 DUP3 PUSH2 0x879 JUMP JUMPDEST SWAP1 POP SWAP2 SWAP1 POP JUMP JUMPDEST PUSH2 0x8B2 DUP2 PUSH2 0x898 JUMP JUMPDEST DUP3 MSTORE POP POP JUMP JUMPDEST PUSH0 PUSH1 0x20 DUP3 ADD SWAP1 POP PUSH2 0x8CB PUSH0 DUP4 ADD DUP5 PUSH2 0x8A9 JUMP JUMPDEST SWAP3 SWAP2 POP POP JUMP JUMPDEST PUSH0 DUP2 SWAP1 POP SWAP2 SWAP1 POP JUMP JUMPDEST PUSH2 0x8E3 DUP2 PUSH2 0x8D1 JUMP JUMPDEST DUP3 MSTORE POP POP JUMP JUMPDEST PUSH0 PUSH1 0x20 DUP3 ADD SWAP1 POP PUSH2 0x8FC PUSH0 DUP4 ADD DUP5 PUSH2 0x8DA JUMP JUMPDEST SWAP3 SWAP2 POP POP JUMP JUMPDEST PUSH0 DUP1 REVERT JUMPDEST PUSH0 PUSH2 0x910 DUP3 PUSH2 0x879 JUMP JUMPDEST SWAP1 POP SWAP2 SWAP1 POP JUMP JUMPDEST PUSH2 0x920 DUP2 PUSH2 0x906 JUMP JUMPDEST DUP2 EQ PUSH2 0x92A JUMPI PUSH0 DUP1 REVERT JUMPDEST POP JUMP JUMPDEST PUSH0 DUP2 CALLDATALOAD SWAP1 POP PUSH2 0x93B DUP2 PUSH2 0x917 JUMP JUMPDEST SWAP3 SWAP2 POP POP JUMP JUMPDEST PUSH0 PUSH1 0x20 DUP3 DUP5 SUB SLT ISZERO PUSH2 0x956 JUMPI PUSH2 0x955 PUSH2 0x902 JUMP JUMPDEST JUMPDEST PUSH0 PUSH2 0x963 DUP5 DUP3 DUP6 ADD PUSH2 0x92D JUMP JUMPDEST SWAP2 POP POP SWAP3 SWAP2 POP POP JUMP JUMPDEST PUSH0 DUP2 MLOAD SWAP1 POP SWAP2 SWAP1 POP JUMP JUMPDEST PUSH0 DUP3 DUP3 MSTORE PUSH1 0x20 DUP3 ADD SWAP1 POP SWAP3 SWAP2 POP POP JUMP JUMPDEST DUP3 DUP2 DUP4 MCOPY PUSH0 DUP4 DUP4 ADD MSTORE POP POP POP JUMP JUMPDEST PUSH0 PUSH1 0x1F NOT PUSH1 0x1F DUP4 ADD AND SWAP1 POP SWAP2 SWAP1 POP JUMP JUMPDEST PUSH0 PUSH2 0x9AE DUP3 PUSH2 0x96C JUMP JUMPDEST PUSH2 0x9B8 DUP2 DUP6 PUSH2 0x976 JUMP JUMPDEST SWAP4 POP PUSH2 0x9C8 DUP2 DUP6 PUSH1 0x20 DUP7 ADD PUSH2 0x986 JUMP JUMPDEST PUSH2 0x9D1 DUP2 PUSH2 0x994 JUMP JUMPDEST DUP5 ADD SWAP2 POP POP SWAP3 SWAP2 POP POP JUMP JUMPDEST PUSH0 PUSH1 0x20 DUP3 ADD SWAP1 POP DUP2 DUP2 SUB PUSH0 DUP4 ADD MSTORE PUSH2 0x9F4 DUP2 DUP5 PUSH2 0x9A4 JUMP JUMPDEST SWAP1 POP SWAP3 SWAP2 POP POP JUMP JUMPDEST PUSH0 DUP2 ISZERO ISZERO SWAP1 POP SWAP2 SWAP1 POP JUMP JUMPDEST PUSH2 0xA10 DUP2 PUSH2 0x9FC JUMP JUMPDEST DUP3 MSTORE POP POP JUMP JUMPDEST PUSH0 PUSH1 0x20 DUP3 ADD SWAP1 POP PUSH2 0xA29 PUSH0 DUP4 ADD DUP5 PUSH2 0xA07 JUMP JUMPDEST SWAP3 SWAP2 POP POP JUMP JUMPDEST PUSH32 0x4E487B7100000000000000000000000000000000000000000000000000000000 PUSH0 MSTORE PUSH1 0x22 PUSH1 0x4 MSTORE PUSH1 0x24 PUSH0 REVERT JUMPDEST PUSH0 PUSH1 0x2 DUP3 DIV SWAP1 POP PUSH1 0x1 DUP3 AND DUP1 PUSH2 0xA73 JUMPI PUSH1 0x7F DUP3 AND SWAP2 POP JUMPDEST PUSH1 0x20 DUP3 LT DUP2 SUB PUSH2 0xA86 JUMPI PUSH2 0xA85 PUSH2 0xA2F JUMP JUMPDEST JUMPDEST POP SWAP2 SWAP1 POP JUMP JUMPDEST PUSH32 0x4F6E6C792063726561746F722063616E20636C61696D00000000000000000000 PUSH0 DUP3 ADD MSTORE POP JUMP JUMPDEST PUSH0 PUSH2 0xAC0 PUSH1 0x16 DUP4 PUSH2 0x976 JUMP JUMPDEST SWAP2 POP PUSH2 0xACB DUP3 PUSH2 0xA8C JUMP JUMPDEST PUSH1 0x20 DUP3 ADD SWAP1 POP SWAP2 SWAP1 POP JUMP JUMPDEST PUSH0 PUSH1 0x20 DUP3 ADD SWAP1 POP DUP2 DUP2 SUB PUSH0 DUP4 ADD MSTORE PUSH2 0xAED DUP2 PUSH2 0xAB4 JUMP JUMPDEST SWAP1 POP SWAP2 SWAP1 POP JUMP JUMPDEST PUSH32 0x43616D706169676E206E6F7420656E6465640000000000000000000000000000 PUSH0 DUP3 ADD MSTORE POP JUMP JUMPDEST PUSH0 PUSH2 0xB28 PUSH1 0x12 DUP4 PUSH2 0x976 JUMP JUMPDEST SWAP2 POP PUSH2 0xB33 DUP3 PUSH2 0xAF4 JUMP JUMPDEST PUSH1 0x20 DUP3 ADD SWAP1 POP SWAP2 SWAP1 POP JUMP JUMPDEST PUSH0 PUSH1 0x20 DUP3 ADD SWAP1 POP DUP2 DUP2 SUB PUSH0 DUP4 ADD MSTORE PUSH2 0xB55 DUP2 PUSH2 0xB1C JUMP JUMPDEST SWAP1 POP SWAP2 SWAP1 POP JUMP JUMPDEST PUSH32 0x476F616C206E6F74207265616368656400000000000000000000000000000000 PUSH0 DUP3 ADD MSTORE POP JUMP JUMPDEST PUSH0 PUSH2 0xB90 PUSH1 0x10 DUP4 PUSH2 0x976 JUMP JUMPDEST SWAP2 POP PUSH2 0xB9B DUP3 PUSH2 0xB5C JUMP JUMPDEST PUSH1 0x20 DUP3 ADD SWAP1 POP SWAP2 SWAP1 POP JUMP JUMPDEST PUSH0 PUSH1 0x20 DUP3 ADD SWAP1 POP DUP2 DUP2 SUB PUSH0 DUP4 ADD MSTORE PUSH2 0xBBD DUP2 PUSH2 0xB84 JUMP JUMPDEST SWAP1 POP SWAP2 SWAP1 POP JUMP JUMPDEST PUSH32 0x4E6F2066756E647320746F20636C61696D000000000000000000000000000000 PUSH0 DUP3 ADD MSTORE POP JUMP JUMPDEST PUSH0 PUSH2 0xBF8 PUSH1 0x11 DUP4 PUSH2 0x976 JUMP JUMPDEST SWAP2 POP PUSH2 0xC03 DUP3 PUSH2 0xBC4 JUMP JUMPDEST PUSH1 0x20 DUP3 ADD SWAP1 POP SWAP2 SWAP1 POP JUMP JUMPDEST PUSH0 PUSH1 0x20 DUP3 ADD SWAP1 POP DUP2 DUP2 SUB PUSH0 DUP4 ADD MSTORE PUSH2 0xC25 DUP2 PUSH2 0xBEC JUMP JUMPDEST SWAP1 POP SWAP2 SWAP1 POP JUMP JUMPDEST PUSH0 DUP2 SWAP1 POP SWAP3 SWAP2 POP POP JUMP JUMPDEST POP JUMP JUMPDEST PUSH0 PUSH2 0xC44 PUSH0 DUP4 PUSH2 0xC2C JUMP JUMPDEST SWAP2 POP PUSH2 0xC4F DUP3 PUSH2 0xC36 JUMP JUMPDEST PUSH0 DUP3 ADD SWAP1 POP SWAP2 SWAP1 POP JUMP JUMPDEST PUSH0 PUSH2 0xC63 DUP3 PUSH2 0xC39 JUMP JUMPDEST SWAP2 POP DUP2 SWAP1 POP SWAP2 SWAP1 POP JUMP JUMPDEST PUSH32 0x5472616E73666572206661696C65640000000000000000000000000000000000 PUSH0 DUP3 ADD MSTORE POP JUMP JUMPDEST PUSH0 PUSH2 0xCA1 PUSH1 0xF DUP4 PUSH2 0x976 JUMP JUMPDEST SWAP2 POP PUSH2 0xCAC DUP3 PUSH2 0xC6D JUMP JUMPDEST PUSH1 0x20 DUP3 ADD SWAP1 POP SWAP2 SWAP1 POP JUMP JUMPDEST PUSH0 PUSH1 0x20 DUP3 ADD SWAP1 POP DUP2 DUP2 SUB PUSH0 DUP4 ADD MSTORE PUSH2 0xCCE DUP2 PUSH2 0xC95 JUMP JUMPDEST SWAP1 POP SWAP2 SWAP1 POP JUMP JUMPDEST PUSH32 0x476F616C20776173207265616368656400000000000000000000000000000000 PUSH0 DUP3 ADD MSTORE POP JUMP JUMPDEST PUSH0 PUSH2 0xD09 PUSH1 0x10 DUP4 PUSH2 0x976 JUMP JUMPDEST SWAP2 POP PUSH2 0xD14 DUP3 PUSH2 0xCD5 JUMP JUMPDEST PUSH1 0x20 DUP3 ADD SWAP1 POP SWAP2 SWAP1 POP JUMP JUMPDEST PUSH0 PUSH1 0x20 DUP3 ADD SWAP1 POP DUP2 DUP2 SUB PUSH0 DUP4 ADD MSTORE PUSH2 0xD36 DUP2 PUSH2 0xCFD JUMP JUMPDEST SWAP1 POP SWAP2 SWAP1 POP JUMP JUMPDEST PUSH32 0x4E6F20636F6E747269627574696F6E20666F756E640000000000000000000000 PUSH0 DUP3 ADD MSTORE POP JUMP JUMPDEST PUSH0 PUSH2 0xD71 PUSH1 0x15 DUP4 PUSH2 0x976 JUMP JUMPDEST SWAP2 POP PUSH2 0xD7C DUP3 PUSH2 0xD3D JUMP JUMPDEST PUSH1 0x20 DUP3 ADD SWAP1 POP SWAP2 SWAP1 POP JUMP JUMPDEST PUSH0 PUSH1 0x20 DUP3 ADD SWAP1 POP DUP2 DUP2 SUB PUSH0 DUP4 ADD MSTORE PUSH2 0xD9E DUP2 PUSH2 0xD65 JUMP JUMPDEST SWAP1 POP SWAP2 SWAP1 POP JUMP JUMPDEST PUSH32 0x526566756E64206661696C656400000000000000000000000000000000000000 PUSH0 DUP3 ADD MSTORE POP JUMP JUMPDEST PUSH0 PUSH2 0xDD9 PUSH1 0xD DUP4 PUSH2 0x976 JUMP JUMPDEST SWAP2 POP PUSH2 0xDE4 DUP3 PUSH2 0xDA5 JUMP JUMPDEST PUSH1 0x20 DUP3 ADD SWAP1 POP SWAP2 SWAP1 POP JUMP JUMPDEST PUSH0 PUSH1 0x20 DUP3 ADD SWAP1 POP DUP2 DUP2 SUB PUSH0 DUP4 ADD MSTORE PUSH2 0xE06 DUP2 PUSH2 0xDCD JUMP JUMPDEST SWAP1 POP SWAP2 SWAP1 POP JUMP JUMPDEST PUSH32 0x43616D706169676E206E6F742061637469766500000000000000000000000000 PUSH0 DUP3 ADD MSTORE POP JUMP JUMPDEST PUSH0 PUSH2 0xE41 PUSH1 0x13 DUP4 PUSH2 0x976 JUMP JUMPDEST SWAP2 POP PUSH2 0xE4C DUP3 PUSH2 0xE0D JUMP JUMPDEST PUSH1 0x20 DUP3 ADD SWAP1 POP SWAP2 SWAP1 POP JUMP JUMPDEST PUSH0 PUSH1 0x20 DUP3 ADD SWAP1 POP DUP2 DUP2 SUB PUSH0 DUP4 ADD MSTORE PUSH2 0xE6E DUP2 PUSH2 0xE35 JUMP JUMPDEST SWAP1 POP SWAP2 SWAP1 POP JUMP JUMPDEST PUSH32 0x4E487B7100000000000000000000000000000000000000000000000000000000 PUSH0 MSTORE PUSH1 0x11 PUSH1 0x4 MSTORE PUSH1 0x24 PUSH0 REVERT JUMPDEST PUSH0 PUSH2 0xEAC DUP3 PUSH2 0x8D1 JUMP JUMPDEST SWAP2 POP PUSH2 0xEB7 DUP4 PUSH2 0x8D1 JUMP JUMPDEST SWAP3 POP DUP3 DUP3 ADD SWAP1 POP DUP1 DUP3 GT ISZERO PUSH2 0xECF JUMPI PUSH2 0xECE PUSH2 0xE75 JUMP JUMPDEST JUMPDEST SWAP3 SWAP2 POP POP JUMP JUMPDEST PUSH2 0xEDE DUP2 PUSH2 0x906 JUMP JUMPDEST DUP3 MSTORE POP POP JUMP JUMPDEST PUSH0 PUSH1 0x40 DUP3 ADD SWAP1 POP PUSH2 0xEF7 PUSH0 DUP4 ADD DUP6 PUSH2 0xED5 JUMP JUMPDEST PUSH2 0xF04 PUSH1 0x20 DUP4 ADD DUP5 PUSH2 0x8DA JUMP JUMPDEST SWAP4 SWAP3 POP POP POP JUMP INVALID LOG2 PUSH5 0x6970667358 0x22 SLT KECCAK256 SWAP11 BLOCKHASH PUSH24 0xE126EEDDAECAD2AAFA326198B127B4DC829B06AFE1BB1BE LOG2 0x4B SWAP2 JUMPI BALANCE PUSH5 0x736F6C6343 STOP ADDMOD BYTE STOP CALLER "
				},
				"gasEstimates": {
					"creation": {
						"codeDepositCost": "781000",
						"executionCost": "infinite",
						"totalCost": "infinite"
					},
					"external": {
						"campaignActive()": "2556",
						"claimFunds()": "infinite",
						"contribute()": "infinite",
						"contributions(address)": "2869",
						"creator()": "2506",
						"deadline()": "2448",
						"getRefund()": "infinite",
						"goal()": "2470",
						"goalReached()": "4547",
						"title()": "infinite",
						"totalRaised()": "2491"
					}
				},
				"methodIdentifiers": {
					"campaignActive()": "e8b89dd8",
					"claimFunds()": "ac307773",
					"contribute()": "d7bb99ba",
					"contributions(address)": "42e94c90",
					"creator()": "02d05d3f",
					"deadline()": "29dcb0cf",
					"getRefund()": "b2d5ae44",
					"goal()": "40193883",
					"goalReached()": "7d3d6522",
					"title()": "4a79d50c",
					"totalRaised()": "c5c4744c"
				}
			},
			"storageLayout": {
				"storage": [
					{
						"astId": 3,
						"contract": "contracts/crowdfunding.sol:Campaign",
						"label": "creator",
						"offset": 0,
						"slot": "0",
						"type": "t_address_payable"
					},
					{
						"astId": 5,
						"contract": "contracts/crowdfunding.sol:Campaign",
						"label": "title",
						"offset": 0,
						"slot": "1",
						"type": "t_string_storage"
					},
					{
						"astId": 7,
						"contract": "contracts/crowdfunding.sol:Campaign",
						"label": "goal",
						"offset": 0,
						"slot": "2",
						"type": "t_uint256"
					},
					{
						"astId": 9,
						"contract": "contracts/crowdfunding.sol:Campaign",
						"label": "deadline",
						"offset": 0,
						"slot": "3",
						"type": "t_uint256"
					},
					{
						"astId": 11,
						"contract": "contracts/crowdfunding.sol:Campaign",
						"label": "totalRaised",
						"offset": 0,
						"slot": "4",
						"type": "t_uint256"
					},
					{
						"astId": 15,
						"contract": "contracts/crowdfunding.sol:Campaign",
						"label": "contributions",
						"offset": 0,
						"slot": "5",
						"type": "t_mapping(t_address,t_uint256)"
					}
				],
				"types": {
					"t_address": {
						"encoding": "inplace",
						"label": "address",
						"numberOfBytes": "20"
					},
					"t_address_payable": {
						"encoding": "inplace",
						"label": "address payable",
						"numberOfBytes": "20"
					},
					"t_mapping(t_address,t_uint256)": {
						"encoding": "mapping",
						"key": "t_address",
						"label": "mapping(address => uint256)",
						"numberOfBytes": "32",
						"value": "t_uint256"
					},
					"t_string_storage": {
						"encoding": "bytes",
						"label": "string",
						"numberOfBytes": "32"
					},
					"t_uint256": {
						"encoding": "inplace",
						"label": "uint256",
						"numberOfBytes": "32"
					}
				}
			},
			"userdoc": {
				"kind": "user",
				"methods": {},
				"version": 1
			}
		}
	}
}